:020000040000FA
:1000000000008A150A16882EFF00030E8301A10046
:100010000A08A0008A010408A2007708A300780853
:10002000A4007908A5007A08A6007B08A70083131E
:1000300083120B1E1D288B183C288C308400801ED8
:1000400023288C1A3F288C308400801C29288C1887
:100050004228220884002308F7002408F800250815
:10006000F9002608FA002708FB0020088A00210E64
:100070008300FF0E7F0E09008A110A1247298A1198
:100080000A12AE288A110A128B290A108A100A1144
:10009000820728342D34323437343C3441344634EA
:1000A0004B34503455345A340A108A100A118207DE
:1000B0000034003438340434083407348C340A34BF
:1000C0000A108A100A118207A034053440340B3418
:1000D00000340F34E03410340A108A100A118207F9
:1000E000643470340A108A100A1182070034003414
:1000F000083407340A108A100A11820720341C348D
:1001000080341634C03412341234103410340E34A7
:1001100080340C3440340B343A340A340A108A10D8
:100120000A1182070034003468340134D0340234B8
:100130000A108A100A11820710340E3480340C34ED
:1001400010340E340A108A100A1182073C344B34E2
:100150005A346934783487349634A5348C1ECE28CA
:100160001A088316E5006508033C031DBA28C1017F
:10017000C001CC284108C10AA33E84006508800064
:10018000C00A41081C3C0318CC28C10140081C3C93
:100190000318CC28C101C0018312AE288A110A12AB
:1001A0002928D21CD8285D13DD16DD15B0110B29C6
:1001B000521CE028C316D0125D17DD12DD110B2989
:1001C0005219E428D21D0B29D21AED28550BE92823
:1001D000ED285508043C0318FC28521DF5285D083D
:1001E0000739063C031CF528DD0AD21DFC285D08F2
:1001F00007390319FC28DD03550BFF28D50A5508DC
:10020000043C031805290230D5004C085D06073967
:1002100003190B295D16D21A0F29521E1029D2017B
:100220008A110A124429521E18295212D2162C2958
:10023000043088005210881D521424308800D210D7
:10024000881DD214443088005211881D5215643024
:100250008800D211881DD215D11D31295208D3042E
:10026000442953085202031D3729D40A3B29D401DB
:10027000D5015208D300D21E3F29FC30D4005408C7
:10028000FC3903194429D1288A110A124829132953
:10029000B201B101CC177108720403195329710816
:1002A0000319F203F1030230B006861C5A29C60A6C
:1002B0000319C70A91018C10B50AB51E672982304F
:1002C000B50001080B19FF30B40081010B11861134
:1002D0000030B01801300139031986292908AA070E
:1002E0002A08633C03187D296430AA02D6158716B4
:1002F000603088000815D1128529D11E8529D611B4
:100300008712603088000815D1128729D1168B100A
:100310008A110A122928B10F8F29320FB200CC1F7F
:100320009529CC133708B8009A29B808031DB80BD3
:100330009A2986158C108A110A1229280130F40096
:100340000B138B138B1BA1291F308805F40803198D
:10035000B6298716480874050319AF2987120711B3
:100360000715203088070310F40DA629C0308B0430
:1003700000340730AD008501860187010430890013
:10038000C8019E21C901BB01BC01D501D401CB012B
:10039000CA01DD01D3015308D200D101D701B00158
:1003A000DC30DA008A110A12132A8611B301B8016F
:1003B000B701B501B40100340B138B138B1BDD297E
:1003C0001F30880501308316D400D4080319FB2997
:1003D000831287125608831654050319F2298312D3
:1003E000871683168312081108152030880703101A
:1003F0008316D40DE529C03083128B040034BF303E
:1004000083168100831281010B113F308316850012
:10041000D1308600803087001B3088000914891491
:1004200009118312B929D52174309500C630960080
:100430000B309700313090008F018E010930831608
:100440009F00813083129F000030F8000438920032
:1004500042308316920083120B1683168C14C03020
:1004600083128B04D130831686008312D601DC21DF
:100470008A110A12482A1A088316A3008312181236
:1004800018168316A30183128A110A12492AFF291A
:100490003B2ADC30DA008316C201A0018312D1119D
:1004A0007E10CD018A150A161E28E101E201EB013A
:1004B000ED01EE01F030FE058316C8014808073C47
:1004C000031C682A6330480784008001C80A5E2A3A
:1004D00083120034D616DC2100348316D3080319A6
:1004E0007A2A8312AD18762A83167A2A6A2207148A
:1004F0007C2A83168312071000348316D30803194D
:100500008A2A83122D18862A83168A2A6A22871439
:100510008C2A8316831287100034AD138316D301FF
:1005200083126D228316D30183127D2200340F3093
:100530008316D8055808093C0318A22A57305807D3
:10054000D900A52A30305807D900590883120C1A4F
:10055000AB2A8316A62A990000348316560ED700BC
:100560000F30D7055708D8008312972283165608F4
:10057000D800831297220034D119D42A44300C1E9B
:10058000BF2A990057300C1EC32A990083165308BE
:10059000D6008312AD2283165408D6008312AD22F2
:1005A0000A300C1ED12A9900003494138C11831642
:1005B0005508831293000230941BE52A8C1DDE2A15
:1005C00000308316111B01308312F80000348316AB
:1005D00091159119E92A77189112771C9116111625
:1005E000111AF02A83121308F80000342C0DF700BA
:1005F000F70DF70DF830F7051F08C73977049F008E
:100600005330F700F70B022BAC08031D072B2C0B04
:10061000102B8618102B1F151F190C2B1E08D70026
:100620002C08023C031D3E2B1F151F19152B1E08FD
:10063000D8005808143C0318292BD61A212BEF0A8E
:10064000262B6F08063C031C262BEF01AD1B292B24
:10065000EF0A6F08063C03183E2B8D226A224F17C3
:100660004F14CF144F151C308316D3008312580833
:100670008316D4008312BC220C30EF002C08033CFC
:10068000031D472B1F151F19432B1E08AE002C08F6
:10069000043C031D502B1F151F194C2B1E08AF00C7
:1006A0002C08053C031DB22B83162208D30011141D
:1006B0001118582B9A30D5008312D5220130831699
:1006C000D5008312D522831611151119652B11142B
:1006D0001118682B9B30D5008312D5220130F7000A
:1006E000E72278088316D40011151119752B5408C8
:1006F000F800781F572B111411187C2B9A30D50055
:100700008312D5228316D5018312D52283161115A3
:100710001119882B111411188B2B9B30D5008312C3
:10072000D5220130F700E72278088316A2001115C0
:100730001119982B01305307803AF7002208803AAC
:1007400077020318A52BA20AB12B01305302803A7D
:10075000F7002208803A77020319B12B031CB12B52
:10076000A2038312AC0A2C08053C0318B82BAC0179
:10077000003410308316DA00F701FA01D70CD60CDA
:10078000031CC82B5808F7070318FA0A5908FA0778
:10079000FA0CF70CF90CF80CDA0BBE2B83120034B0
:1007A0005119D62B30308316DA07831283165A0874
:1007B000831203178D0083168C130C1483120C08FC
:1007C00083160313DB005B08F800831200348316E2
:1007D000E101DF01DE018030E000E2016208073C58
:1007E000031C1C2C5C086005F700FA0177087A04EA
:1007F0000319002C5A08DE075B0803185B0FDF079C
:100800005A080139F700FA0177087A0403190C2C09
:100810006008E1076008E1070310DB0CDA0C6108EF
:10082000803C0318182C8030E102DA0A0319DB0A35
:100830000310E00CE20AEE2B5E08F8005F08F900F6
:10084000831200348316D9017E1C702C5508DA00FF
:100850008312D02378088316D8005408073C031865
:10086000362C0310D40CD30CD90A2D2C5408DB00E1
:100870005308DA00DD015808DC008312E723790809
:100880008316D7007808D6005708053C0318542C67
:10089000FF3A031D4F2C56083D3C0318542C0310FF
:1008A000D70CD60CD90A442C5708DB005608DA00BE
:1008B000DD01A430DC008312E72379088316D7001A
:1008C0007808D600D90803196A2C0310D60DD70D65
:1008D000D903622C5608F8005708F900752C752CBE
:1008E0005308F8005408F900752C8312003483165D
:1008F0004E08D7004D08D600D9011830D800831211
:10090000B92379088316CE007808CD007E1C9B2C75
:100910004E08D4004D08D3004F08D500831222247E
:1009200079088316D1007808D0005008F8005108E3
:10093000F900A02CA02C4D08F8004E08F900A02CBE
:1009400083120034F801F901F701FA018316570800
:10095000031DAD2C56080319C72C1030D800031006
:10096000D40DD50DF70DFA0D57087A02031DBA2CD8
:1009700056087702031CC32C5608F702031CFA031F
:100980005708FA020314F80DF90DD80BAF2C00002C
:1009900083120034881CEC2C83165308053C031C7E
:1009A000D42C0630D300D20183124C0870392F3C6E
:1009B0000318EC2C8316530CFA00520CF900FA0CB5
:1009C000F90CFA0CF90C1F30FA057908D2077A08ED
:1009D00003187A0FD3078312081E042D83165208BA
:1009E00053040319032D530CFA00520CF900FA0CAE
:1009F000F90CFA0CF90C1F30FA057908D2077A08BD
:100A000003187A0FD3078312501E1D2D6C308316E6
:100A1000DA008312D02378088316D4005308DB0051
:100A20005208DA00DD015408DC008312E72379085C
:100A30008316D3007808D200831283165308D5009A
:100A40005208D400D7011830D6008312A2247908A6
:100A50008316D3007808D2005308003C0318332DC6
:100A6000D301FF30D200520883123302031D3D2D03
:100A70008316D3080319442D831283165208831258
:100A8000B300FF30BC0083168312003483164F0876
:100A9000DB004E08DA00DD012630DC008312E7239C
:100AA00079088316D1007808D0005108DB0050087F
:100AB000DA00DD0183122E088316DC008312E7239F
:100AC00079088316D1007808D0004F08DB004E0863
:100AD000DA00DD015930DC008312E7237808831641
:100AE000D00779080318790FD1075108D3005008AF
:100AF000D2008312CA2400344C087039303C031CE5
:100B0000862D8316C9080319A52D83124C080739B1
:100B1000A2208316CB0083124C080739403E83166F
:100B2000CC00CE014B08CD004C08CF0083127724B7
:100B300079088316CD007808CC004D08CF004C080A
:100B4000CE0083124625B02D831683124C087039CF
:100B5000203C031DB02D8316D301D2018312CA2479
:100B60000034D119CB2D8316C90183127C25570877
:100B7000133C031CC02D8316C8080319C92D83120A
:100B800008308316D3003430D2008312CA24CB2D10
:100B900083168312D5210034CE3084000008031957
:100BA000E02D0330F800F701F70BD42DF80BD32D0F
:100BB0003C30F700F70BDA2D00000000800BD12D40
:100BC00000340130C8009E210A308316CE00831203
:100BD000CC250310C80DC8080319EF2DE32D8A1189
:100BE0000A12052E8030C8009E210A308316CE00DE
:100BF0008312CC250310C80CC8080319002EF42D4D
:100C00009E218A110A12162EE12D8316480883129E
:100C1000C8009E2104308316C900FA30CE0083122A
:100C2000CC258316C90B0D2E8312F22D0034023011
:100C30008316C8008312042670308316C8008312FE
:100C400004268A150A16492843080F39003C031860
:100C5000392E83165308013C031C382E031D342EF5
:100C60005208673C031C382E0130D3006830D20094
:100C700083128316520883124102031D452E8316E8
:100C800053088312420203194D2E83165308831210
:100C9000C000831652088312BF00831653088312C4
:100CA000C200831652088312C100C3120034831697
:100CB0005108DB005008DA00DD012630DC00831229
:100CC000E72379088316D3007808D2006E30DA0063
:100CD0008312D023781C7F2E83165308DB00520822
:100CE000DA00DD0183122E088316DC008312E7236D
:100CF00079088316D3007808D200912E83122F082A
:100D0000FF3C8316D4005308DB005208DA00DD01F3
:100D10005408DC008312E72379088316D30078088F
:100D2000D2005108DB005008DA00DD015930DC0048
:100D30008312E72378088316D20779080318790FFE
:100D4000D3075208F8005308F90083128A110A12D7
:100D5000B32E861042088316D100831241088316F1
:100D6000D0008312572E7908C0007808BF004508CC
:100D70004002031CCB2E031DC12E3F084402031862
:100D8000CB2E44083F02BD004008BE004508031CAE
:100D9000450FBE02CE2EBE010130BD0043080F3903
:100DA000003C0318E12E3E08013C031CE12E031D0C
:100DB000DD2E3D08673C031CE12E0130BE0068308B
:100DC000BD003E088316D10083123D088316D00073
:100DD00083120B138B138B1BEA2E83165108F20020
:100DE0005008F100C03083128B0400348316C40114
:100DF000C301CF010230CE004F08003C031C1C2F62
:100E00004E08831203178D0083168C130C14831263
:100E10000C0883160313C3070318C40AD001C41BAC
:100E2000D00A0310C30DC40D5008C3070318C40A29
:100E3000CE0A0319CF0AFC2E831200347E14FE144E
:100E40007E15FE1503178D0183168C130C14831267
:100E50000C088316031344020319302F7E10FE1072
:100E60000130831203178D0083168C130C14831228
:100E70000C088316031343020319402F7E107E11C2
:100E80000230831203178D0083168C130C14831207
:100E90000C08073C03194E2F7E10FE11031300347B
:100EA000F6261E27003450277E080F390F3C031901
:100EB0005F2F50277E080F390F3C03195F2F003436
:100EC0008316540883126D0203186A2F8316540880
:100ED0008312ED000034D613DC210034D617DC2158
:100EE000003454300C1E722F990083165408D6001B
:100EF0008312AD2283165508D6008312AD220A3024
:100F00000C1E802F9900003448088316D3008312EA
:100F1000C801F301C9134C0870392F3C031C922FF0
:100F2000D01E9B2F5D080739F400F40A0310C80D8A
:100F3000C80AF40B962FCF080319A12FC9174F0821
:100F4000F3042D18A52F4130F304AD18A92F42301A
:100F5000F304301CAD2FC9177316501EB22FC917DA
:100F60000630F30443080F39013C0318BE2FC9179C
:100F7000F31705308316D400831260277308C80462
:100F8000491DCD2FD018C92F4C087039603C031D66
:100F9000CD2FD61FCC2F6B27D02FD61BD02F6E274F
:100FA000CC1DD52F4808F304C913491ED92F730847
:100FB000C8069E214808831653020319EB2FC20866
:100FC0000319EB2F2030D400831248088316D50074
:100FD00083127127831683128A150A12C8284C08B7
:100FE00070393F3C0318FB2F4C0870395F3C031CE1
:100FF000FB2F0730AD0000340730AD000034003463
:101000000C1DC4280C110130C91B0430C907C912BA
:10101000BB0A3C0FBC00F030891C861CBB05540881
:10102000073C03181528D50ADD17981C1A289810B4
:1010300018121816CE0803192028CE03CC15212823
:10104000CC114A1C2428DF0A4A1C3428CA1C342824
:101050004A1D3428CA1D34284A1E3428DE0AE00AF4
:10106000ED0803193428ED03F00A511A3B28CA0F82
:101070003B284B0FCB008A11F6228A15861C472885
:1010800008184628431E4528C31747284316B308A7
:10109000031D4E288611B701B801B228B51B51288F
:1010A000B228B5133C08093C031C5828BC0AB228D6
:1010B000BC013408043C031C69283B1F6228CF167E
:1010C000B01764281030BB07FF30BC000230B700F7
:1010D000B2280F30BB05330F70280130B700B2289B
:1010E00033083402031D7528B2283308340203186C
:1010F0009028B70803197D28B70334083602031C6B
:101100008B28340836020A3C03188A28B7080319CA
:101110008A28B7038F28370F8E288F28B70AAA2866
:10112000340833020318AA28370F97289828B70ADB
:1011300036083402031CA628360834020A3C031879
:10114000A528370FA428A528B70AAA28B708031985
:10115000AA28B7033408B600B708031DB228013027
:10116000B700B228061EB6280C30CE005708FC3C4B
:101170000318BB285014501CC4285708F43C031C07
:10118000C3285010C428CC15D119C9288A11842F1E
:101190008A1500347E1CE12883165608DA008A116D
:1011A0008312D0238A1578088316D7005708643C29
:1011B0000318DC286430D7005708F800E528E52834
:1011C00083126430F8008316E5288312003420303F
:1011D0008316E400E001E101E201E3015B08FA00AB
:1011E0005A08F9005908F8005808F7000310771C4E
:1011F00007295C08E0075D0803185D0FE1075E083A
:1012000003185E0FE2075F0803185F0FE307E30CA4
:10121000E20CE10CE00CFA0CF90CF80CF70CE40B06
:10122000F6288312003464308316D6008312CA2055
:1012300078088316D500D701A030D600D90155080B
:10124000D8008A118312B9238A158316D401D301D9
:101250007908D2007808D1006E30DA008A11831242
:10126000D0238A15781CCA292F087F3C03186229CD
:1012700080302F028316D600DB015608DA00DD012C
:101280007830DC008A118312E7238A157808803CC5
:101290008316D5005208D7005108D6005208DB004B
:1012A0005108DA00DD015508DC008A118312E723BA
:1012B0008A158316D401D3017908D2007808D100A9
:1012C0009D2983128316DB0183122F088316DA000F
:1012D000DD013030DC008A118312E7238A1578089B
:1012E000403C8316D5005408DB005308DA0052084E
:1012F000D9005108D800DF01DE01DD015508DC000E
:101300008312E7207A088316D4007908D30078087E
:10131000D2007708D100D40CD30CD20CD10CD40C51
:10132000D30CD20CD10CD40CD30CD20CD10CD40CC9
:10133000D30CD20CD10C0F30D405D408031DAE2928
:10134000D308031DAE295208F93C0318B329FF3A0C
:10135000031DAE295108003C0318B329D401D30161
:10136000FA30D200D101D408031DC929D308031DC6
:10137000C9295208033C031CC929031DC32951086C
:10138000E73C031CC929D401D3010330D200E83063
:10139000D100831283165108F8005208F900831215
:1013A00000344C0807398316CD004D08CE00831257
:1013B0004C1EE12976087502031CE1298316CE0A2A
:1013C0008312031083164D0D123ED1004E088A1170
:1013D000831245208A158316D2004D088A11831284
:1013E00045208A15F800831652025107CC0083125B
:1013F000132179088316D2007808D100520CD0004E
:10140000510CCF00D00CCF0CD00CCF0C1F30D0051E
:1014100083123A0883165002031C402A031D182A1F
:101420004F0883123902031C172A8316402A831699
:10143000D00CCF0CD00CCF0CD00CCF0C1F30D00563
:1014400083123A088316D500831239088316D40014
:101450005008D7004F08D6008A118312A2248A159B
:101460007908FA0078080A3CF7007908031C790F1C
:101470003B2A00303C2A003CFA0077088316CC0750
:101480004C08F8008312003483164E08F8014D0210
:1014900003184D2A4D08F700592AF7010830CF00EC
:1014A000CD0DF70D4E0877020318F700F80DCF0B9E
:1014B000502A83128A150A127D2BED08031D652A16
:1014C0004C087039603C031D752A7E1B752AF40197
:1014D0007408073C031C752A63307407840057089E
:1014E00080005708EB00F40A682A4C08703983160C
:1014F000C80048083F3C0318A92B48085F3C031C60
:10150000A92B0730D300831261088316D4008A11F7
:101510008312BC228A155A0857020318912A5708C9
:10152000DA006108003C0318142BFE1F992A1030C2
:101530009A2A183062078316CA00D30083125A0809
:101540008316D4008A118312BC228A1505308316B3
:10155000D300831262088316D4008A118312BC223E
:101560008A155A086B020318CA2AEB0A5A08C73CA4
:10157000031CC82A5A086B020318C82AEB0A5A0827
:10158000953C031CC82A5A086B020318C82AEB0AA8
:101590006B08DA006208E20A633E84005A088000A1
:1015A000FE1BF42AEB01F4017408073C031CF42A27
:1015B00063307407840000088316C800480883124B
:1015C0006B020318F22A831648088312EB000630D8
:1015D0008316D30083126B088316D4008A118312FA
:1015E000BC228A15F40AD42A6B085A02031D112B57
:1015F000F4017408073C031C062B63307407840055
:101600006B0880006B08EC00F40AF92A0630831698
:10161000D30083126B088316D4008A118312BC2274
:101620008A155708DA00E101D12178088316C8002D
:10163000FE1B5B2B8312EE01F4017408073C031CB4
:10164000532B6B08831648020318502B480883124B
:101650006B028316C90063307407840000084902D6
:101660000319392B031C392B10308312EE074F2B33
:10167000831683126B08831621020318502B21084E
:1016800083126B028316C90063307407840000085C
:1016900049020319502B031C502B8312EE0A8316A8
:1016A000F40A83121D2B6E082F3C0318592BFE17CA
:1016B000E201A82B831683126208073C0318942BBF
:1016C000F4017408073C031C8D2B633074078400FD
:1016D00000088316C900480DCA00CA0DFC30CA05AF
:1016E00009307407F7000310F70C7708CC004A089C
:1016F000CD004C08CE008312442A78086B02831672
:10170000490203198A2B031C8A2BFE137E138312B2
:1017100030138316F40A8312612BFE1F932BCF1410
:101720004F157E173013A82B633074078400000810
:101730008316C9000310480D49020319A92B031C85
:10174000A92BFE1FA92B8312CF144F157E17301320
:10175000831683126208073C0318AF2BE2018A1537
:101760000A120E2C7E1CC02B83164908DA008A113F
:101770008312D0238A1578088316CA00C32B8312DC
:1017800010308316CA004A08F80083128A150A121C
:10179000172CC31ED02B861CD02B8A11A9268A1584
:1017A000861C032CC31FF12B8A11A9268A15F03041
:1017B000C3054708C5004608C4004508133C031884
:1017C000EC2BFF3A031DE82B4408503C0318EC2B8C
:1017D0001430C5005030C400C701C601C313431202
:1017E000022CF108031D022CF208031D022C8A11A1
:1017F000A9268A1543080F39063C031C012CC30A8D
:10180000022CCF176E2CF108031D6E2CF208031D5D
:101810006E2CCF196E2CC31A6E2C5D2A86144C08C0
:101820000739503E8316C800C9008312B22B7808CE
:10183000B9070318BA0A13217908FA007A083A029C
:10184000031C302C031D282C78083902031C302C73
:10185000D01413217808B9027908031C790FBA0251
:10186000E10AC508031D3C2C4408633C031C3C2CC6
:101870000230C5008A30C400431B592C0310440DAC
:101880008316C8008312450D8316C9004908D1008C
:101890004808D00083120B138B138B1B4C2C831620
:1018A0005108F2005008F100C03083128B0443133A
:1018B0006E2C45088316D100831244088316D0008D
:1018C00083120B138B138B1B622C83165108F200AF
:1018D0005008F100C03083128B0443138A150A1696
:1018E00079283B080F390C3C0318772C4F15301022
:1018F000081A3014081A7E2CDE01882C8A11EF2772
:101900008A150C308316D4008A11831260278A1539
:101910005E08E03C03188F2C4F16E130DE00881C77
:101920009D2C8A11EF278A15CF1518308316D40005
:101930008A11831260278A15A42C5F08B33C031C0C
:10194000A42C3011CF11DF015F08B33C0318AC2C7D
:101950003015CF15B430DF004F1FAF2CB015003459
:101960007E1CD82C68308316CC004C08DA008A1113
:101970008312D0238A1578088316CA00CC0A4C0833
:10198000DA008A118312D0238A1578088316CB00D7
:101990004A08823C0318CE2C8230CA0028304A07FD
:1019A0004B020318D62C28304A07CB00DD2C8312BB
:1019B0005A308316CA00AA30CB008312D119512D98
:1019C0005708133C031CF52CA9014C087039203C26
:1019D0000319F42C4C080739F700F70DF70DFC300C
:1019E000F7057708193EA900512D570883164A02BA
:1019F000031CFF2C19308312A9004B2D83164B08B2
:101A000083125702031C072D6430A9004B2D831647
:101A10004A0883125702FA018316CD007A08CE00D5
:101A2000D7014B30D6004E08D9004D08D8008A1196
:101A30008312B9238A1579088316CF007808CE005F
:101A40004A084B02FA01D0007A08D1004F08D500AD
:101A50004E08D4005108D7005008D6008A118312CE
:101A6000A2248A1579088316D0007808CF0019308F
:101A70004F07C8005008C9000318C90AC908031D48
:101A8000452D4808643C0318482DC9016430C8003E
:101A900048088312A9002908183C031C512D19304D
:101AA000A9008A150A167F28FF308316CE00CD01C3
:101AB000CC014C08073C031C702D63304C0784009C
:101AC0000008CF004E084F020318682D4F08CE00C3
:101AD0004F084D0203186E2D4F08CD00CC0A592D2A
:101AE0004E08CD027608CC008312501C7C2DD030DD
:101AF000F8000230F900BC2D83164D08053C031890
:101B0000892D1030F8000E30F9008312BC2DBC2D49
:101B10008316750876020318B62D831213217908EF
:101B20008316D1007808D000510CD300500CD2009D
:101B3000D30CD20CD30CD20C1F30D30583123A082D
:101B400083165302031CB62D031DAE2D52088312BB
:101B50003902031CAD2D8316B62D83167030F800A4
:101B60000830F9008312BC2DBC2D83163830F800E4
:101B70000430F9008312BC2D003483162008CA00FB
:101B80004B108312D119592F8316A008031DCD2D98
:101B90002208C800C901FE1BC90A200BD62D8312DA
:101BA00057088316C800C9017E1BC90A2008023CD9
:101BB000031DE62D83122E088316C800C901831267
:101BC000301FE52D8316C90A831283162008033CB3
:101BD000031DEF2D83122F088316C800C9012008AA
:101BE000043C031DFF2D831234088316C800C9016D
:101BF0008312501CFE2D8316C90A831283162008F7
:101C0000053C031D0B2E831237088316C800831270
:101C100062088316C9002008063C031D172E831294
:101C200029088316C80083126B088316C900200890
:101C3000073C031D232E831248088316C800831215
:101C400061088316C9002008083C031D2F2E83124B
:101C50002D088316C80083126C088316C90020085B
:101C6000093C031D382E83124C088316C8004B1400
:101C700020080A3C031D412E83123A088316C8002F
:101C80004B1420080B3C031D4A2E8312390883167F
:101C9000C8004B1420080C3C031D5B2E831213213B
:101CA00079088316CD007808CC004D08C80083124F
:101CB0006D088316C90020080D3C031D652E831294
:101CC000132178088316C8004B1420080E3C031D0E
:101CD0006E2E831245088316C8004B1420080F3C53
:101CE000031D7A2E831244088316C80083126008ED
:101CF0008316C90020080F3C0318822E83123E0869
:101D00008316C8002008113C031D8A2E83123D084B
:101D10008316C8002008123C031D902E7E08C800C0
:101D20002008133C031D982E83124F088316C80009
:101D30002008143C031DA02E83125D088316C800E2
:101D40002008153C031DA82E831258088316C800CE
:101D50002008163C031DB52E6A30DA008A11831262
:101D6000D0238A1578088316C8002008173C031D65
:101D7000E62E8312D121780D8316CD00CD0DCD0D29
:101D8000F830CD056B30DA008A118312D0238A1522
:101D900078088316CE00DB014D08DA00DD014E081D
:101DA000DC008A118312E7238A1579088316CF0095
:101DB0007808CE004F0CFA004E0CF900FA0CF90C22
:101DC000FA0CF90C7908A1002108C8002008183C79
:101DD000031DF02E8312542578088316C8004B1477
:101DE0002008193C031DFA2E8312D121780883168E
:101DF000C8004B1420081A3C031D012F4708C800D7
:101E00004B1420081B3C031D082F4608C8004B1428
:101E100020081C3C031D112F831240088316C800A4
:101E20004B1420081D3C031D1A2F83123F088316F4
:101E3000C8004B1420080F3C03183E2F2008173C05
:101E4000031C3E2FFE1B2C2F8312301F292F8316BD
:101E50002C2F08308316CA07200883126207F03E31
:101E60000739633E840000088316C90020088312E6
:101E70006207F03E0739103E8316CA074B18492FF8
:101E80004A08D3004908D4008A118312BC228A155B
:101E900083162008D4004808D5008A1183127127C0
:101EA0008A158316A00A20081D3C0318582FA0018C
:101EB00083128A150A16962883164008F8008312A2
:101EC0008A150A169D288316D101C008031D6E2F9E
:101ED000D10F6D2F0030F800932F652FC008031924
:101EE000902F40084102031C782F40084102D20085
:101EF00041084002031D7C2F400841020318842F33
:101F000040081D3C4107D2005208F800A330780772
:101F100084000008D100C0035108F800932F932FCC
:101F20000030F800932F83120034831651082F3CA1
:101F30000318A12F5108393C031CA12F3030510246
:101F4000D2005108403C0318AD2F5108463C031CF9
:101F5000AD2F413051020A3ED2005208F8008312E0
:101F60000034632778088316CF008312632778082C
:101F70008316D0004F08D10083129527780E831660
:101F8000CE00F030CE055008D10083129527780896
:101F90008316CE074E08F8008312003483165008CB
:101FA00083124A078316D10083124B088316D2008E
:101FB0000318D20A83124B0883165202031CEE2F19
:101FC000031DEA2F510883124A02031CE92F8316CE
:101FD000EE2F8316831200208316DA2F831200342B
:101FE0006F08053C031CFB2F8A118D228A15D6121F
:101FF0008A11DC218A1500348A150A16502A003409
:102000000B138B138B1B01281F308805803088072A
:1020100051108819511420308807D1108819D11413
:1020200020308807511188195115C0308B040034B5
:102030000A12A9260A1606308316D0000A128A153B
:102040008312CE270A168A11DD12DD134F1F2A28AC
:1020500000302B285A308316CE008312D0118316FD
:10206000CE0803199228C001C1010A128A158312F1
:1020700071240A168A113C308316CF008312881807
:102080004728CF194528301C63287E1B63288316F8
:10209000CF08031D4D2883126328C001C10183129C
:1020A00086120A128A1571240A168A1101308316C3
:1020B000D0000A128A158312CE270A168A118316B7
:1020C000CF033E2883128316CF08031D6C2883128A
:1020D000B015831692287028831286164F13831624
:1020E0000130D0000A128A158312CE270A168A11EF
:1020F00000200030511C01308316D00000308312C4
:10210000D01901308316500603198828CE038F2872
:102110008312D0198D28D015902883169228831207
:102120002F288316831286128316CE08031D9C283F
:1021300083124F17B01583164E085A3CF700031050
:10214000770C8312AB0000340730AD000A126A220C
:102150000A1612308316D0000A128A158312CE276F
:102160000A168A1101308316D3000A1283126D22D7
:102170000A1612308316D0000A128A158312CE274F
:102180000A168A1158081D3C031CC828AD102D11D1
:102190008316D3010A1283126D220A1601308316A8
:1021A000D3000A1283127D220A1612308316D00041
:1021B0000A128A158312CE270A168A1158081D3C66
:1021C000031CE4282D102D118316D3010A1283124B
:1021D0006D220A168316D3010A1283127D220A1673
:1021E0000A126A220A16003401308316D3000A123A
:1021F00083126D220A1601308316D3000A1283124D
:102200007D220A160718082987180829AD130929FD
:10221000AD1700340A128A1563270A168A11780846
:102220008316C800433C031DDD2A0A128A15831257
:1022300063270A168A1178088316C900573C031DC4
:10224000332A0A128A158312B1270A168A117808CE
:102250008316CA000A128A158312B1270A168A1138
:1022600078088316CB004A08F03E0318322A103E45
:1022700083127D2B8316CB08031D3F29C201322A0E
:102280000A12F6260A1603178D0183160313440853
:10229000831203178C0083168C130C1583120313FF
:1022A0000B08F7008B138316031755308D00AA30E7
:1022B0008D008C148C185A290C1177088312031383
:1022C0008B04013003178D00831603134308831218
:1022D00003178C0083168C130C15831203130B0841
:1022E000F7008B138316031755308D00AA308D002D
:1022F0008C148C1879290C117708831203138B0422
:102300000A121E270A168316322AD1157830831630
:10231000C200322AD111CB01CA018316322A831698
:102320004B088312C8000A129E210A168316322A0D
:1023300018208316322A0A126A220A168316322AB3
:102340000A128A15F0270A168A118316322A831672
:102350004B088312A9008316322A8316CD014B083D
:10236000CC004D08D7004C08D600D9011830D80051
:102370000A128312B9230A1679088316CF00780847
:10238000CE004F08D3004E08D2000A128312CA248E
:102390000A168316322AA4200A128A15F0270A1672
:1023A0008A118316322A83164B0ECE00F030CE05EA
:1023B000D3014E08D2000A12831224260A1683166D
:1023C000322A0A12A9260A16C31EE8292130E92951
:1023D0000130C300C3168316322AF42082308316DC
:1023E000C200493083120C1AF7298316F22999008A
:1023F0000A300C1EF92999008316322A83164B08DD
:102400008312D200DD178316322A83164B08C43C90
:10241000031D302ACB014B08133C031C272A0A1248
:1024200083126B270A1632308316CE000A128312EB
:10243000CC250A160A126E270A1632308316CE00F1
:102440000A128312CC250A168316CB0A0B2A831292
:102450000B138B138B1B292A2C2A8A010028831625
:10246000322A8316742B4908523C031DDD2A0A12B6
:102470008A158312B1270A168A1178088316CA00B2
:10248000CB014A08F13E0318DC2A0F3E8312912B40
:10249000D3018316DC2A53088316CB00DC2A0020E4
:1024A0008316CB018312511C582A83164B148312B6
:1024B000D11C5D2A8316CB148312511D622A831608
:1024C0004B158312D11D672A8316CB158312081C66
:1024D0006C2A83164B168312881C712A8316CB161E
:1024E0008312081E762A83164B178312891C7B2AB7
:1024F0008316CB1783128316DC2A8316CB01831233
:10250000861C852A83164B148312861E8A2A8316FC
:10251000CB148312D61E8F2A83164B158312D61F17
:10252000942A8316CB1583128316DC2A831622087D
:10253000CB00DC2A34088316CB00DC2A8316CB01BF
:1025400083122D1CA62A83164B148312AD1CAB2AB2
:102550008316CB148312061EB02A83164B158312E2
:102560008316DC2A450CFA00440CF900FA0CF90C2D
:10257000FA0CF90CFA0CF90C79088316CB00DC2A5A
:1025800007308316CB00DC2A2E088316CB00DC2A0A
:102590002F088316CB00DC2A02308316CB00DC2AFE
:1025A00070308316CB00DC2A8316CB01DC2A023084
:1025B0008316CB00DC2A8316522B4808413C031DAE
:1025C000512B0A128A15831263270A168A1178087A
:1025D0008316C9004908573C031D332B0A128A157C
:1025E0008312B1270A168A1178088316CA000A12C4
:1025F0008A158312B1270A168A1178088316CB0030
:102600004808413C031D322B4A08831203178D00F2
:10261000831603134B08831203178C0083168C1345
:102620000C15831203130B08F7008B138316031783
:1026300055308D00AA308D008C148C181D2B0C1178
:102640007708831203138B0483164A088312031737
:102650008D0083168C130C1483120C08831603133D
:10266000CB00322B522B4908523C031D512B0A122E
:102670008A158312B1270A168A1178088316CA00B0
:102680004808413C031D502B4A08831203178D0054
:1026900083168C130C1483120C0883160313CB00BF
:1026A000522B772B480883120C1A582B8316532B66
:1026B00099008316490883120C1A602B83165B2B32
:1026C000990083164A08D6000A128312AD220A1610
:1026D00083164B08D6000A128312AD220A160A305E
:1026E0000C1E702B990083160130F800792B0030F6
:1026F000F80083128A150A16A3280A148A140A11EC
:1027000082073A29402985298A298F2998299B29D6
:10271000A029A729AD29CB29D329E129ED29FE2913
:10272000052A0A148A140A118207482A4B2A4F2ABA
:102730007D2A962A9A2A9E2AB22AC02AC42AC82A00
:10274000CC2AD02AD42AD72ACF01BB013011BC0110
:10275000C31EAC2B2130AD2B0130C3000A128A15E9
:1027600071240A168A110034CD015D17DD11DD12C6
:10277000DD138A110A16C32B7E1FD82B1030CC0014
:10278000CF144F15B42B301BD82BC3161820861628
:102790002B088316D0000A128A158312CE270A1638
:1027A0008A1186123017FE137E130130F800DA2BDF
:1027B0000030F8008A150A16CF28831648088312BD
:1027C0004A078316C90083124B088316CA000318F0
:1027D000CA0A83124B0883164A02031C012C031DEC
:1027E000F92B490883124A02031CF82B8316012C8B
:1027F00083160A128A15831200200A168A1183167C
:10280000E92B83128A110A16192CCB01CA01CF1B9E
:10281000242CC31B242CC3134316CB08031D232CC9
:102820004A08773C031C232C01308316C80083120E
:10283000DD2BC31F1C2C232C8614DD1F222CDD1E38
:10284000222C232C0D2C86108A150A1621291820DB
:102850000A1255220A16CB01CA013730AD00D01C2E
:10286000352C4730AD00D010562C5730AD000A1231
:102870008A1513210A168A117908FA007A083A0291
:10288000031C542C031D482C78083902031C542CBB
:102890000A128A1513210A168A117808B9027908D2
:1028A000031C790FBA02562CBA01B9016730AD008A
:1028B00000344D08013C0318612CCF140130F8009E
:1028C000802C301D682C0730AD000130F800802CC2
:1028D0004F08F739403C0318752C4F08F739433C33
:1028E000031C752C0030F800802C4F08F7390319B1
:1028F0007E2C0730AD000130F800802C0030F8004D
:102900000034F701F801F901FA018316E001E10151
:10291000E201E3015F085E045D045C040319C02C5E
:102920002030E4000310D80DD90DDA0DDB0DE00DD9
:10293000E10DE20DE30D5F086302031DA92C5E08A3
:102940006202031DA92C5D086102031DA92C5C080D
:102950006002031CBA2C5C08E0025D08031C5D0FDA
:10296000E1025E08031C5E0FE2025F08031C5F0FBA
:10297000E3020314F70DF80DF90DFA0DE40B922C98
:102980000000E030840083128A110A16402D83165D
:102990005108C7005008C600831250126E08023C4E
:1029A0000318F32C4C087039403C031DF32C6D3098
:1029B0008316DA000A128312D0230A1678088316C7
:1029C000D8005108DB005008DA00DD015808DC00AF
:1029D0000A128312E7230A1679088316D1007808B1
:1029E000D000831250167E1C662D83165208DA0022
:1029F0000A128312D0230A1678088316D700D70844
:102A0000031D042D0130D700D601D5015108D40093
:102A10005008D30003105508D6005408D5005308B9
:102A2000D400D301D40DD50DD60D5608DB005508C2
:102A3000DA005408D9005308D800DF01DE01DD01B7
:102A40006430DC000A128A158312E7200A168A1104
:102A50007A088316D6007908D5007808D40077085C
:102A6000D3005608DB005508DA005408D900530893
:102A7000D800DF01DE01DD015708DC008312812C64
:102A80007A088316D6007908D5007808D40077082C
:102A9000D3005408D3005508D4005608D500D601F9
:102AA0000310D60CD50CD40CD30CD608031D5C2D0A
:102AB0005508003C0318612DD601D501FF30D40024
:102AC000D3005408D1005308D00083128316500855
:102AD000F8005108F9008312003483164E08D10023
:102AE0004D08D0004F08D2008312C72479088316FE
:102AF000D1007808D0005108D3005008D2000A1243
:102B0000831224260A1600347C080A126C200A1646
:102B10008316C800CE014808CD005830CF000A12F5
:102B2000831277240A1679088316CA007808C90028
:102B30004A08CF004908CE000A12831246250A1619
:102B4000FE1AC52D01307C07F7000310F70D77083A
:102B50008316C900490A0A12831272200A16FA0063
:102B6000831649080A12831272200A16F8007A089E
:102B70004B02031CC52D031DC12D78084A02031CFE
:102B8000C52DFC08031DC52DFC0A8A150A16422A0C
:102B90008316CD01CC0183125908093C031CE42D96
:102BA00059080A3C8316CF00D7014F08D600D90137
:102BB0002D30D8000A128312B9230A167908831619
:102BC000CD007808CC008312403083164C07CE002D
:102BD0004D08CF000B3003180C30CF0783122D1D8A
:102BE000F42DFA010030F72D0230FA001C30831664
:102BF0004E07CA004F08CB007A0803187A0FCB079C
:102C00004B08D4004A08D3005B30D5000A12831267
:102C100022240A1679088316CB007808CA004808CF
:102C2000CA0749080318490FCB074A08F8004B08A0
:102C3000F90083120034A420F4208A150A16E92A28
:102C40004F08F739433903192F2E1C308316CB0058
:102C50002030CA004930CC004D10462E831203109C
:102C60007D0D8316CE004E0A0A12831260200A16CA
:102C7000FA0083164E080A12831260200A16831681
:102C8000CA007A08CB005930CC004D144B08D10053
:102C90004A08D0004C08D2008312C7247908831652
:102CA000C9007808C8004D1C652E4908DB0048089B
:102CB000DA00DD01AA30DC000A128312E7230A16CB
:102CC00079088316C9007808C8004908D300480865
:102CD000D2000A12831224260A1600344C0807393F
:102CE0008316C80083124C1E7F2E8316C808031952
:102CF0007E2E75087602031C7E2EC8038312ED0813
:102D0000031DA22E831648080A12831245200A16B4
:102D10008316C900A21B972E2208003C0318972E89
:102D2000220CF700F70C3F30F7057708982E00309B
:102D300049078312570203199F2E0318A22E013050
:102D4000F800A42E0030F8008A150A16202C7E1CEC
:102D5000C82E63308316DA000A128312D0230A16B3
:102D600078088316C800C808031DBC2E83124C08BF
:102D700007398316C800BD2EC8034808073C03184E
:102D8000C32E0330C8004808F800CC2ECC2E831286
:102D90000330F8008316CC2E831200346B085702E0
:102DA0000318D42E5708D52E6B088316CB00C80104
:102DB0000830D30083126C088316D4000A128312E1
:102DC000BC220A1609308316D3004B08D4000A121D
:102DD0008312BC220A16760875020318F12ECC0A5B
:102DE000F50A750876020318272FCC03F50362084D
:102DF0008316CD00CD08031DFF2E0830CD00CD0376
:102E00004D08CC00CC08031D072F0830CC00CC03A4
:102E100063304C0784000008CF0063304D07840006
:102E20000008D0004F0850020318262F50084F0208
:102E3000C800F4017408073C031C262F6330740794
:102E40008400480800028000F40A1A2F83126C08DC
:102E500083164B020318712F4B0883126C028316E2
:102E6000C800CA01F4017408073C031C442F6330F6
:102E7000740784000008CF004A084F020318422F4D
:102E80004F08CA00F40A332F4B084A0203184A2F8E
:102E9000C801532F83126C0883164A020318532F5C
:102EA0004B084A02C800F4017408073C031C672F52
:102EB000633074078400000848020318652F6330EC
:102EC00074078400480800028000F40A542F83121B
:102ED0006B08831648020318712F48088312EB020F
:102EE00083164B0883126C0203189B2F6C08831601
:102EF0004B02C800F4017408073C031C912F633097
:102F0000740784000008D1004808FF3C51020318F0
:102F10008F2F633074078400480800078000F40A8C
:102F20007B2F4808FF3C83126B0203189B2F8316EC
:102F300048088312EB070A308316D3004808D400F0
:102F40000A128312BC220A1683164B088312EC0065
:102F5000003483164F08C23C0318B02FC330CF0093
:102F6000DB014F08DA00DD01A430DC000A12831215
:102F7000E7230A1678088316CF004E08DB004D08B9
:102F8000DA00DD014F08DC000A128312E7230A167B
:102F900079080034031DD02F4A08373C0318D32F7B
:102FA000501BD32F50174B08033C0318E32FFF3A55
:102FB000031DDE2F4A08AF3C0318E32FD01BE32F7D
:102FC000D0179B23CD014B08043C0318F92FFF3A7F
:102FD000031DEE2F4A08273C0318F92FCB01CA0125
:102FE0000A128A15BA270A168A11CC124C08073918
:102FF000F5008A150A16A62DFF3FFF3FFF3FFF3F52
:1030000084011F30830520308316990026309800F4
:103010009030831298001830831693002830831262
:1030200094008316941714131F149F141F159F11D7
:1030300007309C000A128A118312472A0A168A1541
:10304000B201B101CC01BA01B901CF01DE01DF014A
:10305000E001EF01D0010A128A1155220A168A15E1
:10306000FE01F5017508063C031C3D280A128A1171
:10307000F6220A168A15F50A322801308316C8008E
:103080000A128A118312B1250A168A150A128A11A8
:10309000172E0A168A150530C5001430C400C70162
:1030A000C6011C308316D3002030D2000A128A11C8
:1030B000831224260A168A150A128A11A9260A16CC
:1030C0008A15C31E6528213066280130C300C31647
:1030D0000A128A1153270A168A158316C001C101E4
:1030E0008C168312981718160A1200200A160A1254
:1030F000C92B0A160A1271240A160A12B02C0A16D3
:10310000F01C9B28F00A8316C2080319992842086C
:10311000793C031D92280A128A1183128D220A1605
:103120008A158316C2030A128312BD2D0A169B2824
:1031300083168312D1110A125C2F0A16F80803199C
:10314000B0288A110A298A15F8080319B0288316AD
:103150004208773C031CAE287830C20083127428E2
:103160007008F03C0318BA28F0010A128A1153279C
:103170000A168A15D11DBD287428DD1FCD285D1FB4
:10318000CD28DD138A11A4238A154C082F3C03187F
:10319000CA28FD28B01DCD28FD288A11BC2B8A1510
:1031A000F8080319D428FD284C0870390319EE28B3
:1031B000103A03192B29303A03198229103A0319BE
:1031C000022A703A0319DB2B103A0319DB2B303A31
:1031D0000319192D103A03193D2E3D2ECB08031D5E
:1031E000F5284A080B3C03183D2E5708093C0318E4
:1031F000FA284F14FD283D2ECF145D1B06293019E7
:1032000006294F08F739031D0629CF145D13D01E78
:103210000D290730CC054C160F291030CC000A12AE
:103220008A118D220A168A15AD1F1C290A128A11CD
:103230006A220A168A151F290A12F0270A168A110D
:10324000052C8A15C316CB01CA01D01E2A290730C6
:10325000DD052B29DD010730AD00DD1F3229DD1E24
:103260003229AB29D61E42294B08003C03184229BB
:10327000FF3A031D3F294A08683C031842290A12F5
:10328000F0270A1601308316C8000A128A11831229
:10329000B1250A168A155708133C03185129CB018A
:1032A000CA014B08153C031C5C29031D5B294A0815
:1032B000173C031C5C293D2E5708133C0318612959
:1032C0003D2ED61E64293D2ED01E6A290730CC051E
:1032D000CC166C292030CC00B0197629301B762909
:1032E0008A1127248A158A1127248A15D1197B2946
:1032F0000A12F0270A160A128A11D5210A168A150F
:10330000CB01CA01CC199329D01E93296A308316A8
:10331000DA000A128A118312D0230A168A15F808D5
:10332000031D9329AB29DD1AA829DD118316C901D4
:103330000A128A1183127C250A168A152A30CB00BC
:103340003030CA000A128A118D220A168A153D2EC3
:10335000DD1F3D2E301350127E12FE12DC30DA00DB
:10336000DF018316C2018312D111CD01B001CC015E
:103370000730AD008316C9010A128A1183127C2519
:103380000A168A150A128A118D220A168A15C31680
:103390008A11A4238A157E12FE12DC30DA00DD1EAB
:1033A000D229DD15CD0A501ED7290430CD0030308A
:1033B000CC040330FC00FC080319E6298A112724F9
:1033C0008A15B01DE429CD0AFC03DB29DD12DD13CB
:1033D000CB01CA01FC01FD01D1138A1159248A15C0
:1033E000F808031DF7295D1BF729B01DFB295D1B9C
:1033F000FA29CF14FD28CB01CA011C30F20020307D
:10340000F1008614FE13AD1F132A7E1A132A1C30F6
:103410008316D3002030D2000A128A118312242688
:103420000A168A15342A03107D0D8316C800480A2F
:103430000A128A11831260200A168A15FA0083166E
:1034400048080A128A11831260200A168A15831608
:10345000C9007A08CA00CE004908CD005930CF0013
:103460008A1183126D258A154C08F8398316C80015
:103470007E1E3C2A01303D2A003048078312CC00D2
:103480008A11842D8A15AD1F752A23305A075702D9
:103490000319752A031C752A7E1A752A7E162D1D9E
:1034A000542AFA010030572A0230FA001C30D03E6C
:1034B0008316C8007A08C900023003180330C90710
:1034C0004908D4004808D3005B30D5000A128A119D
:1034D000831222240A168A1578084A07DB004B0853
:1034E000DC0079080318790FDC077E1A842A04307F
:1034F0008316C9005C30C8008A118312C8258A155A
:103500007908DC007808DB005C084B02031CB82A51
:10351000031D8E2A5B084A02031CB82AAD1F962A97
:103520000A128A118D220A168A15FE125A305B077A
:10353000F8005C08FA000318FA0A7A084B02031C28
:10354000B72A031DA72A78084A02031CB72AD61EE9
:10355000AF2A0A12F0270A16DD12DD13B72ADD1F83
:10356000B72ADD1EB72A8A1118208A153D2EF92A9E
:103570004B08033C0318F92AFF3A031DC32A4A08E3
:10358000373C0318F92A4B08043C031CF92A031D95
:10359000CD2A4A08973C031CF92AD61AD42A0A12C3
:1035A0008A116A220A168A154B08033C0318F92A65
:1035B000FF3A031DDF2A4A085B3C0318F92AAD1BBA
:1035C000F92A2D18E52AAD1CF92AFE1AF92A8A11C2
:1035D0001B2E8A155708DA005A08963C0318F22A5F
:1035E0009630DA00831622088312D9008A11202629
:1035F0008A158316C9010A128A1183127C250A16BC
:103600008A158A1159248A15F8080319082BFD28F0
:103610007D08023C031C332B01307D07F7000310AB
:10362000F70D77088316C900490A0A128A11831216
:1036300054200A168A15FA00831649080A128A11BC
:10364000831254200A168A15F8007A084B02031CCC
:10365000332B031D2F2B78084A02031C332BFD0A42
:103660008A1120268A1507308316C9000830C80041
:103670008A118312C8258A157908FA004B087A0244
:10368000031C4A2B031D482B4A087802031C4A2BB3
:10369000E0013D2E8316A21B542B2208003C031888
:1036A000542B0310220C552B00303C3E8312570242
:1036B00003195C2B0318792B6008043C0318782B42
:1036C0006E308316DA000A128A118312D0230A168A
:1036D0008A15F80803196E2B00306F2B0130023960
:1036E0000319772B4D08013C031C772BB829FC28C4
:1036F000882B5708FD3C031C7F2BE001882B6008BA
:10370000383C0318882B4F153015B430DF00FD28E6
:103710000B308316C9004030C8008A118312C825B7
:103720008A157908FA004B087A02031C9E2B031DA8
:103730009D2B4A087802031C9E2B3D2E01308316D8
:10374000C9000A128A1183127C250A168A150C30C8
:103750008316C900A830C8008A118312C8258A15AB
:103760007908FA004B087A02031CBD2B031DBC2B01
:103770004A087802031CBD2B3D2ECB01CA01D01E86
:10378000C82B5D080739CC055030CC04D012CA2BA9
:103790005330CC007E12F5017508073C031CD72B73
:1037A00063307507840057088000F50ACC2BFF3082
:1037B000DA00EC013D2E8316C9010A128A11831228
:1037C0007C250A168A154C080739F7000310F70DF7
:1037D00077088316C900490A0A128A1183127A20CF
:1037E0000A168A15FA00831649080A128A118312EA
:1037F0007A200A168A158316CA007A08CB0083122B
:103800004C080739483E8316CC004B08CE004A08C6
:10381000CD004C08CF008A1183126D258A15DD1F5B
:10382000172CDD1E172C8A1118208A153D2E8A119F
:1038300059248A15F80803191E2CFD288A116E2EAA
:103840008A15F80803194C2CFE1B2A2C6E080F3C15
:1038500003182F2CCF144F157E173013CD28600876
:10386000043C03184B2C4D08013C031C4A2C6E30C1
:103870008316DA000A128A118312D0230A168A15D7
:10388000F8080319452C0030462C01300239031981
:103890004A2CB829FC285A2C5708FD3C031C522CF2
:1038A000E0015A2C6008383C03185A2C4F154F166B
:1038B0003014FD284C080739F5005D080739F6007B
:1038C000D01C742C1730AD008A11A7268A157808F1
:1038D0007502031D6E2C4C1A6E2CE52C8A11A7263E
:1038E0008A157808F6008F2CCC1D8F2C6A30831631
:1038F000DA000A128A118312D0230A168A15780870
:10390000F600F608031D8A2CF508031D892CD01635
:10391000FD288B2CF6037608750203188F2CFE1FEA
:10392000922C3D2E4C1EC12CEC08031DA62C5708D2
:10393000EC000B308316D30083126C088316D4007E
:103940000A128A118312BC220A168A157608750299
:103950000319BF2C0A1254250A167908FA004B08DD
:103960007A02031CBB2C031DB92C78084A020318E9
:10397000BB2C3D2EBE2C8A11CE268A15C02CC92CFC
:10398000C72C76087502031DC62C3D2EC92CCB0111
:10399000CA014C1676087502031DE22C0A12542542
:1039A0000A167908FA007A084B02031CE22C031D60
:1039B000DD2C4A0878020318E22C8A11CE268A15DB
:1039C0004C12EC015D12DD133D2ECB01CA01FC014E
:1039D000FD01D1137E168F30CC056030CC0451121E
:1039E0000B138B138B1BF12CF201F101C0308B04F4
:1039F00003107D0D8316C800480A0A128A1183122B
:103A000098200A168A15FA00831648080A128A11A5
:103A1000831298200A168A158316C9007A08CA00EC
:103A2000CE004908CD006130CF008A1183126D2588
:103A30008A158316C9010A128A1183127C250A1677
:103A40008A155D080739F6008A11A7268A157808B5
:103A50000A128A11A2200A168A158316C900CE01FD
:103A60004908CD006030CF000A128A1183127724F2
:103A70000A168A1579088316CB007808CA004B0805
:103A8000CF004A08CE000A128A11831246250A1670
:103A90008A157D08013C031CAF2D01307D07F7001E
:103AA0000310F70D77088316C900490A0A128A1114
:103AB00083128E200A168A15FA00831649080A1204
:103AC0008A1183128E200A168A158316CA007A0874
:103AD000CB006230D6000A128312CA200A16780878
:103AE0008316CC004B08CE004A08CD004C08CF000E
:103AF0008A118312A9278A157908FA007A084B02DD
:103B0000031CAF2D031D882D78084A02031CAF2D1E
:103B1000FD0A7D08023C031D8E2D7E1203107D0DD3
:103B20008316C800480A0A128A11831298200A16BE
:103B30008A15FA00831648080A128A1183129820FF
:103B40000A168A158316C9007A08CA00CE004908E9
:103B5000CD006130CF008A1183126D258A15881837
:103B6000B52DCF19B52D301CB72D5116B82D5112CA
:103B700062308316D6000A128312CA200A16780809
:103B80008316C8000430CE00B030CD004808CF0006
:103B90008A118312A9278A157908FA007A084B023C
:103BA000031C112E031DD82D78084A02031C112E68
:103BB000D11B112ED1172730AD008A1118208A157C
:103BC0000A128A1155220A168A15CB01CA0137300A
:103BD000AD00D01CEF2D4730AD00D0100C2E57306B
:103BE000AD000A1213210A167908FA007A083A027F
:103BF000031C0A2E031D002E78083902031C0A2E0E
:103C00000A1213210A167808B9027908031C790FE1
:103C1000BA020C2EBA01B9016730AD007730AD00A1
:103C2000CD0162308316D6000A128312CA200A160A
:103C300078088316C8000530CE002830CD0048082B
:103C4000CF008A118312A9278A157908FA007A0809
:103C50004B02031C3C2E031D312E78084A02031C24
:103C60003C2ECB01CA010A12F0270A168F30CC0570
:103C70004C174C080739F5003D2E742863000A12D2
:103C80008A11831273270A168A154108BF0040085B
:103C9000BE00FE308316D60083123F088316D8007C
:103CA00083123E088316D7000A128A11831247270F
:103CB0000A168A158A11172D8A154D08033C031818
:103CC0006D2EFF3A031D682E4C08373C03186D2EED
:103CD00057081D3C031C6D2E992A8A11A82D8A15A0
:103CE0007C2E50140A308316D7000A128A118312D0
:103CF000F7220A168A1591299F286300FF3FFF3F8C
:103D00008A150A16802E8A0118308A0000280000C1
:103D1000031E832E90309800831618159816403095
:103D2000990083120330FA00213090000C14EC2625
:103D3000EA3A031DAF2EFA01B62EEC26F900E33A5B
:103D40000319B82E7908EA3A0319B62E7908ED3A24
:103D5000031D9D2EE430E7260330FA00EC26900187
:103D600098018316980183128C01832EEB30E52E87
:103D7000EC26F600EC26F500EC26F100FB00EC2624
:103D8000F300F20121308312031376020319D12EBE
:103D900075080339FC00FD000310FC0D20307C0782
:103DA000D22E20308400EC268000F207840AFB0B20
:103DB000D32E72087306E830031DE52EE730E726A0
:103DC000FE260038E4300319E530E7269D2E640016
:103DD0000C1EE72E9900080064007A080319FA2ED9
:103DE0000C1CFA2E1010FA0BF62E00340C100B30AF
:103DF0008F0010148C1EEC2E1A0808002130760259
:103E00000319502F831603178C1783120313750899
:103E1000FC3903178D000313760803178F00203039
:103E2000840003137D080319282F831603170C142D
:103E30000000000083120E088000840A0C08800035
:103E4000840A8D0A0313FD03F503F10AF10A112F09
:103E50007108FC00203E84000310FC0C7608031758
:103E60008F000313750803178D0003137C080317D5
:103E70008D0703198F0A03170D0803390319502FF3
:103E800083160C140000000083120E088000840AC0
:103E90000C088000840A8D0A0313F10AF10A3B2FF3
:103EA0007508F7007608F800FB010230F40071088D
:103EB0007B02031801347B08203E84002130780205
:103EC0000317831603196E2F8C1783011E30780297
:103ED0008030031977020318B62F702F8C138301DB
:103EE000770803178D0003137808031D852F04300E
:103EF00077020318852F031783168C1F822F8312D6
:103F000084308D0783011E30862F780803178F00B9
:103F100000088E00840A00088C0083160C155530AA
:103F20008D00AA308D008C140000000083018316E0
:103F300003178C1BBE2F8312031364000D1E9D2FCD
:103F40000D12831603170C110C14000000008312CD
:103F5000840300080E06031DB22F840A00080C0615
:103F60000319B62F8301F40B572F00348312031368
:103F70000230FB07F70A0319F80A552F83120313BF
:103F80000D12831603170C11831203170D08033942
:103F9000033C031DB62F03308D028312031304303C
:103FA000FC00073084020000831603170C14000085
:103FB000000000000000000000000008831203174A
:103FC0000E06031DE82F840A00080C060319EF2FC4
:103FD00083120313FC30F7050630FB02B22F831265
:103FE00003178D0A840A83120313FC0BD32FB62FF9
:103FF000FF3FFF3FFF3FFF3FFF3FFF3FFF3FFF3FD1
:08400000FF3FFF3FFF3FFF3FC0
:02400E00323F3F
:10420000EF00CE0004003200300036003000000025
:1042100000000000000030003100310030003200AA
:1042200030003000370042006900780062007900F9
:1042300020004D006F00640065006C00200031001C
:10424000310035000000FF00FF00FF00FF00FF000D
:10425000FF00FF00FF00FF00FF00FF00FF00FF0066
:10426000460046004600460046004600460046001E
:10427000640064006400640064006400640064001E
:10428000200020002000200020002000200020002E
:104290004600640046005500640050005000500085
:1042A000500050005000500050005500550055007F
:1042B0005500550055005500550011001100110022
:1042C00011001100110011001100500055005000A4
:1042D00055004B00FF00FF00FF00FF00FF00FF0044
:1042E000FF00FF00FF00FF00FF00FF00FF00FF00D6
:1042F000FF00FF00FF00FF00FF00FF00FF00FF00C6
:10430000FF00FF00FF00FF00FF00FF00FF00FF00B5
:10431000FF00FF00FF00FF00FF00FF00FF00FF00A5
:10432000FF00FF00FF00FF00FF00FF00FF00FF0095
:10433000FF00FF00FF00FF00FF00FF00FF00FF0085
:10434000FF00FF00FF00FF00FF00FF00FF00FF0075
:10435000FF00FF00FF00FF00FF00FF00FF00FF0065
:10436000FF00FF00FF00FF00FF00FF00FF00FF0055
:10437000FF00FF00FF00FF00FF00FF00FF00FF0045
:10438000FF00FF00FF00FF00FF00FF00FF00FF0035
:10439000FF00FF00FF00FF00FF00FF00FF00FF0025
:1043A000FF00FF00FF00FF00FF00FF00FF00FF0015
:1043B000FF00FF00FF00FF00FF00FF00FF00FF0005
:1043C000FF00FF00FF00FF00FF00FF00FF00FF00F5
:1043D000FF00FF00FF00FF00FF00FF00FF00FF00E5
:1043E000FF00FF00FF00FF00FF00FF00FF00FF00D5
:1043F000FF00FF00FF00FF00FF00FF00FF00FF00C5
:00000001FF
