:020000040000FA
:1000000000008A150A16882EFF00030E8301A10046
:100010000A08A0008A010408A2007708A300780853
:10002000A4007908A5007A08A6007B08A70083131E
:1000300083120B1E1D288B183C288C308400801ED8
:1000400023288C1A3F288C308400801C29288C1887
:100050004228220884002308F7002408F800250815
:10006000F9002608FA002708FB0020088A00210E64
:100070008300FF0E7F0E09008A110A1247298A1198
:100080000A12AE288A110A128B290A108A100A1144
:10009000820728342D34323437343C3441344634EA
:1000A0004B34503455345A340A108A100A118207DE
:1000B0000034003438340434083407348C340A34BF
:1000C0000A108A100A118207A034053440340B3418
:1000D00000340F34E03410340A108A100A118207F9
:1000E000643470340A108A100A1182070034003414
:1000F000083407340A108A100A11820720341C348D
:1001000080341634C03412341234103410340E34A7
:1001100080340C3440340B343A340A340A108A10D8
:100120000A1182070034003468340134D0340234B8
:100130000A108A100A11820710340E3480340C34ED
:1001400010340E340A108A100A1182073C344B34E2
:100150005A346934783487349634A5348C1ECE28CA
:100160001A088316E5006508033C031DBA28C1017F
:10017000C001CC284108C10AA33E84006508800064
:10018000C00A41081C3C0318CC28C10140081C3C93
:100190000318CC28C101C0018312AE288A110A12AB
:1001A0002928D21CD8285D13DD16DD15B0110B29C6
:1001B000521CE028C316D0125D17DD12DD110B2989
:1001C0005219E428D21D0B29D21AED28550BE92823
:1001D000ED285508043C0318FC28521DF5285D083D
:1001E0000739063C031CF528DD0AD21DFC285D08F2
:1001F00007390319FC28DD03550BFF28D50A5508DC
:10020000043C031805290230D5004C085D06073967
:1002100003190B295D16D21A0F29521E1029D2017B
:100220008A110A124429521E18295212D2162C2958
:10023000043088005210881D521424308800D210D7
:10024000881DD214443088005211881D5215643024
:100250008800D211881DD215D11D31295208D3042E
:10026000442953085202031D3729D40A3B29D401DB
:10027000D5015208D300D21E3F29FC30D4005408C7
:10028000FC3903194429D1288A110A124829132953
:10029000B201B101CC177108720403195329710816
:1002A0000319F203F1030230B006861C5A29C60A6C
:1002B0000319C70A91018C10B50AB51E672982304F
:1002C000B50001080B19FF30B40081010B11861134
:1002D0000030B01801300139031986292908AA070E
:1002E0002A08633C03187D296430AA02D6158716B4
:1002F000603088000815D1128529D11E8529D611B4
:100300008712603088000815D1128729D1168B100A
:100310008A110A122928B10F8F29320FB200CC1F7F
:100320009529CC133708B8009A29B808031DB80BD3
:100330009A2986158C108A110A1229280130F40096
:100340000B138B138B1BA1291F308805F40803198D
:10035000B6298716480874050319AF2987120711B3
:100360000715203088070310F40DA629C0308B0430
:1003700000340730AD008501860187010430890013
:10038000C8019E21C901BB01BC01D501D401CB012B
:10039000CA01DD01D3015308D200D101D701B00158
:1003A000DC30DA008A110A12132A8611B301B8016F
:1003B000B701B501B40100340B138B138B1BDD297E
:1003C0001F30880501308316D400D4080319FB2997
:1003D000831287125608831654050319F2298312D3
:1003E000871683168312081108152030880703101A
:1003F0008316D40DE529C03083128B040034BF303E
:1004000083168100831281010B113F308316850012
:10041000D1308600803087001B3088000914891491
:1004200009118312B929D52174309500C630960080
:100430000B309700313090008F018E010930831608
:100440009F00813083129F000030F8000438920032
:1004500042308316920083120B1683168C14C03020
:1004600083128B04D130831686008312D601DC21DF
:100470008A110A12482A1A088316A3008312181236
:1004800018168316A30183128A110A12492AFF291A
:100490003B2ADC30DA008316C201A0018312D1119D
:1004A0007E10CD018A150A164328E101E201EB0115
:1004B000ED01EE01F030FE058316C8014808073C47
:1004C000031C682A6330480784008001C80A5E2A3A
:1004D00083120034D616DC2100348316D3080319A6
:1004E0007A2A8312AD18762A83167A2A6A2207148A
:1004F0007C2A83168312071000348316D30803194D
:100500008A2A83122D18862A83168A2A6A22871439
:100510008C2A8316831287100034AD138316D301FF
:1005200083126D228316D30183127D2200340F3093
:100530008316D8055808093C0318A22A57305807D3
:10054000D900A52A30305807D900590883120C1A4F
:10055000AB2A8316A62A990000348316560ED700BC
:100560000F30D7055708D8008312972283165608F4
:10057000D800831297220034D119D42A44300C1E9B
:10058000BF2A990057300C1EC32A990083165308BE
:10059000D6008312AD2283165408D6008312AD22F2
:1005A0000A300C1ED12A9900003494138C11831642
:1005B0005508831293000230941BE52A8C1DDE2A15
:1005C00000308316111B01308312F80000348316AB
:1005D00091159119E92A77189112771C9116111625
:1005E000111AF02A83121308F80000342C0DF700BA
:1005F000F70DF70DF830F7051F08C73977049F008E
:100600005330F700F70B022BAC08031D072B2C0B04
:10061000102B8618102B1F151F190C2B1E08D70026
:100620002C08023C031D3E2B1F151F19152B1E08FD
:10063000D8005808143C0318292BD61A212BEF0A8E
:10064000262B6F08063C031C262BEF01AD1B292B24
:10065000EF0A6F08063C03183E2B8D226A224F17C3
:100660004F14CF144F151C308316D3008312580833
:100670008316D4008312BC220C30EF002C08033CFC
:10068000031D472B1F151F19432B1E08AE002C08F6
:10069000043C031D502B1F151F194C2B1E08AF00C7
:1006A0002C08053C031DB22B83162208D30011141D
:1006B0001118582B9A30D5008312D5220130831699
:1006C000D5008312D522831611151119652B11142B
:1006D0001118682B9B30D5008312D5220130F7000A
:1006E000E72278088316D40011151119752B5408C8
:1006F000F800781F572B111411187C2B9A30D50055
:100700008312D5228316D5018312D52283161115A3
:100710001119882B111411188B2B9B30D5008312C3
:10072000D5220130F700E72278088316A2001115C0
:100730001119982B01305307803AF7002208803AAC
:1007400077020318A52BA20AB12B01305302803A7D
:10075000F7002208803A77020319B12B031CB12B52
:10076000A2038312AC0A2C08053C0318B82BAC0179
:10077000003410308316DA00F701FA01D70CD60CDA
:10078000031CC82B5808F7070318FA0A5908FA0778
:10079000FA0CF70CF90CF80CDA0BBE2B83120034B0
:1007A0005119D62B30308316DA07831283165A0874
:1007B000831203178D0083168C130C1483120C08FC
:1007C00083160313DB005B08F800831200348316E2
:1007D000E101DF01DE018030E000E2016208073C58
:1007E000031C1C2C5C086005F700FA0177087A04EA
:1007F0000319002C5A08DE075B0803185B0FDF079C
:100800005A080139F700FA0177087A0403190C2C09
:100810006008E1076008E1070310DB0CDA0C6108EF
:10082000803C0318182C8030E102DA0A0319DB0A35
:100830000310E00CE20AEE2B5E08F8005F08F900F6
:10084000831200348316D9017E1C702C5508DA00FF
:100850008312D02378088316D8005408073C031865
:10086000362C0310D40CD30CD90A2D2C5408DB00E1
:100870005308DA00DD015808DC008312E723790809
:100880008316D7007808D6005708053C0318542C67
:10089000FF3A031D4F2C56083D3C0318542C0310FF
:1008A000D70CD60CD90A442C5708DB005608DA00BE
:1008B000DD01A430DC008312E72379088316D7001A
:1008C0007808D600D90803196A2C0310D60DD70D65
:1008D000D903622C5608F8005708F900752C752CBE
:1008E0005308F8005408F900752C8312003483165D
:1008F0004E08D7004D08D600D9011830D800831211
:10090000B92379088316CE007808CD007E1C9B2C75
:100910004E08D4004D08D3004F08D500831222247E
:1009200079088316D1007808D0005008F8005108E3
:10093000F900A02CA02C4D08F8004E08F900A02CBE
:1009400083120034F801F901F701FA018316570800
:10095000031DAD2C56080319C72C1030D800031006
:10096000D40DD50DF70DFA0D57087A02031DBA2CD8
:1009700056087702031CC32C5608F702031CFA031F
:100980005708FA020314F80DF90DD80BAF2C00002C
:1009900083120034881CEC2C83165308053C031C7E
:1009A000D42C0630D300D20183124C0870392F3C6E
:1009B0000318EC2C8316530CFA00520CF900FA0CB5
:1009C000F90CFA0CF90C1F30FA057908D2077A08ED
:1009D00003187A0FD3078312081E042D83165208BA
:1009E00053040319032D530CFA00520CF900FA0CAE
:1009F000F90CFA0CF90C1F30FA057908D2077A08BD
:100A000003187A0FD3078312501E1D2D6C308316E6
:100A1000DA008312D02378088316D4005308DB0051
:100A20005208DA00DD015408DC008312E72379085C
:100A30008316D3007808D200831283165308D5009A
:100A40005208D400D7011830D6008312A2247908A6
:100A50008316D3007808D2005308003C0318332DC6
:100A6000D301FF30D200520883123302031D3D2D03
:100A70008316D3080319442D831283165208831258
:100A8000B300FF30BC0083168312003483164F0876
:100A9000DB004E08DA00DD012630DC008312E7239C
:100AA00079088316D1007808D0005108DB0050087F
:100AB000DA00DD0183122E088316DC008312E7239F
:100AC00079088316D1007808D0004F08DB004E0863
:100AD000DA00DD015930DC008312E7237808831641
:100AE000D00779080318790FD1075108D3005008AF
:100AF000D2008312CA2400344C087039303C031CE5
:100B0000862D8316C9080319A52D83124C080739B1
:100B1000A2208316CB0083124C080739403E83166F
:100B2000CC00CE014B08CD004C08CF0083127724B7
:100B300079088316CD007808CC004D08CF004C080A
:100B4000CE0083124625B02D831683124C087039CF
:100B5000203C031DB02D8316D301D2018312CA2479
:100B60000034D119CB2D8316C90183127C25570877
:100B7000133C031CC02D8316C8080319C92D83120A
:100B800008308316D3003430D2008312CA24CB2D10
:100B900083168312D5210034CE3084000008031957
:100BA000E02D0330F800F701F70BD42DF80BD32D0F
:100BB0003C30F700F70BDA2D00000000800BD12D40
:100BC00000340130C8009E210A308316CE00831203
:100BD000CC250310C80DC8080319EF2DE32D8A1189
:100BE0000A12052E8030C8009E210A308316CE00DE
:100BF0008312CC250310C80CC8080319002EF42D4D
:100C00009E218A110A12162EE12D8316480883129E
:100C1000C8009E2104308316C900FA30CE0083122A
:100C2000CC258316C90B0D2E8312F22D0034023011
:100C30008316C8008312042671308316C8008312FD
:100C400004268A150A166E2843080F39003C03183B
:100C5000392E83165308013C031C382E031D342EF5
:100C60005208673C031C382E0130D3006830D20094
:100C700083128316520883124102031D452E8316E8
:100C800053088312420203194D2E83165308831210
:100C9000C000831652088312BF00831653088312C4
:100CA000C200831652088312C100C3120034831697
:100CB0005108DB005008DA00DD012630DC00831229
:100CC000E72379088316D3007808D2006E30DA0063
:100CD0008312D023781C7F2E83165308DB00520822
:100CE000DA00DD0183122E088316DC008312E7236D
:100CF00079088316D3007808D200912E83122F082A
:100D0000FF3C8316D4005308DB005208DA00DD01F3
:100D10005408DC008312E72379088316D30078088F
:100D2000D2005108DB005008DA00DD015930DC0048
:100D30008312E72378088316D20779080318790FFE
:100D4000D3075208F8005308F90083128A110A12D7
:100D5000B32E861042088316D100831241088316F1
:100D6000D0008312572E7908C0007808BF004508CC
:100D70004002031CCB2E031DC12E3F084402031862
:100D8000CB2E44083F02BD004008BE004508031CAE
:100D9000450FBE02CE2EBE010130BD0043080F3903
:100DA000003C0318E12E3E08013C031CE12E031D0C
:100DB000DD2E3D08673C031CE12E0130BE0068308B
:100DC000BD003E088316D10083123D088316D00073
:100DD00083120B138B138B1BEA2E83165108F20020
:100DE0005008F100C03083128B0400348316C40114
:100DF000C301CF010230CE004F08003C031C1C2F62
:100E00004E08831203178D0083168C130C14831263
:100E10000C0883160313C3070318C40AD001C41BAC
:100E2000D00A0310C30DC40D5008C3070318C40A29
:100E3000CE0A0319CF0AFC2E831200347E14FE144E
:100E40007E15FE1503178D0183168C130C14831267
:100E50000C088316031344020319302F7E10FE1072
:100E60000130831203178D0083168C130C14831228
:100E70000C088316031343020319402F7E107E11C2
:100E80000230831203178D0083168C130C14831207
:100E90000C08073C03194E2F7E10FE11031300347B
:100EA000F6261E27003450277E080F390F3C031901
:100EB0005F2F50277E080F390F3C03195F2F003436
:100EC0008316540883126D0203186A2F8316540880
:100ED0008312ED000034D613DC210034D617DC2158
:100EE000003454300C1E722F990083165408D6001B
:100EF0008312AD2283165508D6008312AD220A3024
:100F00000C1E802F9900003448088316D3008312EA
:100F1000C801F301C9134C0870392F3C031C922FF0
:100F2000D01E9B2F5D080739F400F40A0310C80D8A
:100F3000C80AF40B962FCF080319A12FC9174F0821
:100F4000F3042D18A52F4130F304AD18A92F42301A
:100F5000F304301CAD2FC9177316501EB22FC917DA
:100F60000630F30443080F39013C0318BE2FC9179C
:100F7000F31705308316D400831260277308C80462
:100F8000491DCD2FD018C92F4C087039603C031D66
:100F9000CD2FD61FCC2F6B27D02FD61BD02F6E274F
:100FA000CC1DD52F4808F304C913491ED92F730847
:100FB000C8069E214808831653020319EB2FC20866
:100FC0000319EB2F2030D400831248088316D50074
:100FD00083127127831683128A150A12C8284C08B7
:100FE00070393F3C0318FB2F4C0870395F3C031CE1
:100FF000FB2F0730AD0000340730AD000034003463
:101000000C1DC4280C110130C91B0430C907C912BA
:10101000BB0A3C0FBC00F030891C861CBB05540881
:10102000073C03181528D50ADD17981C1A289810B4
:1010300018121816CE0803192028CE03CC15212823
:10104000CC114A1C2428DF0A4A1C3428CA1C342824
:101050004A1D3428CA1D34284A1E3428DE0AE00AF4
:10106000ED0803193428ED03F00A511A3B28CA0F82
:101070003B284B0FCB008A11F6228A15861C472885
:1010800008184628431E4528C31747284316B308A7
:10109000031D4E288611B701B801B228B51B51288F
:1010A000B228B5133C08093C031C5828BC0AB228D6
:1010B000BC013408043C031C69283B1F6228CF167E
:1010C000B01764281030BB07FF30BC000230B700F7
:1010D000B2280F30BB05330F70280130B700B2289B
:1010E00033083402031D7528B2283308340203186C
:1010F0009028B70803197D28B70334083602031C6B
:101100008B28340836020A3C03188A28B7080319CA
:101110008A28B7038F28370F8E288F28B70AAA2866
:10112000340833020318AA28370F97289828B70ADB
:1011300036083402031CA628360834020A3C031879
:10114000A528370FA428A528B70AAA28B708031985
:10115000AA28B7033408B600B708031DB228013027
:10116000B700B228061EB6280C30CE005708FC3C4B
:101170000318BB285014501CC4285708F43C031C07
:10118000C3285010C428CC15D119C9288A11842F1E
:101190008A1500347E1CE12883165608DA008A116D
:1011A0008312D0238A1578088316D7005708643C29
:1011B0000318DC286430D7005708F800E528E52834
:1011C00083126430F8008316E5288312003420303F
:1011D0008316E400E001E101E201E3015B08FA00AB
:1011E0005A08F9005908F8005808F7000310771C4E
:1011F00007295C08E0075D0803185D0FE1075E083A
:1012000003185E0FE2075F0803185F0FE307E30CA4
:10121000E20CE10CE00CFA0CF90CF80CF70CE40B06
:10122000F6288312003464308316D6008312CA2055
:1012300078088316D500D701A030D600D90155080B
:10124000D8008A118312B9238A158316D401D301D9
:101250007908D2007808D1006E30DA008A11831242
:10126000D0238A15781CCA292F087F3C03186229CD
:1012700080302F028316D600DB015608DA00DD012C
:101280007830DC008A118312E7238A157808803CC5
:101290008316D5005208D7005108D6005208DB004B
:1012A0005108DA00DD015508DC008A118312E723BA
:1012B0008A158316D401D3017908D2007808D100A9
:1012C0009D2983128316DB0183122F088316DA000F
:1012D000DD013030DC008A118312E7238A1578089B
:1012E000403C8316D5005408DB005308DA0052084E
:1012F000D9005108D800DF01DE01DD015508DC000E
:101300008312E7207A088316D4007908D30078087E
:10131000D2007708D100D40CD30CD20CD10CD40C51
:10132000D30CD20CD10CD40CD30CD20CD10CD40CC9
:10133000D30CD20CD10C0F30D405D408031DAE2928
:10134000D308031DAE295208F93C0318B329FF3A0C
:10135000031DAE295108003C0318B329D401D30161
:10136000FA30D200D101D408031DC929D308031DC6
:10137000C9295208033C031CC929031DC32951086C
:10138000E73C031CC929D401D3010330D200E83063
:10139000D100831283165108F8005208F900831215
:1013A00000344C0807398316CD004D08CE00831257
:1013B0004C1EE12976087502031CE1298316CE0A2A
:1013C0008312031083164D0D123ED1004E088A1170
:1013D000831245208A158316D2004D088A11831284
:1013E00045208A15F800831652025107CC004D089B
:1013F0008A11831245208A15F8006B02F700F70E58
:101400000F30F70577088316CC078312132179086C
:101410008316D2007808D100520CD000510CCF00B6
:10142000D00CCF0CD00CCF0C1F30D00583123A0853
:1014300083165002031C4E2A031D262A4F088312CE
:101440003902031C252A83164E2A8316D00CCF0C92
:10145000D00CCF0CD00CCF0C1F30D00583123A0823
:101460008316D500831239088316D4005008D7009C
:101470004F08D6008A118312A2248A157908FA002F
:1014800078080A3CF7007908031C790F492A0030D4
:101490004A2A003CFA0077088316CC074C08F8006B
:1014A0008312003483164E08F8014D0203185B2A9C
:1014B0004D08F700672AF7010830CF00CD0DF70D72
:1014C0004E0877020318F700F80DCF0B5E2A83123F
:1014D0008A150A12CF2BED08031D732A4C087039A8
:1014E000603C031D832A7E1B832AF4017408073C99
:1014F000031C832A63307407840057088000570850
:10150000EB00F40A762A4C0870398316C8004808A4
:101510003F3C0318FB2B48085F3C031CFB2B83124A
:101520005A0857020318962A5708DA006108003C47
:101530000318432B5A086B020318B32AEB0A5A0804
:10154000C73C031CB12A5A086B020318B12AEB0AE4
:101550005A08953C031CB12A5A086B020318B12A99
:10156000EB0A6B08DA006330620784005A088000D7
:10157000FE1BF92AEB01F4017408073C031CEE2A58
:1015800063307407840000085A020319CE2A031C32
:10159000CE2A6330740784005A08800063307407D1
:1015A000840000088316C800480883126B020318E1
:1015B000DD2A831648088312EB00FE1FE12A103053
:1015C000E22A183074078316CA00D3004808D400F2
:1015D0008A118312BC228A15F40ABC2A06308316AB
:1015E000D30083126B088316D4008A118312BC22A5
:1015F0008A15FE1FFD2A1030FE2A18306207831656
:10160000CA00D30083125A088316D4008A118312A9
:10161000BC228A1505308316D30083126208831614
:10162000D4008A118312BC228A15E20A6B085A027E
:10163000031C402BF4017408073C031C282B633067
:10164000740784006B0880006B08EC00F40A1B2B05
:10165000183074078316C900D30083126B088316F1
:10166000D4008A118312BC228A1506308316D30057
:1016700083126B088316D4008A118312BC228A1548
:101680005708DA00E101D12178088316C800FE1B53
:10169000AD2B8312EE01F4017408073C031C9A2B56
:1016A0006B08831648020318972B480883126B02B5
:1016B0008316C900633074078400000849020319C7
:1016C000682B031C682B10308312EE07962B8316B1
:1016D00083126B08831621020318972B21088312AB
:1016E0006B028316C9006330740784000008490246
:1016F00003198D2B031C8D2B8312EE0A10307407F7
:101700008316C900D30083126E088316D4008A1191
:101710008312BC228A15962B831610307407C900D9
:10172000D300D4018A118312BC228A158316F40ACD
:1017300083124C2B07308316D30083126E08831656
:10174000D4008A118312BC228A156E082F3C03181C
:10175000AB2BFE17E201FA2B831683126208073CBB
:101760000318E62BF4017408073C031CDF2B6330DD
:101770007407840000088316C900480DCA00CA0D0A
:10178000FC30CA0509307407F7000310F70C77081E
:10179000CC004A08CD004C08CE008312522A7808AB
:1017A0006B02831649020319DC2B031CDC2BFE138E
:1017B0007E13831230138316F40A8312B32BFE1F99
:1017C000E52BCF144F157E173013FA2B63307407B7
:1017D000840000088316C9000310480D490203194C
:1017E000FB2B031CFB2BFE1FFB2B8312CF144F156F
:1017F0007E173013831683126208073C0318012CEE
:10180000E2018A150A12602C7E1C122C83164908EC
:10181000DA008A118312D0238A1578088316CA0049
:10182000152C831210308316CA004A08F800831260
:101830008A150A12692CC31E222C861C222C8A119E
:10184000A9268A15861C552CC31F432C8A11A9264C
:101850008A15F030C3054708C5004608C40045088E
:10186000133C03183E2CFF3A031D3A2C4408503C0D
:1018700003183E2C1430C5005030C400C701C60107
:10188000C3134312542CF108031D542CF208031DFA
:10189000542C8A11A9268A1543080F39063C031CCB
:1018A000532CC30A542CCF17C02CF108031DC02C95
:1018B000F208031DC02CCF19C02CC31AC02C6B2AF0
:1018C00086144C080739503E8316C800C90083129D
:1018D000042C7808B9070318BA0A13217908FA000A
:1018E0007A083A02031C822C031D7A2C78083902EC
:1018F000031C822CD01413217808B9027908031C28
:10190000790FBA02E10AC508031D8E2C4408633C16
:10191000031C8E2C0230C5008A30C400431BAB2C44
:101920000310440D8316C8008312450D8316C900A9
:101930004908D1004808D00083120B138B138B1B6E
:101940009E2C83165108F2005008F100C03083121B
:101950008B044313C02C45088316D100831244081E
:101960008316D00083120B138B138B1BB42C83169E
:101970005108F2005008F100C03083128B04431369
:101980008A150A169E283B080F390C3C0318C92CEF
:101990004F153010081A3014081AD02CDE01DA2C3A
:1019A0008A11EF278A150C308316D4008A1183120E
:1019B00060278A155E08E03C0318E12C4F16E130E1
:1019C000DE00881CEF2C8A11EF278A15CF151830FE
:1019D0008316D4008A11831260278A15F62C5F08BB
:1019E000B33C031CF62C3011CF11DF015F08B33C70
:1019F0000318FE2C3015CF15B430DF004F1F012D1A
:101A0000B01500347E1C2A2D68308316CC004C089B
:101A1000DA008A118312D0238A1578088316CA0047
:101A2000CC0A4C08DA008A118312D0238A15780870
:101A30008316CB004A08823C0318202D8230CA004E
:101A400028304A074B020318282D28304A07CB00BC
:101A50002F2D83125A308316CA00AA30CB0083126E
:101A6000D119A32D5708133C031C472DA9014C087D
:101A70007039203C0319462D4C080739F700F70D43
:101A8000F70DFC30F7057708193EA900A32D57087C
:101A900083164A02031C512D19308312A9009D2D73
:101AA00083164B0883125702031C592D6430A9007A
:101AB0009D2D83164A0883125702FA018316CD0022
:101AC0007A08CE00D7014B30D6004E08D9004D0819
:101AD000D8008A118312B9238A1579088316CF009A
:101AE0007808CE004A084B02FA01D0007A08D100EB
:101AF0004F08D5004E08D4005108D7005008D60032
:101B00008A118312A2248A1579088316D0007808D6
:101B1000CF0019304F07C8005008C9000318C90A80
:101B2000C908031D972D4808643C03189A2DC90164
:101B30006430C80048088312A9002908183C031C17
:101B4000A32D1930A9008A150A16A4288316200887
:101B5000CA004B108312D119242F8316A008031D2D
:101B6000B62D2208C800C901FE1BC90A200BBF2DD3
:101B7000831257088316C800C9017E1BC90A2008B2
:101B8000023C031DCF2D83122E088316C800C90105
:101B90008312301FCE2D8316C90A831283162008A4
:101BA000033C031DD82D83122F088316C800C901DA
:101BB0002008043C031DE82D831234088316C80056
:101BC000C9018312501CE72D8316C90A831283169C
:101BD0002008053C031DF42D831237088316C80026
:101BE000831262088316C9002008063C031D002EDC
:101BF000831229088316C80083126B088316C90054
:101C00002008073C031D092E831248088316C800CC
:101C10004B142008083C031D152E83122D08831633
:101C2000C80083126C088316C9002008093C031DF4
:101C30001E2E83124C088316C8004B1420080A3C41
:101C4000031D272E83123A088316C8004B14200860
:101C50000B3C031D302E831239088316C8004B1429
:101C600020080C3C031D412E831213217908831692
:101C7000CD007808CC004D08C80083126D0883168B
:101C8000C90020080D3C031D4B2E83121321780838
:101C90008316C8004B1420080E3C031D542E8312DB
:101CA00045088316C8004B1420080F3C031D602E06
:101CB000831244088316C800831260088316C90083
:101CC00020080F3C0318682E83123E088316C800B4
:101CD0002008113C031D702E83123D088316C80096
:101CE0002008123C031D762E7E08C8002008133CF5
:101CF000031D7E2E83124F088316C8002008143C53
:101D0000031D862E83125D088316C8002008153C2B
:101D1000031D8E2E831258088316C8002008163C17
:101D2000031D962E83125F088316C8002008173CF7
:101D3000031D9E2E83125E088316C8002008183CDF
:101D4000031DA72E831233088316C8004B142008E6
:101D5000193C031DB12E8312D12178088316C800C7
:101D60004B1420081A3C031DB82E4708C8004B141A
:101D700020081B3C031DBF2E4608C8004B1420083A
:101D80001C3C031DC82E831240088316C8004B1448
:101D900020081D3C031DD12E83123F088316C80066
:101DA0004B1420081E3C031D002F8312D121780DF7
:101DB0008316CD00CD0DFC30CD056B30DA008A11D5
:101DC0008312D0238A1578088316CE00DB014D08D4
:101DD000DA00DD014E08DC008A118312E7238A1540
:101DE00079088316CF007808CE004F0CFA004E0C0D
:101DF000F900FA0CF90C7908A1002108C8004B146D
:101E000020080F3C0318092F2008173C031C092F3A
:101E10004B144B18142F4A08D3004908D4008A11D8
:101E20008312BC228A1583162008D4004808D500E6
:101E30008A11831271278A158316A00A20081E3C76
:101E40000318232FA00183128A150A16BB288316B4
:101E50004008F80083128A150A16C2288316D10199
:101E6000C008031D392FD10F382F0030F8005E2F26
:101E7000302FC00803195B2F40084102031C432F79
:101E800040084102D20041084002031D472F40088C
:101E9000410203184F2F40081D3C4107D200520851
:101EA000F800A330780784000008D100C00351086F
:101EB000F8005E2F5E2F0030F8005E2F8312003492
:101EC000831651082F3C03186C2F5108393C031C12
:101ED0006C2F30305102D2005108403C0318782F4B
:101EE0005108463C031C782F413051020A3ED20073
:101EF0005208F800831200342E2778088316CF008A
:101F000083122E2778088316D0004F08D100831241
:101F10006027780E8316CE00F030CE055008D10031
:101F20008312602778088316CE074E08F8008312C4
:101F300000348316500883124A078316D100831297
:101F40004B088316D2000318D20A83124B0883165B
:101F50005202031CB92F031DB52F510883124A02E8
:101F6000031CB42F8316B92F831683120020831607
:101F7000A52F831200340B138B138B1BBC2F1F3028
:101F8000880580308807511088195114203088073F
:101F9000D1108819D1142030880751118819511592
:101FA000C0308B0400346F08053C031CDE2F8A11FF
:101FB0008D228A15D6128A11DC218A15003401304F
:101FC0008316D3008A1183126D228A15013083167D
:101FD000D3008A1183127D228A150718F32F8718E0
:101FE000F32FAD13F42FAD170034CD015D17DD11C4
:101FF000DD12DD138A110A169A2B0A16532AB62A05
:102000000A12A9260A1606308316D0000A128A156B
:10201000831299270A168A11DD12DD134F1F122829
:10202000003013285A308316CE008312D011831645
:10203000CE0803197E28C001C1010A128A15831235
:10204000C3240A168A113C308316CF0083128818E5
:102050002F28CF192D28301C4B287E1B4B28831688
:10206000CF08031D352883124B28C001C1018312FC
:1020700086120A128A15C3240A168A1101308316A1
:10208000D0000A128A15831299270A168A1183161C
:10209000CF03262883128316CF08031D54288312EA
:1020A000B01583167E285828831286164F13831680
:1020B0000130D0000A128A15831299270A168A1154
:1020C0000A128A15BB270A168A110030511C0130EA
:1020D0008316D00000308312D019013083165006C9
:1020E00003197428CE037B288312D0197928D015C0
:1020F0007C2883167E288312172883168312861263
:102100008316CE08031D882883124F17B015831637
:102110004E085A3CF7000310770C8312AB000034D2
:102120000730AD000A126A220A1612308316D00058
:102130000A128A15831299270A168A11013083160A
:10214000D3000A1283126D220A1612308316D000B1
:102150000A128A15831299270A168A1158081D3CFB
:10216000031CB428AD102D118316D3010A1283125B
:102170006D220A1601308316D3000A1283127D22C3
:102180000A1612308316D0000A128A158312992774
:102190000A168A1158081D3C031CD0282D102D1139
:1021A0008316D3010A1283126D220A168316D301F5
:1021B0000A1283127D220A160A126A220A160034B3
:1021C0000A128A152E270A168A1178088316C80063
:1021D000433C031DBA2A0A128A1583122E270A16B7
:1021E0008A1178088316C900573C031D0D2A0A126C
:1021F0008A1583127C270A168A1178088316CA006A
:102200000A128A1583127C270A168A117808831607
:10221000CB004A08F03E03180C2A103E83125A2BBA
:102220008316CB08031D1529C2010C2A0A12F626B3
:102230000A1603178D01831603134408831203172C
:102240008C0083168C130C15831203130B08F700F4
:102250008B138316031755308D00AA308D008C1414
:102260008C1830290C117708831203138B0401306A
:1022700003178D00831603134308831203178C0082
:1022800083168C130C15831203130B08F7008B13A2
:102290008316031755308D00AA308D008C148C18CE
:1022A0004F290C117708831203138B040A121E277F
:1022B0000A1683160C2AD11578308316C2000C2A10
:1022C000D111CB01CA0183160C2A83164B08831245
:1022D000C8000A129E210A1683160C2A00208316B3
:1022E0000C2A0A126A220A1683160C2A0A128A1566
:1022F000D3270A168A1183160C2A83164B088312D9
:10230000A90083160C2A8316CD014B08CC004D087A
:10231000D7004C08D600D9011830D8000A12831211
:10232000B9230A1679088316CF007808CE004F0823
:10233000D3004E08D2000A128312CA240A1683164A
:102340000C2A90200A128A15D3270A168A1183169E
:102350000C2A83164B0ECE00F030CE05D3014E086A
:10236000D2000A12831224260A1683160C2A0A1295
:10237000A9260A16C31EBE292130BF290130C30079
:10238000C31683160C2A0A128A15DF270A168A1129
:1023900082308316C200493083120C1AD129831669
:1023A000CC2999000A300C1ED329990083160C2AD7
:1023B00083164B088312D200DD1783160C2A83166E
:1023C0004B08C43C031D0A2ACB014B08133C031CD9
:1023D000012A0A1283126B270A1632308316CE00A6
:1023E0000A128312CC250A160A126E270A163230F8
:1023F0008316CE000A128312CC250A168316CB0A46
:10240000E52983120B138B138B1B032A062A8A01DF
:10241000002883160C2A8316512B4908523C031DB1
:10242000BA2A0A128A1583127C270A168A1178089A
:102430008316CA00CB014A08F13E0318B92A0F3EA1
:1024400083126E2BD3018316B92A53088316CB004F
:10245000B92A0A128A15BB270A168A118316CB01DC
:102460008312511C362A83164B148312D11C3B2A2B
:102470008316CB148312511D402A83164B158312E9
:10248000D11D452A8316CB158312081C4A2A8316B0
:102490004B168312881C4F2A8316CB168312081EF4
:1024A000542A83164B178312891C592A8316CB177B
:1024B00083128316B92A8316CB018312861C632AE2
:1024C00083164B148312861E682A8316CB1483123C
:1024D000D61E6D2A83164B158312D61F722A8316B9
:1024E000CB1583128316B92A83162208CB00B92A8A
:1024F00034088316CB00B92A8316CB0183122D1C16
:10250000842A83164B148312AD1C892A8316CB149C
:102510008312061E8E2A83164B1583128316B92A40
:10252000450CFA00440CF900FA0CF90CFA0CF90C01
:10253000FA0CF90C79088316CB00B92A07308316F8
:10254000CB00B92A2E088316CB00B92A2F08831690
:10255000CB00B92A02308316CB00B92A713083161A
:10256000CB00B92A8316CB01B92A8316CB01B92A2D
:1025700083162F2B4808413C031D2E2B0A128A1567
:1025800083122E270A168A1178088316C900490873
:10259000573C031D102B0A128A1583127C270A163A
:1025A0008A1178088316CA000A128A1583127C27BA
:1025B0000A168A1178088316CB004808413C031D8F
:1025C0000F2B4A08831203178D00831603134B0841
:1025D000831203178C0083168C130C1583120313BC
:1025E0000B08F7008B138316031755308D00AA30A4
:1025F0008D008C148C18FA2A0C117708831203139F
:102600008B0483164A08831203178D0083168C13DC
:102610000C1483120C0883160313CB000F2B2F2BE3
:102620004908523C031D2E2B0A128A1583127C275F
:102630000A168A1178088316CA004808413C031D0F
:102640002D2B4A08831203178D0083168C130C144C
:1026500083120C0883160313CB002F2B542B48082E
:1026600083120C1A352B8316302B990083164908D8
:1026700083120C1A3D2B8316382B990083164A08B7
:10268000D6000A128312AD220A1683164B08D60012
:102690000A128312AD220A160A300C1E4D2B990025
:1026A00083160130F800562B0030F80083128A158B
:1026B0000A16C8280A148A140A1182071029162932
:1026C0005B29602965296E29712976297D2983294D
:1026D000A129A929B729C329D829DF290A148A14CD
:1026E0000A118207222A252A292A5B2A742A782A93
:1026F0007C2A902A9E2AA22AA62AAA2AAE2AB22A8E
:10270000B52ACF01BB013011BC01C31E892B21307A
:102710008A2B0130C3000A128A15C3240A168A11B3
:1027200000347E1FB12B1030CC00CF144F150A128D
:102730008A15F52F0A168A11301BB12BC3160020FB
:1027400086162B088316D0000A128A158312992741
:102750000A168A1186123017FE137E130130F80014
:10276000B32B0030F8008A150A16F428831648089F
:1027700083124A078316C90083124B088316CA00C6
:102780000318CA0A83124B0883164A02031CDA2B69
:10279000031DD22B490883124A02031CD12B831636
:1027A000DA2B83160A128A15831200200A168A1160
:1027B0008316C22B83128A110A16F22BCB01CA018F
:1027C000CF1BFD2BC31BFD2BC3134316CB08031DCF
:1027D000FC2B4A08773C031CFC2B01308316C800F5
:1027E0008312B62BC31FF52BFC2B8614DD1FFB2B8E
:1027F000DD1EFB2BFC2BE62B86108A150A164629BC
:1028000000200A1255220A16CB01CA013730AD004A
:10281000D01C0E2C4730AD00D0102F2C5730AD00FF
:102820000A128A1513210A168A117908FA007A0801
:102830003A02031C2D2C031D212C78083902031C9D
:102840002D2C0A128A1513210A168A117808B9024A
:102850007908031C790FBA022F2CBA01B90167302D
:10286000AD0000344D08013C03183A2CCF14013060
:10287000F800592C301D412C0730AD000130F80014
:10288000592C4F08F739403C03184E2C4F08F739A4
:10289000433C031C4E2C0030F800592C4F08F739EC
:1028A0000319572C0730AD000130F800592C0030C7
:1028B000F8000034F701F801F901FA018316E0018C
:1028C000E101E201E3015F085E045D045C040319B9
:1028D000992C2030E4000310D80DD90DDA0DDB0D52
:1028E000E00DE10DE20DE30D5F086302031D822C94
:1028F0005E086202031D822C5D086102031D822CAA
:102900005C086002031C932C5C08E0025D08031C59
:102910005D0FE1025E08031C5E0FE2025F08031C0C
:102920005F0FE3020314F70DF80DF90DFA0DE40B38
:102930006B2C0000E030840083128A110A16192DD6
:1029400083165108C7005008C600831250126E0843
:10295000023C0318CC2C4C087039403C031DCC2C95
:102960006D308316DA000A128312D0230A16780813
:102970008316D8005108DB005008DA00DD01580842
:10298000DC000A128312E7230A1679088316D100A5
:102990007808D000831250167E1C3F2D83165208F3
:1029A000DA000A128312D0230A1678088316D70099
:1029B000D708031DDD2C0130D700D601D501510801
:1029C000D4005008D30003105508D6005408D50091
:1029D0005308D400D301D40DD50DD60D5608DB0015
:1029E0005508DA005408D9005308D800DF01DE0189
:1029F000DD016430DC000A128A158312E7200A1612
:102A00008A117A088316D6007908D5007808D40090
:102A10007708D3005608DB005508DA005408D900BF
:102A20005308D800DF01DE01DD015708DC00831206
:102A30005A2C7A088316D6007908D5007808D40075
:102A40007708D3005408D3005508D4005608D500A1
:102A5000D6010310D60CD50CD40CD30CD608031D0C
:102A6000352D5508003C03183A2DD601D501FF300D
:102A7000D400D3005408D1005308D0008312831629
:102A80005008F8005108F9008312003483164E08EC
:102A9000D1004D08D0004F08D2008312A02479083D
:102AA0008316D1007808D0005108D3005008D20016
:102AB0000A12831224260A1600347C080A126C209B
:102AC0000A168316C800CE014808CD005830CF0042
:102AD0000A12831277240A1679088316CA00780826
:102AE000C9004A08CF004908CE000A1283124625C1
:102AF0000A16FE1A9E2D01307C07F7000310F70D11
:102B000077088316C900490A0A12831272200A162E
:102B1000FA00831649080A12831272200A16F80076
:102B20007A084B02031C9E2D031D9A2D78084A0239
:102B3000031C9E2DFC08031D9E2DFC0A8A150A16F7
:102B4000672A8316CD01CC0183125908093C031C66
:102B5000BD2D59080A3C8316CF00D7014F08D60077
:102B6000D9012D30D8000A128312B9230A16790828
:102B70008316CD007808CC008312403083164C07B2
:102B8000CE004D08CF000B3003180C30CF07831256
:102B90002D1DCD2DFA010030D02D0230FA001C3051
:102BA00083164E07CA004F08CB007A0803187A0F25
:102BB000CB074B08D4004A08D3005B30D5000A127B
:102BC000831222240A1679088316CB007808CA00DB
:102BD0004808CA0749080318490FCB074A08F800F4
:102BE0004B08F9008312003490200A128A15DF275F
:102BF0000A168A118A150A160E2B4F08F73943391F
:102C000003190C2E1C308316CB002030CA0049302B
:102C1000CC004D10232E831203107D0D8316CE00A1
:102C20004E0A0A12831260200A16FA0083164E0812
:102C30000A12831260200A168316CA007A08CB0093
:102C40005930CC004D144B08D1004A08D0004C0834
:102C5000D2008312A02479088316C9007808C8001E
:102C60004D1C422E4908DB004808DA00DD01AA307D
:102C7000DC000A128312E7230A1679088316C900BA
:102C80007808C8004908D3004808D2000A12831205
:102C900024260A1600344C0807398316C80083120C
:102CA0004C1E5C2E8316C80803195B2E750876022D
:102CB000031C5B2EC8038312ED08031D7F2E8316B1
:102CC00048080A12831245200A168316C900A21B5F
:102CD000742E2208003C0318742E220CF700F70C07
:102CE0003F30F7057708752E0030490783125702E9
:102CF00003197C2E03187F2E0130F800812E00303E
:102D0000F8008A150A16452C7E1CA52E6330831602
:102D1000DA000A128312D0230A1678088316C80034
:102D2000C808031D992E83124C0807398316C80062
:102D30009A2EC8034808073C0318A02E0330C80089
:102D40004808F800A92EA92E83120330F800831634
:102D5000A92E83120034FF308316CA00C901C801AE
:102D60004808073C031CC72E63304807840000084E
:102D7000CB004A084B020318BF2E4B08CA004B0871
:102D800049020318C52E4B08C900C80AB02E4A08CC
:102D9000C9027608C8008312501CD32ED030F80028
:102DA0000230F900172F83164908023C0318E02E61
:102DB0001030F8000E30F9008312172F172F8316EA
:102DC000750876020318112F0A128A15831213212F
:102DD0000A168A1179088316CD007808CC004D0CAC
:102DE000CF004C0CCE00CF0CCE0CCF0CCE0C1F3035
:102DF000CF0583123A0883164F02031C112F031DBF
:102E0000092F4E0883123902031C082F8316112F35
:102E100083167030F8000830F9008312172F172F2F
:102E200083163830F8000430F9008312172F00346D
:102E30006B08570203181E2F57081F2F6B088316A5
:102E4000CB00C8010830D30083126C088316D4006D
:102E50000A128312BC220A1609308316D3004B08CB
:102E6000D4000A128312BC220A16760875020318CF
:102E70003B2FCC0AF50A750876020318712FCC0394
:102E8000F50362088316CD00CD08031D492F0830D5
:102E9000CD00CD034D08CC00CC08031D512F0830C8
:102EA000CC00CC0363304C0784000008CF006330B3
:102EB0004D0784000008D0004F0850020318702FFF
:102EC00050084F02C800F4017408073C031C702F1F
:102ED000633074078400480800028000F40A642FFD
:102EE00083126C0883164B020318BB2F4B08831206
:102EF0006C028316C800CA01F4017408073C031C65
:102F00008E2F6330740784000008CF004A084F02F8
:102F100003188C2F4F08CA00F40A7D2F4B084A0271
:102F20000318942FC8019D2F83126C0883164A0240
:102F300003189D2F4B084A02C800F4017408073C8F
:102F4000031CB12F63307407840000084802031883
:102F5000AF2F633074078400480800028000F40A31
:102F60009E2F83126B08831648020318BB2F480854
:102F70008312EB0283164B0883126C020318E52FB1
:102F80006C0883164B02C800F4017408073C031C4C
:102F9000DB2F6330740784000008D1004808FF3C31
:102FA00051020318D92F63307407840048080007C2
:102FB0008000F40AC52F4808FF3C83126B020318F7
:102FC000E52F831648088312EB070A308316D300D7
:102FD0004808D4000A128312BC220A1683164B0832
:102FE0008312EC000034FF3FFF3FFF3FFF3FFF3FF6
:102FF000FF3FFF3FFF3FFF3FFF3FFF3FFF3FFF3FE1
:1030000083164F08C23C03180728C330CF00DB01EA
:103010004F08DA00DD01A430DC000A128A118312A5
:10302000E7230A168A1578088316CF004E08DB00BE
:103030004D08DA00DD014F08DC000A128A11831204
:10304000E7230A168A157908003484011F308305A6
:103050002030831699002630980090308312980013
:103060001830831693002830831294008316941727
:1030700014131F149F141F159F1107309C000A1270
:103080008A118312472A0A168A15B201B101CC01AE
:10309000BA01B901CF01DE01DF01E001EF01D0018A
:1030A0000A128A1155220A168A15FE01F5017508C1
:1030B000063C031C62280A128A11F6220A168A1597
:1030C000F50A572801308316C8000A128A118312A4
:1030D000B1250A168A150A128A11172E0A168A15A0
:1030E0000530C5001430C400C701C6011C3083166A
:1030F000D3002030D2000A128A11831224260A1625
:103100008A150A128A11A9260A168A15C31E8A2848
:1031100021308B280130C300C3160A128A115327AD
:103120000A168A158316C001C1018C1683129817DE
:1031300018160A1200200A160A121B2C0A160A1266
:10314000C3240A160A12022D0A16F01CC028F00A1F
:103150008316C2080319BE284208793C031DB7280C
:103160000A128A1183128D220A168A158316C20347
:103170000A128312A62D0A16C02883168312D111B3
:103180000A12272F0A16F8080319D5288A11E028F1
:103190008A15F8080319D52883164208773C031CC2
:1031A000D3287830C200831299287008F03C0318A5
:1031B000DF28F0010A128A1153270A168A15D11D39
:1031C000E2289928DD1FF2285D1FF228DD138A11FD
:1031D00081238A154C082F3C0318EF282229B01DA3
:1031E000F22822298A11912B8A15F8080319F92847
:1031F00022294C08703903191329103A0319502950
:10320000303A0319A729103A0319272A703A0319EB
:10321000002C103A0319002C303A03193E2D103AB5
:1032200003195D2E5D2ECB08031D1A294A080B3C9D
:1032300003185D2E5708093C03181F294F14222933
:103240005D2ECF145D1B2B2930192B294F08F73920
:10325000031D2B29CF145D13D01E32290730CC0556
:103260004C1634291030CC000A128A118D220A160D
:103270008A15AD1F41290A128A116A220A168A1577
:1032800044290A12D3270A168A11DE2B8A15C3167F
:10329000CB01CA01D01E4F290730DD055029DD01C1
:1032A0000730AD00DD1F5729DD1E5729D029D61E56
:1032B00067294B08003C03186729FF3A031D64295E
:1032C0004A08683C031867290A12D3270A160130F6
:1032D0008316C8000A128A118312B1250A168A15AC
:1032E0005708133C03187629CB01CA014B08153C3B
:1032F000031C8129031D80294A08173C031C8129CE
:103300005D2E5708133C031886295D2ED61E892989
:103310005D2ED01E8F290730CC05CC169129203088
:10332000CC00B0199B29301B9B298A1100248A15D7
:103330008A1100248A15D119A0290A12D3270A1646
:103340000A128A11D5210A168A15CB01CA01CC1995
:10335000B829D01EB8296A308316DA000A128A11F9
:103360008312D0230A168A15F808031DB829D0291C
:10337000DD1ACD29DD118316C9010A128A118312C3
:103380007C250A168A152A30CB003030CA000A1272
:103390008A118D220A168A155D2EDD1F5D2E3013CF
:1033A00050127E12FE12DC30DA00DF018316C201F9
:1033B0008312D111CD01B001CC010730AD008316CD
:1033C000C9010A128A1183127C250A168A150A126B
:1033D0008A118D220A168A15C3168A1181238A152D
:1033E0007E12FE12DC30DA00DD1EF729DD15CD0A73
:1033F000501EFC290430CD003030CC040330FC00DA
:10340000FC0803190B2A8A1100248A15B01D092A09
:10341000CD0AFC03002ADD12DD13CB01CA01FC0139
:10342000FD01D1138A1132248A15F808031D1C2AC4
:103430005D1B1C2AB01D202A5D1B1F2ACF142229C8
:10344000CB01CA011C30F2002030F1008614FE13BB
:10345000AD1F382A7E1A382A1C308316D30020303C
:10346000D2000A128A11831224260A168A15592AB2
:1034700003107D0D8316C800480A0A128A118312B0
:1034800060200A168A15FA00831648080A128A1163
:10349000831260200A168A158316C9007A08CA00AA
:1034A000CE004908CD005930CF008A11831246253D
:1034B0008A154C08F8398316C8007E1E612A01302F
:1034C000622A003048078312CC008A115D2D8A15CC
:1034D000AD1F9A2A23305A07570203199A2A031C50
:1034E0009A2A7E1A9A2A7E162D1D792AFA01003010
:1034F0007C2A0230FA001C30D03E8316C8007A08BD
:10350000C900023003180330C9074908D40048082D
:10351000D3005B30D5000A128A11831222240A16C6
:103520008A1578084A07DB004B08DC007908031885
:10353000790FDC077E1AA92A04308316C9005C3093
:10354000C8008A118312A1258A157908DC00780841
:10355000DB005C084B02031CDD2A031DB32A5B0859
:103560004A02031CDD2AAD1FBB2A0A128A118D22D2
:103570000A168A15FE125A305B07F8005C08FA003A
:103580000318FA0A7A084B02031CDC2A031DCC2A12
:1035900078084A02031CDC2AD61ED42A0A12D32732
:1035A0000A16DD12DD13DC2ADD1FDC2ADD1EDC2A13
:1035B0008A1100208A155D2E1E2B4B08033C031830
:1035C0001E2BFF3A031DE82A4A08373C03181E2B1E
:1035D0004B08043C031C1E2B031DF22A4A08973C8F
:1035E000031C1E2BD61AF92A0A128A116A220A16FD
:1035F0008A154B08033C03181E2BFF3A031D042BAE
:103600004A085B3C03181E2BAD1B1E2B2D180A2BE2
:10361000AD1C1E2BFE1A1E2B8A11F42D8A1557087D
:10362000DA005A08963C0318172B9630DA008316F6
:1036300022088312D9008A11FD258A158316C90133
:103640000A128A1183127C250A168A158A113224DD
:103650008A15F80803192D2B22297D08023C031C2A
:10366000582B01307D07F7000310F70D77088316FC
:10367000C900490A0A128A11831254200A168A15AF
:10368000FA00831649080A128A11831254200A1676
:103690008A15F8007A084B02031C582B031D542B83
:1036A00078084A02031C582BFD0A8A11FD258A1549
:1036B00007308316C9000830C8008A118312A1257B
:1036C0008A157908FA004B087A02031C6F2B031D38
:1036D0006D2B4A087802031C6F2BE0015D2E8316C8
:1036E000A21B792B2208003C0318792B0310220C13
:1036F0007A2B00303C3E831257020319812B0318AA
:103700009E2B6008043C03189D2B6E308316DA0054
:103710000A128A118312D0230A168A15F80803198F
:10372000932B0030942B0130023903199C2B4D0848
:10373000013C031C9C2BDD292129AD2B5708FD3CA6
:10374000031CA42BE001AD2B6008383C0318AD2B03
:103750004F153015B430DF0022290B308316C90015
:103760004030C8008A118312A1258A157908FA0011
:103770004B087A02031CC32B031DC22B4A08780294
:10378000031CC32B5D2E01308316C9000A128A1157
:1037900083127C250A168A150C308316C900A830BE
:1037A000C8008A118312A1258A157908FA004B08EE
:1037B0007A02031CE22B031DE12B4A087802031C4A
:1037C000E22B5D2ECB01CA01D01EED2B5D0807391F
:1037D000CC055030CC04D012EF2B5330CC007E12ED
:1037E000F5017508073C031CFC2B6330750784004A
:1037F00057088000F50AF12BFF30DA00EC015D2E4E
:103800008316C9010A128A1183127C250A168A15A9
:103810004C080739F7000310F70D77088316C90025
:10382000490A0A128A1183127A200A168A15FA00A6
:10383000831649080A128A1183127A200A168A15F9
:103840008316CA007A08CB0083124C080739483E19
:103850008316CC004B08CE004A08CD004C08CF00A0
:103860008A11831246258A15DD1F3C2CDD1E3C2C57
:103870008A1100208A155D2E8A1132248A15F808D3
:103880000319432C22298A114B2E8A15F808031993
:10389000712CFE1B4F2C6E080F3C0318542CCF14B8
:1038A0004F157E173013F2286008043C0318702C63
:1038B0004D08013C031C6F2C6E308316DA000A128F
:1038C0008A118312D0230A168A15F80803196A2C64
:1038D00000306B2C0130023903196F2CDD292129AE
:1038E0007F2C5708FD3C031C772CE0017F2C6008DF
:1038F000383C03187F2C4F154F16301422294C08E2
:103900000739F5005D080739F600D01C992C1730EF
:10391000AD008A1184268A1578087502031D932C40
:103920004C1A932C0A2D8A1184268A157808F600E1
:10393000B42CCC1DB42C6A308316DA000A128A111A
:103940008312D0230A168A157808F600F608031D9C
:10395000AF2CF508031DAE2CD0162229B02CF6038F
:10396000760875020318B42CFE1FB72C5D2E4C1E72
:10397000E62CEC08031DCB2C5708EC000B3083160B
:10398000D30083126C088316D4000A128A118312A2
:10399000BC220A168A15760875020319E42C8A11CE
:1039A000AB268A157908FA004B087A02031CE02C32
:1039B000031DDE2C78084A020318E02C5D2EE32C50
:1039C0008A1118278A15E52CEE2CEC2C7608750246
:1039D000031DEB2C5D2EEE2CCB01CA014C16760894
:1039E0007502031D072D8A11AB268A157908FA0086
:1039F0007A084B02031C072D031D022D4A0878028A
:103A00000318072D8A1118278A154C12EC015D1234
:103A1000DD135D2ECB01CA01FC01FD01D1137E1621
:103A20008F30CC056030CC0451120B138B138B1BE1
:103A3000162DF201F101C0308B0403107D0D8316A9
:103A4000C800480A0A128A11831298200A168A1599
:103A5000FA00831648080A128A11831298200A165F
:103A60008A158316C9007A08CA00CE004908CD001D
:103A70006130CF008A11831246258A158316C90149
:103A80000A128A1183127C250A168A155D080739E5
:103A9000F6008A1184268A1578080A128A11A22053
:103AA0000A168A158316C900CE014908CD00603078
:103AB000CF000A128A11831277240A168A15790810
:103AC0008316CB007808CA004B08CF004A08CE0006
:103AD0000A128A11831246250A168A157D08013CAE
:103AE000031CD22D01307D07F7000310F70D770876
:103AF0008316C900490A0A128A1183128E200A16F7
:103B00008A15FA00831649080A128A1183128E2038
:103B10000A168A158316CA007A08CB006230D600CE
:103B20000A128312CA200A1678088316CC004B08A2
:103B3000CE004A08CD004C08CF008312002079083F
:103B4000FA007A084B02031CD22D031DAB2D780816
:103B50004A02031CD22DFD0A7D08023C031DB12D33
:103B60007E1203107D0D8316C800480A0A128A11BE
:103B7000831298200A168A15FA00831648080A123A
:103B80008A11831298200A168A158316C9007A08AA
:103B9000CA00CE004908CD006130CF008A118312DF
:103BA00046258A158818D82DCF19D82D301CDA2D26
:103BB0005116DB2D511262308316D6000A12831281
:103BC000CA200A1678088316C8000430CE00B03028
:103BD000CD004808CF00831200207908FA007A0847
:103BE0004B02031C322E031DF92D78084A02031CD8
:103BF000322ED11B322ED1172730AD008A11002072
:103C00008A150A128A1155220A168A15CB01CA0191
:103C10003730AD00D01C102E4730AD00D0102D2E07
:103C20005730AD000A1213210A167908FA007A08F3
:103C30003A02031C2B2E031D212E78083902031C87
:103C40002B2E0A1213210A167808B9027908031CD0
:103C5000790FBA022D2EBA01B9016730AD00773065
:103C6000AD00CD0162308316D6000A128312CA203D
:103C70000A1678088316C8000530CE002830CD001B
:103C80004808CF00831200207908FA007A084B0216
:103C9000031C5C2E031D502E78084A02031C5C2E68
:103CA000CB01CA010A12D3270A168F30CC05503037
:103CB000CC044C080739F5005D2E992863000318E1
:103CC0006D2EFF3A031D682E4C08373C03186D2EED
:103CD00057081D3C031C6D2E992A8A11A82D8A15A0
:103CE0007C2E50140A308316D7000A128A118312D0
:103CF000F7220A168A1591299F286300FF3FFF3F8C
:103D00008A150A16802E8A0118308A00252800009C
:103D1000031E832E90309800831618159816403095
:103D2000990083120330FA00213090000C14EC2625
:103D3000EA3A031DAF2EFA01B62EEC26F900E33A5B
:103D40000319B82E7908EA3A0319B62E7908ED3A24
:103D5000031D9D2EE430E7260330FA00EC26900187
:103D600098018316980183128C01832EEB30E52E87
:103D7000EC26F600EC26F500EC26F100FB00EC2624
:103D8000F300F20121308312031376020319D12EBE
:103D900075080339FC00FD000310FC0D20307C0782
:103DA000D22E20308400EC268000F207840AFB0B20
:103DB000D32E72087306E830031DE52EE730E726A0
:103DC000FE260038E4300319E530E7269D2E640016
:103DD0000C1EE72E9900080064007A080319FA2ED9
:103DE0000C1CFA2E1010FA0BF62E00340C100B30AF
:103DF0008F0010148C1EEC2E1A0808002130760259
:103E00000319502F831603178C1783120313750899
:103E1000FC3903178D000313760803178F00203039
:103E2000840003137D080319282F831603170C142D
:103E30000000000083120E088000840A0C08800035
:103E4000840A8D0A0313FD03F503F10AF10A112F09
:103E50007108FC00203E84000310FC0C7608031758
:103E60008F000313750803178D0003137C080317D5
:103E70008D0703198F0A03170D0803390319502FF3
:103E800083160C140000000083120E088000840AC0
:103E90000C088000840A8D0A0313F10AF10A3B2FF3
:103EA0007508F7007608F800FB010230F40071088D
:103EB0007B02031801347B08203E84002130780205
:103EC0000317831603196E2F8C1783011E30780297
:103ED0008030031977020318B62F702F8C138301DB
:103EE000770803178D0003137808031D852F04300E
:103EF00077020318852F031783168C1F822F8312D6
:103F000084308D0783011E30862F780803178F00B9
:103F100000088E00840A00088C0083160C155530AA
:103F20008D00AA308D008C140000000083018316E0
:103F300003178C1BBE2F8312031364000D1E9D2FCD
:103F40000D12831603170C110C14000000008312CD
:103F5000840300080E06031DB22F840A00080C0615
:103F60000319B62F8301F40B572F00348312031368
:103F70000230FB07F70A0319F80A552F83120313BF
:103F80000D12831603170C11831203170D08033942
:103F9000033C031DB62F03308D028312031304303C
:103FA000FC00073084020000831603170C14000085
:103FB000000000000000000000000008831203174A
:103FC0000E06031DE82F840A00080C060319EF2FC4
:103FD00083120313FC30F7050630FB02B22F831265
:103FE00003178D0A840A83120313FC0BD32FB62FF9
:103FF000FF3FFF3FFF3FFF3FFF3FFF3FFF3FFF3FD1
:084000000F000F000F000F007C
:02400E00323F3F
:104200007000680005003500300031003500000006
:1042100000000000000030003400310036003200A1
:1042200030003000370042006900780062007900F9
:1042300020004D006F00640065006C00200031001C
:10424000310035000000FF00FF00FF00FF00FF000D
:10425000FF00FF00FF00FF00FF00FF00FF00FF0066
:10426000460046004600460046004600460046001E
:10427000640064006400640064006400640064001E
:1042800046004600460046004600460046004600FE
:10429000640067006A006D007000730076007900AA
:1042A0000E000E000E000E000E000E000E000E009E
:1042B0004600640064006400550011001100110004
:1042C0004600640064000400640050005500500083
:1042D0003200AA00FF00FF00FF00FF00FF00FF0008
:1042E0005B005800550052004F004C00490046004A
:1042F000640064006400640064006400640064009E
:104300000900090009000900090009000900090065
:10431000500096004B004B00FF00FF00FF00FF0025
:1043200050005500640004006400FF00FF00FF001F
:104330003200AA00FF00FF00FF00FF00FF00FF00A7
:10434000FF00FF00FF00FF00FF00FF00FF00FF0075
:10435000FF00FF00FF00FF00FF00FF00FF00FF0065
:10436000FF00FF00FF00FF00FF00FF00FF00FF0055
:10437000FF00FF00FF00FF00FF00FF00FF00FF0045
:10438000FF00FF00FF00FF00FF00FF00FF00FF0035
:10439000FF00FF00FF00FF00FF00FF00FF00FF0025
:1043A000FF00FF00FF00FF00FF00FF00FF00FF0015
:1043B000FF00FF00FF00FF00FF00FF00FF00FF0005
:1043C000FF00FF00FF00FF00FF00FF00FF00FF00F5
:1043D000FF00FF00FF00FF00FF00FF00FF00FF00E5
:1043E000FF00FF00FF00FF00FF00FF00FF00FF00D5
:1043F000FF00FF00FF00FF00FF00FF00FF00FF00C5
:00000001FF
