:1000000018308A0000280000FF00030E8301A100C1
:100010000A08A0008A010408A2007708A300780853
:10002000A4007908A5007A08A6007B08A70083131E
:1000300083120B1E1D288B183C288C308400801ED8
:1000400023288C1A3F288C308400801C29288C1887
:100050004228220884002308F7002408F800250815
:10006000F9002608FA002708FB0020088A00210E64
:100070008300FF0E7F0E09008A110A1263298A117C
:100080000A12C6288A110A12A7290A108A100A1110
:10009000820712341434163418341A341C341E34C3
:1000A00020340A108A100A11820728342D34323481
:1000B00037343C34413446344B34503455345A345C
:1000C0000A108A100A1182070034003438340434CC
:1000D000083407348C340A340A108A100A11820753
:1000E000A034053440340B3400340F34E034103481
:1000F0000A108A100A118207643470340A108A10B8
:100100000A11820700340034083407340A108A10B8
:100110000A11820720341C3480341634C03412345F
:100120001234103410340E3480340C3440340B3418
:100130003A340A340A108A100A1182070034003453
:1001400068340134D03402340A108A100A1182074C
:1001500010340E3480340C3410340E340A108A10EB
:100160000A11820710341034103410341034103453
:10017000103410340A108A100A1182073C344B34B0
:100180005A346934783487349634A5348C1EE62882
:100190001A088316E7006708033C031DD228C10133
:1001A000C001E4284108C10AA33E8400670880001A
:1001B000C00A41081C3C0318E428C10140081C3C4B
:1001C0000318E428C101C0018312C6288A110A124B
:1001D0002928C31600346400D21CF3285D13DD16F1
:1001E000DD15B0112529521CFA28E9205D17DD1212
:1001F000DD1125295219FE28D21D2529D21A0729D9
:10020000550B032907295508043C03181629521DCC
:100210000F295D080739063C031C0F29DD0AD21D92
:1002200016295D08073903191629DD03550B19290D
:10023000D50A5508043C03181F290230D5004C0884
:100240005D060739031925295D166400D21A2A298B
:10025000521E2B29D2018A110A1260296400521EF3
:1002600034295212D2164829043088005210881DB1
:10027000521424308800D210881DD21444308800D3
:100280005211881D521564308800D211881DD21574
:10029000D11D4D295208D304602953085202031D71
:1002A0005329D40A5729D401D5015208D300D21EAC
:1002B0005B29FC30D4005408FC3903196029EB2871
:1002C0008A110A1264292E29B201B101CC177208D1
:1002D000730403196F2972080319F303F203023040
:1002E000B006861C7629C60A0319C70A91018C102C
:1002F000B50AB51E83298230B50001080B19FF30FD
:10030000B40081010B1186110030B01801300139A1
:100310000319A2292908AA072A08633C0318992966
:100320006430AA02D6158716603088000815D112ED
:10033000A129D11EA129D611871260308800081585
:10034000D112A329D1168B108A110A122928B10FB4
:10035000AB29320FB200CC1FB129CC133708B8003B
:10036000B629B808031DB80BB62986158C108A115A
:100370000A12292864000130F5000B138B138B1B24
:10038000BE291F308805F5080319D32987164808A8
:1003900075050319CC298712071107152030880726
:1003A0000310F50DC329C0308B0400340730AD00B5
:1003B00085018601870104308900C801BA21C9017D
:1003C000BB01BC01D501D401CB01CA01DD01D301C0
:1003D0005308D200D101D701B001DC30DA0064004B
:1003E0005330F700F70BF2298A110A12352A8611C9
:1003F000B301B801B701B501B40100340B138B137D
:100400008B1BFF291F30880501308316D700D708C2
:1004100003191D2A831287125608831657050319DC
:10042000142A8312871683168312081108152030A8
:10043000880703108316D70D072AC03083128B0458
:100440000034BF3083168100831281010B113F30CD
:1004500083168500D1308600803087001B308800ED
:100460000914891409118312D629F72174309500D3
:10047000C63096000B309700313090008F018E010E
:10048000093083169F00813083129F000030F800EE
:100490000438920042308316920083120B168316A2
:1004A0008C14C03083128B04D130831686008312E3
:1004B000D601FE218A110A126A2A1A088316A3009D
:1004C0008312181218168316A30183128A110A12B6
:1004D0006B2A212A5D2ADC30DA008316C201A101D1
:1004E0008312D111831620108312CD018A150A16AA
:1004F0001E28E101E201ED01EB01EE01EF01F03018
:100500008316A005CA014A08073C031C8D2A6330E4
:100510004A0784008001CA0A832A83120034D6164F
:10052000FE2100348316D50803199F2A8312AD18C3
:100530009B2A83169F2A8F220714A12A83168312CF
:10054000071000348316D5080319AF2A83122D181B
:10055000AB2A8316AF2A8F228714B12A83168312FF
:1005600087100034AD138316D501831292228316AF
:10057000D5018312A22200340F308316DA055A08FF
:10058000093C0318C72A57305A07DB00CA2A303003
:100590005A07DB005B08640083120C1AD12A831609
:1005A000CB2A990000348316580ED9000F30D90594
:1005B0005908DA008312BC2283165808DA00831225
:1005C000BC220034D119FD2A443064000C1EE52AF7
:1005D0009900573064000C1EEA2A990083165508CA
:1005E000D8008312D32283165608D8008312D32250
:1005F0000A3064000C1EF92A9900003494138C11FF
:1006000083165708831293000230941B0E2B8C1D07
:10061000072B00308316111B01308312F8000034C1
:10062000831691159119122B77189112771C911638
:100630001116111A192B83121308F80000342C0D0F
:10064000F700F70DF70DF830F7051F08C7397704E5
:100650009F0064005330F700F70B2C2BAC08031DF0
:10066000312B2C0B3A2B86183A2B1F151F19362BC2
:100670001E08D7002C08023C031D682B1F151F19EC
:100680003F2B1E08D8005808143C0318532BD61AC9
:100690004B2BF00A502B7008063C031C502BF0012A
:1006A000AD1B532BF00A7008063C0318682BB222CE
:1006B0008F224F174F14CF144F151C308316D500BF
:1006C000831258088316D6008312E2220C30F00001
:1006D0002C08033C031D712B1F151F196D2B1E08C1
:1006E000AE002C08043C031D7A2B1F151F19762B16
:1006F0001E08AF002C08053C031DE02B83162208C2
:10070000D5006400640011141118842B9A30D700AE
:100710008312FE2201308316D7008312FE22831635
:1007200011151119912B11141118942B9B30D7000E
:100730008312FE220130F700102378088316D600BA
:1007400011151119A12B5608F800781BA92B64006C
:10075000822B11141118AA2B9A30D7008312FE2273
:100760008316D7018312FE22831611151119B62B99
:1007700011141118B92B9B30D7008312FE220130BF
:10078000F700102378088316A20011151119C62B43
:1007900001305507803AF7002208803A77020318A3
:1007A000D32BA20ADF2B01305502803AF700220832
:1007B000803A77020319DF2B031CDF2BA20383127D
:1007C000AC0A2C08053C0318E62BAC01640000348D
:1007D00010308316DA00F701FA01D70CD60C031C8F
:1007E000F72B5808F7070318FA0A5908FA07FA0C02
:1007F000F70CF90CF80CDA0BED2B831200345119BD
:10080000052C30308316DC07831283165C088312B4
:1008100003178D0083168C130C1483120C08831697
:100820000313DD005D08F800831200348316E30132
:10083000E101E0018030E200E4016408073C031CB0
:100840004B2C5E086205F700FA0177087A04031959
:100850002F2C5C08E0075D0803185D0FE1075C08BA
:100860000139F700FA0177087A0403193B2C620872
:10087000E3076208E3070310DD0CDC0C6308803C2F
:100880000318472C8030E302DC0A0319DD0A031049
:10089000E20CE40A1D2C6008F8006108F9008312DC
:1008A00000348316DB01201C9F2C5708DC008312C8
:1008B000FF2378088316DA005608073C0318652CD6
:1008C0000310D60CD50CDB0A5C2C5608DD0055084D
:1008D000DC00DF015A08DE00831216247908831633
:1008E000D9007808D8005908053C0318832CFF3A32
:1008F000031D7E2C58083D3C0318832C0310D90C93
:10090000D80CDB0A732C5908DD005808DC00DF0125
:10091000A430DE008312162479088316D9007808E3
:10092000D800DB080319992C0310D80DD90DDB036F
:10093000912C5808F8005908F900A42CA42C55084B
:10094000F8005608F900A42C8312003483165008CE
:10095000D7004F08D600D9011830D8008312E823F9
:1009600079088316D0007808CF00201CCA2C5008C4
:10097000D6004F08D5005108D700831251247908BA
:100980008316D3007808D2005208F8005308F90003
:10099000CF2CCF2C4F08F8005008F900CF2C831231
:1009A0000034F801F901F701FA0183165908031D13
:1009B000DC2C58080319F62C1030DA000310D60D81
:1009C000D70DF70DFA0D59087A02031DE92C5808C6
:1009D0007702031CF22C5808F702031CFA0359088B
:1009E000FA020314F80DF90DDA0BDE2C0000831265
:1009F0000034881C1B2D83165508053C031C032D51
:100A00000630D500D40183124C0870392F3C0318EE
:100A10001B2D8316550CFA00540CF900FA0CF90C36
:100A2000FA0CF90C1F30FA057908D4077A08031874
:100A30007A0FD5078312081E332D831654085504E8
:100A40000319322D550CFA00540CF900FA0CF90C6C
:100A5000FA0CF90C1F30FA057908D4077A08031844
:100A60007A0FD507831283165508D7005408D6008D
:100A7000D9011830D8008312D12479088316D50003
:100A80007808D4005508003C0318492DD501FF30E3
:100A9000D400540883123302031D532D8316D50846
:100AA00003195A2D8312831654088312B300FF30A2
:100AB000BC0083168312003483165108DD005008F1
:100AC000DC00DF012630DE0083121624790883164D
:100AD000D3007808D2005308DD005208DC00DF01A3
:100AE00083122E088316DE008312162479088316DB
:100AF000D3007808D2005108DD005008DC00DF0187
:100B00005930DE008312162478088316D20779083C
:100B10000318790FD3075308D5005208D400831265
:100B2000F92400344C087039303C031C9D2D831689
:100B30004B08023C031DBC2D83124C080739BA2018
:100B40008316CD0083124C080739403E8316CE0031
:100B5000D0014D08CF004E08D1008312A624790899
:100B60008316CF007808CE004F08D1004E08D00081
:100B700083125C25C72D831683124C087039203CE4
:100B8000031DC72D8316D501D4018312F924003427
:100B9000D119E22D8316CB01831292255708133CFD
:100BA000031CD72D8316CA080319E02D83120830C1
:100BB0008316D5003430D4008312F924E22D831635
:100BC0008312F7210034D030840000080319F72D78
:100BD0000330F800F701F70BEB2DF80BEA2D3C3052
:100BE000F700F70BF12D00000000800BE82D00341A
:100BF0000130C800BA210A308316D0008312E325E1
:100C00000310C80DC8080319062EFA2D8A110A12FE
:100C10001C2E8030C800BA210A308316D0008312FF
:100C2000E3250310C80CC8080319172E0B2EBA2190
:100C30008A110A122D2EF82D83164A088312C80035
:100C4000BA2104308316CB00FA30D0008312E3259A
:100C50008316CB0B242E8312092E00340230831608
:100C6000CA0083121B2606308316CA0083121B2675
:100C70008A150A164C2843080F39003C0318502ED9
:100C800083165508013C031C4F2E031D4B2E5408A0
:100C9000673C031C4F2E0130D5006830D40083120E
:100CA0008316540883124102031D5C2E83165508D7
:100CB000831242020319642E831655088312C00062
:100CC000831654088312BF00831655088312C2008E
:100CD000831654088312C100C3123D083F02031D4E
:100CE000752E3E0840020319752E003483165308F2
:100CF000DD005208DC00DF012630DE0083121624FE
:100D000079088316D5007808D40083122F08FF3C99
:100D10008316D6005508DD005408DC00DF015608B4
:100D2000DE008312162479088316D5007808D400D3
:100D30005308DD005208DC00DF015930DE00831269
:100D4000162478088316D40779080318790FD50775
:100D50005408F8005508F90083128A110A12BA2EB5
:100D6000861042088316D300831241088316D200EE
:100D70008312762E7908C0007808BF00450840022B
:100D8000031CD22E031DC82E3F0844020318D22E86
:100D900044083F02BD004008BE004508031C450F43
:100DA000BE02D52EBE010130BD0043080F39003C04
:100DB0000318E82E3E08013C031CE82E031DE42E18
:100DC0003D08673C031CE82E0130BE006830BD00C2
:100DD0003E088316D30083123D088316D200831287
:100DE0000B138B138B1BF12E83165308F300520841
:100DF000F200C03083128B0400348316C401C30197
:100E00000230D00050089A3C031C202F5008831257
:100E100003178D0083168C130C1483120C08831691
:100E20000313C3070318C40AD101C41BD10A03105A
:100E3000C30DC40D5108C3070318C40AD00A022FFA
:100E40008312003483162014A0142015A0158312D9
:100E500003178D0183168C130C1483120C08831650
:100E6000031344020319362F2010A01001308312FF
:100E700003178D0083168C130C1483120C08831631
:100E8000031343020319462F20102011023083124E
:100E900003178D0083168C130C1483120C08053C69
:100EA0000319582F831603132010A0118312031760
:100EB00003130034FD26222700345A278316200806
:100EC0000F390F3C03196C2F83125A278316200801
:100ED0000F390F3C03196C2F831200348316560808
:100EE00083126E020318782F831656088312EE00C1
:100EF0000034D6138316561C802F8312D617831600
:100F00008312FE210034543064000C1E842F99009B
:100F100083165608D8008312D32283165708D800A8
:100F20008312D3220A3064000C1E932F99000034E0
:100F30008316201CB92F83125119A22F303083162B
:100F4000D407831283165408831203178D00831667
:100F50008C130C1483120C0883160313D500550848
:100F6000643C0318B52F6430D5005508F800BC2F39
:100F7000BC2F6430F800BC2F831200346430831619
:100F8000D4008312982778088316D300FA015308F7
:100F9000D4007A08D500D701A030D6005508D90072
:100FA0005308D8008312E8237908FA007908F90079
:100FB000003483165008F8014F020318E22F4F083F
:100FC000F700EE2FF7010830D100CF0DF70D5008D4
:100FD00077020318F700F80DD10BE52F83128A155D
:100FE0000A12F72A4C0870393F3C0318FE2F4C08B0
:0E0FF00070395F3C031CFE2F0730AD0000344B
:1010000048088316D5008312C801F401C9134C089F
:1010100070392F3C031815285D080739F500F50ACB
:101020000310C80DC80AF50B1028CC1D1928480854
:10103000F404CF0803191F28C9174F08F4042D180A
:1010400023284130F404AD1827284230F404301C22
:101050002B28C9177416501E3028C9170630F404FF
:1010600043080F39013C03183E28C917F41705300F
:101070008316D6008A1183126E278A157408C80455
:10108000491D5228D01849284C087039603C031D6E
:101090005228D61F51288316D6018A118312792728
:1010A0008A155B28D61B5B2801308316D6008A116F
:1010B000831279278A15491E5F287408C8068A1189
:1010C000BA218A1548088316550203197528C208E3
:1010D000031975282030D600831248088316D700DC
:1010E0008A11831283278A15831683128A150A129E
:1010F0003F2964000C1D3C290C110130C91B043030
:10110000C907C912BB0A3C0FBC00F030891C861C01
:10111000BB055408073C03188F28D50ADD17981C17
:101120009428981018121816CE0803199A28CE037E
:10113000CC159B28CC114A1C9E28DF0A4A1CAE28DD
:10114000CA1CAE284A1DAE28CA1DAE284A1EAE28AB
:10115000DE0AE00AEE080319AE28EE03F10ACA0F10
:10116000B3284B0FCB008A111F238A15861CBF287A
:101170000818BE28431EBD28C317BF284316B3084E
:10118000031DC6288611B701B8012A29B51BC92835
:101190002A29B5133C08093C031CD028BC0A2A297B
:1011A000BC013408043C031CE1283B1FDA28CF169D
:1011B000B017DC281030BB07FF30BC000230B7008E
:1011C0002A290F30BB05330FE8280130B7002A2940
:1011D00033083402031DED282A293308340203188A
:1011E0000829B7080319F528B70334083602031C89
:1011F0000329340836020A3C03180229B7080319E8
:101200000229B7030729370F06290729B70A222918
:101210003408330203182229370F0F291029B70A7F
:1012200036083402031C1E29360834020A3C03180F
:101230001D29370F1C291D29B70A2229B7080319B0
:101240002229B7033408B600B708031D2A29013044
:10125000B7002A29061E2E290C30CE005708FC3C68
:10126000031833295014501C3C295708F43C031C24
:101270003B2950103C29CC15D1193F290028640086
:1012800000344C0807398316CF004F08D000831272
:101290004C1E51297C087602031C51298316D00A62
:1012A000831283164F088A11831245208A158316EC
:1012B000D30050088A11831251208A158316D40056
:1012C0004F088A11831251208A15F80083165402A0
:1012D0005307CE008A118312BE278A157908831618
:1012E000D4007808D300540CD200530CD100D20C97
:1012F000D10CD20CD10C1F30D20583123A088316C0
:101300005202031CB529031D8D295108831239028D
:10131000031C8C298316B5298316D20CD10CD20C50
:10132000D10CD20CD10C1F30D20583123A0883168F
:10133000D700831239088316D6005208D900510805
:10134000D8008A118312D1248A157908FA00780806
:101350000A3CF7007908031C790FB0290030B12945
:10136000003CFA0077088316CE074E08F800831277
:101370000034EE08031DC1294C087039603C031D80
:10138000D5298316201BD429F5017508073C031CB9
:10139000D4296330750784008312570880005708EA
:1013A000EB00F50A8316C52983124C0870398316A1
:1013B000CA004A083F3C03182C2B4A085F3C031C18
:1013C0002C2B0730D500831261088316D6008A11B2
:1013D0008312E2228A155A0857020318F129570886
:1013E000DA006108003C03187A2A8316A01FFA2944
:1013F0001030FB291830831262078316CC00D50009
:1014000083125A088316D6008A118312E2228A15A3
:1014100005308316D500831262088316D6008A1120
:101420008312E2228A155A086B0203182C2AEB0A4F
:101430005A08C73C031C2A2A5A086B0203182A2A96
:10144000EB0A5A08953C031C2A2A5A086B02031817
:101450002A2AEB0A6B08DA006208E20A633E84007B
:101460005A0880008316A01B592A8312EB01F5014C
:101470007508073C031C582A633075078400000870
:101480008316CA004A0883126B020318562A831671
:101490004A088312EB0006308316D50083126B08CE
:1014A0008316D6008A118312E2228A15F50A382A99
:1014B000831683126B085A02031D772AF5017508FB
:1014C000073C031C6C2A6330750784006B0880009E
:1014D0006B08EC00F50A5F2A06308316D5008312EC
:1014E0006B088316D6008A118312E2228A155708E8
:1014F000DA00E101412178088316CA00A01BD42A32
:101500008312EF01F5017508073C031CC52A6B081F
:1015100083164A020318C22A4A0883126B028316F2
:10152000CB0063307507840000084B0203199F2A23
:10153000031C9F2A10308312EF07C12A83164A0C1E
:10154000F700F70C3F30F705770883126B02031999
:10155000C12A031CC12A83164A0CF700F70C3F303E
:10156000F705770883126B028316CB00633075078B
:10157000840000084B020319C22A031CC22A8312EA
:10158000EF0A8316F50A8312832A6F082F3C03188B
:10159000CD2A8316A0178312E2018316A01FD32A37
:1015A0008312ED0A83162C2B83126208073C031862
:1015B000152BF5017508073C031C082B63307507D4
:1015C000840000088316CB004A0DCC00CC0DFC3003
:1015D000CC0509307507F7000310F70C7708CE002B
:1015E0004C08CF004E08D0008A118312D92F8A15DB
:1015F00078086B0283164B020319052B031C052B7D
:10160000A0132013831230138316F50A8312DA2AEB
:101610008316A01F132B8312CF144F158316201788
:101620008312301383162C2B8312633075078400CA
:1016300000088316CB0003104A0D4B0203192C2B14
:10164000031C2C2BA01F2C2B8312CF144F15831699
:10165000201783123013831683126208073C031885
:10166000322BE2018A150A128F2B8316201C422B83
:101670004F08DC008A118312FF238A15780883162D
:10168000D200442B4D08D2005208F80083128A156C
:101690000A12A42BC31E512B861C512B8A11B02673
:1016A0008A15861C842BC31F722B8A11B0268A15BB
:1016B000F030C3054708C5004608C4004508133C80
:1016C00003186D2BFF3A031D692B4408503C031887
:1016D0006D2B1430C5005030C400C701C601C313C0
:1016E0004312832BF208031D832BF308031D832B66
:1016F0008A11B0268A1543080F39063C031C822B39
:10170000C30A832BCF17FF2BF208031DFF2BF3080F
:10171000031DFF2BCF19FF2BC31AFF2BB9298614EA
:101720004C0807398A11AE208A158316CB00831224
:101730004C080739503E8316CC00CE014B08CD0033
:101740004C08CF008312352B7808B9070318BA0A62
:101750008A11BE278A157908FA007A083A02031C12
:10176000C12B031DB72B78083902031CC12BD014E1
:101770008A11BE278A157808B9027908031C790FE7
:10178000BA02E10AC508031DCD2B4408633C031CC3
:10179000CD2B0230C5008A30C400431BEA2B031056
:1017A000440D8316CA008312450D8316CB004B08E7
:1017B000D3004A08D20083120B138B138B1BDD2B33
:1017C00083165308F3005208F200C03083128B04D2
:1017D0004313FF2B45088316D30083124408831656
:1017E000D20083120B138B138B1BF32B831653081E
:1017F000F3005208F200C03083128B0443138A15A1
:101800000A1680283B080F390C3C0318082C4F158A
:101810003010081A3014081A0F2CDE01192C8A1106
:10182000F2278A150C308316D6008A1183126E2790
:101830008A155E08E03C0318202C4F16E130DE00CC
:10184000881C2E2C8A11F2278A15CF151830831682
:10185000D6008A1183126E278A15352C5F08B33C97
:10186000031C352C3011CF11DF015F08B33C031886
:101870003D2C3015CF15B430DF004F1F402CB01574
:1018800000348316201C772C6830CE008312511947
:101890004D2C30308316CE07831283164E088312E8
:1018A00003178D0083168C130C1483120C088316F7
:1018B0000313CC0001304E07CF00831203178D00B5
:1018C00083168C130C1483120C0883160313CD009B
:1018D0004C08823C03186E2C8230CC0028304C0718
:1018E0004D020318762C28304C07CD007B2C5A3043
:1018F000CC00AA30CD008312D119EF2C5708133C2D
:10190000031C932CA9014C087039203C0319922C1C
:101910004C080739F700F70DF70DFC30F70577088D
:10192000193EA900EF2C570883164C02031C9D2C6E
:1019300019308312A900E92C83164D08831257022F
:10194000031CA52C6430A900E92C83164C088312D3
:101950005702FA018316CF007A08D000D7014B3026
:10196000D6005008D9004F08D8008A118312E82306
:101970008A1579088316D1007808D0004C084D02EA
:10198000FA01D2007A08D3005108D7005008D600D7
:101990005308D9005208D8008A118312D1248A151D
:1019A00079088316D2007808D10019305107CA008F
:1019B0005208CB000318CB0ACB08031DE32C4A08BE
:1019C000643C0318E62CCB016430CA004A08831239
:1019D000A9002908183C031CEF2C1930A9008A150E
:1019E0000A16862883162108CC004D108312D119BF
:1019F000672E8316A108031D022D2208CA00CB0101
:101A0000A01BCB0A210B0B2D831257088316CA008B
:101A1000CB01201BCB0A2108023C031D1B2D831286
:101A20002E088316CA00CB018312301F1A2D83168D
:101A3000CB0A831283162108033C031D272D831232
:101A40002F088316CA0083126D088316CB00210865
:101A5000043C031D372D831234088316CA00CB01C2
:101A60008312501C362D8316CB0A8312831621084D
:101A7000053C031D432D831237088316CA008312C9
:101A800062088316CB002108063C031D4F2D8312EC
:101A900029088316CA0083126B088316CB0021081D
:101AA000073C031D5B2D831248088316CA0083126E
:101AB00061088316CB002108083C031D672D8312A3
:101AC0002D088316CA0083126C088316CB002108E8
:101AD000093C031D702D83124C088316CA004D1457
:101AE00021080A3C031D792D83123A088316CA0087
:101AF0004D1421080B3C031D822D831239088316D7
:101B0000CA004D1421080C3C031D952D8A11831227
:101B1000BE278A1579088316CF007808CE004F08B3
:101B2000CA0083126E088316CB0021080D3C031DEA
:101B3000A12D8A118312BE278A1578088316CA0040
:101B40004D1421080E3C031DAA2D8312450883164F
:101B5000CA004D1421080F3C031DB62D8312440802
:101B60008316CA00831260088316CB0021080F3C3D
:101B70000318BE2D83123E088316CA002108113CAB
:101B8000031DC62D83123D088316CA002108123C8E
:101B9000031DCC2D2008CA002108133C031DD42DA1
:101BA00083124F088316CA002108143C031DDC2D44
:101BB00083125D088316CA002108153C031DE42D1D
:101BC000831258088316CA002108163C031DEC2D09
:101BD00083125F088316CA002108173C031DF42DE9
:101BE00083125E088316CA002108183C031DFD2DD0
:101BF000831233088316CA004D142108193C031DB3
:101C0000072E8312412178088316CA004D1421083B
:101C10001A3C031D0E2E4908CA004D1421081B3C16
:101C2000031D152E4808CA004D1421081C3C031D35
:101C30001E2E831240088316CA004D1421081D3C35
:101C4000031D272E83123F088316CA004D14210856
:101C50000F3C03184B2E2108173C031C4B2EA01BD6
:101C6000392E8312301F362E8316392E08308316F4
:101C7000CC07210883126207F03E0739633E8400D7
:101C800000088316CB00210883126207F03E073953
:101C9000103E8316CC0764004D18572E4C08D50013
:101CA0004B08D6008A118312E2228A158316210876
:101CB000D6004A08D7008A11831283278A15831613
:101CC000A10A21081D3C0318662EA10183128A1562
:101CD0000A169D2883164008F80083128A150A16F2
:101CE000A4288316D301C008031D7D2ED30F7C2E9C
:101CF00064000030F800A22E732EC00803199F2E36
:101D000040084102031C872E40084102D4004108CC
:101D10004002031D8B2E400841020318932E4008F9
:101D20001D3C4107D4005408F800A3307807840014
:101D30000008D300C0035308F800A22EA22E0030E2
:101D4000F800A22E83120034831653082F3C031888
:101D5000B02E5308393C031CB02E30305302D4004F
:101D60005308403C0318BC2E5308463C031CBC2EB1
:101D7000413053020A3ED4005408F8008312003464
:101D8000712678088316D10083127126780883168D
:101D9000D2005108D3008312A426780E8316D000F7
:101DA000F030D0055208D3008312A4267808831699
:101DB000D0075008F80083120034831652088312AB
:101DC0004A078316D30083124B088316D4000318E6
:101DD000D40A83124B0883165402031CFD2E031DE4
:101DE000F92E530883124A02031CF82E8316FD2E87
:101DF0008316831279208316E92E831200340B1385
:101E00008B138B1B002F1F308805803088075110E3
:101E10008819511420308807D1108819D114203026
:101E20008807511188195115C0308B0400348A116C
:101E3000B0268A1506308316D2008312DD26DD1205
:101E4000DD134F1F252F0030262F5A308316D00068
:101E50008312D0118316D0080319812FC001C1014C
:101E6000831202243C308316D10083128818422F3B
:101E7000CF193C2F301C562F8316201F412F831261
:101E8000562F83128316D108031D482F8312562F15
:101E9000C001C10183128612022401308316D200D0
:101EA0008312DD268316D103352F83128316D108C2
:101EB000031D5F2F8312B0158316812F632F8312AA
:101EC00086164F1383160130D2008312DD26FF26BB
:101ED0000030511C01308316D20000308312D0191B
:101EE0000130831652060319772FD0037E2F8312F9
:101EF000D0197C2FD0157F2F8316812F83122A2F84
:101F00008316831286128316D008031D8B2F83122B
:101F10004F17B015831650085A3CF7000310770C82
:101F20008312AB0000347008053C031C9E2F8A11FD
:101F3000B2228A15D6128A11FE218A150034073082
:101F4000AD008A118F228A1512308316D2008312B7
:101F5000DD2601308316D5008A11831292228A155C
:101F600012308316D2008312DD2658081D3C031C54
:101F7000BB2FAD102D118316D5018A118312922229
:101F80008A1501308316D5008A118312A2228A1580
:101F900012308316D2008312DD2658081D3C031C24
:101FA000D32F2D102D118316D5018A118312922261
:101FB0008A158316D5018A118312A2228A158A11E5
:101FC0008F228A15003401308316D5008A118312BE
:101FD00092228A1501308316D5008A118312A2221B
:101FE0008A150718F72F8718F72FAD13F82FAD179D
:021FF0000034BB
:102000000A128A1571260A168A1178088316CA00E0
:10201000433C031DEC290A128A15831271260A1605
:102020008A1178088316CB00573C031D3E290A12FB
:102030008A158312C0260A168A1178088316CC00E6
:102040000A128A158312C0260A168A117808831686
:10205000CD004C08F03E03183D29103E8312932A10
:102060008316CD08031D3528C2013D290A12FD261D
:102070000A1603178D0183160313440883120317EE
:102080008C0083168C130C15831203130B08F700B6
:102090008B138316031755308D00AA308D008C14D6
:1020A0008C1850280C117708831203138B0401300D
:1020B00003178D00831603134308831203178C0044
:1020C00083168C130C15831203130B08F7008B1364
:1020D0008316031755308D00AA308D008C148C1890
:1020E0006F280C117708831203138B040A1222271E
:1020F0000A1683163D29D11578308316C2003D2972
:10210000D111CB01CA0183163D2983164D088312D4
:10211000C8000A12BA210A1683163D290A128A1526
:1021200017270A168A1183163D290A128F220A16CA
:1021300083163D290A128A1593270A168A118316D7
:102140003D2983164D088312A90083163D29831665
:10215000CF014D08CE004F08D7004E08D600D90158
:102160001830D8000A128312E8230A167908831659
:10217000D1007808D0005108D5005008D4000A12C8
:102180008312F9240A1683163D290A128A159F27FD
:102190000A168A110A128A1593270A168A118316BB
:1021A0003D2983164D0ED000F030D005D5015008E2
:1021B000D4000A1283123B260A1683163D290A12FE
:1021C000B0260A16C31EE6282130E7280130C300D6
:1021D0000A12E9200A1683163D290A128A15E327F6
:1021E0000A168A1182308316C200493064008312B5
:1021F0000C1AFC288316F62899000A3064000C1E7D
:10220000FE28990083163D2983164D088312D200BB
:10221000DD1783163D2983164D08C43C031D3B2959
:10222000CD014D08133C031C3229D6010A1283123A
:1022300079270A1632308316D0000A128312E3255A
:102240000A1601308316D6000A12831279270A165D
:1022500032308316D0000A128312E3250A16831641
:10226000CD0A112983120B138B138B1B34293729A9
:102270008A01002883163D2983168A2A4B08523C7E
:10228000031DEC290A128A158312C0260A168A1128
:1022900078088316CC00CD014C08F13E0318EB29D9
:1022A0000F3E8312A72AD3018316EB295308831606
:1022B000CD00EB290A128A15FF260A168A11831609
:1022C000CD018312511C672983164D148312D11C32
:1022D0006C298316CD148312511D712983164D1557
:1022E0008312D11D76298316CD158312081C7B29F4
:1022F00083164D168312881C80298316CD168312EF
:10230000081E852983164D178312891C8A29831676
:10231000CD1783128316EB298316CD018312861CF9
:10232000942983164D148312861E99298316CD1481
:102330008312D61E9E2983164D158312D61FA329FC
:102340008316CD1583128316EB2983162208CD0040
:10235000EB2934088316CD00EB298316CD018312B7
:102360002D1CB52983164D148312AD1CBA29831672
:10237000CD148312061EBF2983164D1583128316B2
:10238000EB29450CFA00440CF900FA0CF90CFA0C94
:10239000F90CFA0CF90C79088316CD00EB290530FD
:1023A0008316CD00EB292E088316CD00EB292F08CC
:1023B0008316CD00EB2902308316CD00EB290630C1
:1023C0008316CD00EB298316CD01EB29213083162E
:1023D000CD00EB298316652A4A08413C0319F429EC
:1023E0004A084D3C031D642A0A128A15831271267D
:1023F0000A168A1178088316CB004B08573C031D38
:10240000462A0A128A158312C0260A168A117808EB
:102410008316CC000A128A158312C0260A168A1166
:1024200078088316CD004A08413C031D452A4C0814
:10243000831203178D00831603134D0883120317AD
:102440008C0083168C130C15831203130B08F700F2
:102450008B138316031755308D00AA308D008C1412
:102460008C18302A0C117708831203138B048316FF
:102470004C08831203178D0083168C130C148312DF
:102480000C0883160313CD00452A652A4B08523CDD
:10249000031D642A0A128A158312C0260A168A119D
:1024A00078088316CC004A08413C031D632A4C0877
:1024B000831203178D0083168C130C1483120C08DF
:1024C00083160313CD00652A8D2A4A0864008312FF
:1024D0000C1A6C2A8316662A990083164B0864002E
:1024E00083120C1A752A83166F2A990083164C08DA
:1024F000D8000A128312D3220A1683164D08D80078
:102500000A128312D3220A160A3064000C1E852A8E
:10251000990083160130F8008F2A0030F8008312EA
:102520008A150A16AA280A108A140A118207302866
:1025300036287B28802885288E2895289A28A12847
:10254000A728C528D128DF28ED2804290B290A103F
:102550008A140A118207532956295A298C29A52938
:10256000A929AD29C129CF29D329D729DB29DF29D9
:10257000E329E629CF01BB013011BC01C31EC22AE9
:102580002130C32A0130C3000A128A1502240A1618
:102590008A110034CD015D17DD11DD12DD138A11C2
:1025A0000A16DB2A8316201FF72A10308312CC006C
:1025B000CF144F15CA2A301BF82A0A12E9200A162E
:1025C0000A128A1517270A168A1186162B088316EF
:1025D000D2000A128A158312DD260A168A11861283
:1025E00030178316A01320130130F800FB2A831242
:1025F0000030F800831683128A150A16D62883162F
:102600004A0883124A078316CB0083124B088316AD
:10261000CC000318CC0A83124B0883164C02031C0F
:10262000232B031D1B2B4B0883124A02031C1A2B5E
:102630008316232B83160A128A15831279200A1611
:102640008A1183160B2B83128A110A163B2BCB019E
:10265000CA01CF1B462BC31B462BC3134316CB0803
:10266000031D452B4A08773C031C452B013083167C
:10267000CA008312FF2AC31F3E2B452B8614DD1F81
:10268000442BDD1E442B452B2F2B86108A150A1652
:1026900022290A128A1517270A168A110A12792284
:1026A0000A16CB01CA013730AD00D01C5B2B473076
:1026B000AD00D010782B5730AD000A12BE270A1695
:1026C0007908FA007A083A02031C762B031D6C2B5A
:1026D00078083902031C762B0A12BE270A167808DE
:1026E000B9027908031C790FBA02782BBA01B90133
:1026F0006730AD0000344D08013C0318832BCF1424
:102700000130F800A22B301D8A2B0730AD000130BC
:10271000F800A22B4F08F739403C0318972B4F08BD
:10272000F739433C031C972B0030F800A22B4F08CD
:10273000F7390319A02B0730AD000130F800A22BA8
:102740000030F800003420308316E600E201E30197
:10275000E401E5015D08FA005C08F9005B08F80097
:102760005A08F7000310771CC32B5E08E2075F08C6
:1027700003185F0FE30760080318600FE4076108A0
:102780000318610FE507E50CE40CE30CE20CFA0C0E
:10279000F90CF80CF70CE60BB22B83128A110A160F
:1027A0006B2CF701F801F901FA018316E201E3014C
:1027B000E401E501610860045F045E040319102C64
:1027C0002030E6000310DA0DDB0DDC0DDD0DE20D2F
:1027D000E30DE40DE50D61086502031DF92B6008AA
:1027E0006402031DF92B5F086302031DF92B5E08C9
:1027F0006202031C0A2C5E08E2025F08031C5F0FE2
:10280000E3026008031C600FE4026108031C610F0F
:10281000E5020314F70DF80DF90DFA0DE60BE22BA6
:102820000000E230840083128A110A16832C83167A
:102830005308C9005208C800831250126F08023CA6
:1028400003183A2C4C087039403C031D3A2C83166F
:102850005308DD005208DC00DF016230DE000A129E
:10286000831216240A1679088316D3007808D2003A
:10287000831250168316201CA82C5408DC000A1260
:102880008312FF230A1678088316D900D908031D7E
:102890004B2C0130D900D801D7015308D60052087B
:1028A000D50003105708D8005608D7005508D600A1
:1028B000D501D60DD70DD80D5808DD005708DC001E
:1028C0005608DB005508DA00E101E001DF01643061
:1028D000DE008312A32B7A088316D8007908D7006C
:1028E0007808D6007708D5005808DD005708DC00C6
:1028F0005608DB005508DA00E101E001DF01590864
:10290000DE008312D12B7A088316D8007908D7000D
:102910007808D6007708D5005608D5005708D600A5
:102920005808D700D8010310D80CD70CD60CD50CFA
:10293000D808031D9F2C5708003C0318A42CD8016D
:10294000D701FF30D600D5005608D3005508D20075
:102950005208F8005308F900831200348316500817
:10296000D3004F08D2005108D400831217247908ED
:102970008316D3007808D2005308D5005208D4003B
:102980000A1283123B260A1600347D080A127820A8
:102990000A168316CA00D0014A08CF005830D10069
:1029A0000A128312A6240A1679088316CC00780826
:1029B000CB004C08D1004B08D0000A1283125C25D2
:1029C0000A168316A01A072D01307D07F7000310A1
:1029D000F70D7708CB004B0A0A1283127E200A16E5
:1029E000FA0083164B080A1283127E200A16F8009A
:1029F0007A084B02031C062D031D022D78084A029B
:102A0000031C062DFD08031D062DFD0A83168312E7
:102A10008A150A162C2A8316CF01CE018312590873
:102A2000093C031C272D59080A3C8316D100D70105
:102A30005108D600D9012D30D8000A128312E8239C
:102A40000A1679088316CF007808CE00831240302A
:102A500083164E07D0004F08D1000B3003180C30FE
:102A6000D10783122D1D372DFA0100303A2D023087
:102A7000FA001C3083165007CC005108CD007A08AC
:102A800003187A0FCD074D08D6004C08D5005B30EF
:102A9000D7000A12831251240A1679088316CD0032
:102AA0007808CC004A08CC074B0803184B0FCD0719
:102AB0004C08F8004D08F900831200340A128A15F8
:102AC0009F270A168A110A128A15E3270A168A1105
:102AD0008A150A16DD2A4F08F73943398316CF00C5
:102AE0004F08433C031D7B2D1C30CD002030CC0013
:102AF0004930CE00902D03107E0DD000500A0A12EE
:102B000083126C200A16FA00831650080A128312E8
:102B10006C200A168316CC007A08CD005930CE00FE
:102B20004D08D3004C08D2004E08D400831217245D
:102B300079088316CB007808CA004F08423C031975
:102B4000A52D4F08413C031DB52D4B08DD004A085B
:102B5000DC00DF01AA30DE000A12831216240A16F6
:102B600079088316CB007808CA004B08D5004A08BC
:102B7000D4000A1283123B260A1600344C08073987
:102B80008316CA0083124C1ECF2D8316CA08031960
:102B9000CE2D76087C02031CCE2DCA038312EE08CC
:102BA000031DF22D83164A080A12831251200A16B9
:102BB0008316CB00A21BE72D2208003C0318E72D4B
:102BC000220CF700F70C3F30F7057708E82D0030AE
:102BD0004B07831257020319EF2D0318F22D013012
:102BE000F800F42D0030F8008A150A16002C831620
:102BF000201C242E6330CA0083125119032E30305A
:102C00008316CA07831283164A08831203178D009E
:102C100083168C130C1483120C0883160313CB0039
:102C2000CB08031D192E83124C0807398316CB00DD
:102C30001A2ECB034B08073C0318202E0330CB0081
:102C40004B08F800272E272E0330F800272E83127A
:102C50000034FF308316CC00CB01CA014A08073C80
:102C6000031C452E63304A0784000008CD004C0841
:102C70004D0203183D2E4D08CC004D084B020318A1
:102C8000432E4D08CB00CA0A2E2E4C08CB027C08DE
:102C9000CA008312501C512ED030F8000230F900C7
:102CA000932E83164B08053C03185E2E1030F80057
:102CB0000E30F9008312932E932E831676087C0231
:102CC00003188D2E0A128312BE270A16790883165E
:102CD000CF007808CE004F0CD1004E0CD000D10CA4
:102CE000D00CD10CD00C1F30D10583123A088316BA
:102CF0005102031C8D2E031D852E500883123902AC
:102D0000031C842E83168D2E83167030F800083035
:102D1000F9008312932E932E83163830F800043076
:102D2000F9008312932E00346B08570203189A2E71
:102D300057089B2E6B088316CD00CA010830D500BA
:102D400083126C088316D6000A128312E2220A1636
:102D500009308316D5004D08D6000A128312E222EC
:102D60000A167C0876020318B72ECC0AF60A7608F3
:102D70007C020318ED2ECC03F60362088316CF0005
:102D8000CF08031DC52E0830CF00CF034F08CE005B
:102D9000CE08031DCD2E0830CE00CE0363304E0783
:102DA00084000008D10063304F0784000008D2007F
:102DB000510852020318EC2E52085102CA00F501C4
:102DC0007508073C031CEC2E6330750784004A0825
:102DD00000028000F50AE02E83126C0883164D0273
:102DE0000318372F4D0883126C028316CA00CC01DA
:102DF000F5017508073C031C0A2F63307507840032
:102E00000008D1004C0851020318082F5108CC00CB
:102E1000F50AF92E4D084C020318102FCA01192F7C
:102E200083126C0883164C020318192F4D084C02AC
:102E3000CA00F5017508073C031C2D2F6330750788
:102E4000840000084A0203182B2F633075078400A2
:102E50004A0800028000F50A1A2F83126B088316B5
:102E60004A020318372F4A088312EB0283164D08D3
:102E700083126C020318612F6C0883164D02CA007E
:102E8000F5017508073C031C572F63307507840054
:102E90000008D3004A08FF3C53020318552F633043
:102EA000750784004A0800078000F50A412F4A0888
:102EB000FF3C83126B020318612F83164A088312AA
:102EC000EB070A308316D5004A08D6000A1283128F
:102ED000E2220A1683164D088312EC000034831692
:102EE0005108C23C0318762FC330D100DD015108D0
:102EF000DC00DF01A430DE000A12831216240A1659
:102F000078088316D1005008DD004F08DC00DF018F
:102F10005108DE000A12831216240A1679080034BA
:1030000084011F30830540308316990026309800D4
:103010009030831298001830831693002830831262
:1030200094008316941714131F149F141F159F11D7
:1030300007309C000A128A118312692A0A168A151F
:10304000B201B101CC01BA01B901CF01DE01DF014A
:10305000E001F001D0010A128A1179220A168A15BC
:103060008316A001F6017608063C031C40280A12CC
:103070008A1183121F230A168A15F60A831633282B
:1030800064000130CA000A128A118312C8250A1688
:103090008A150A128A112E2E0A168A150530C500C5
:1030A0001430C400C701C6011C308316D50020307F
:1030B000D4000A128A1183123B260A168A150A12B4
:1030C0008A11B0260A168A15C31E6828213069287D
:1030D0000130C3000A128A11E9200A168A150A1261
:1030E0008A115D270A168A158316C001C1018C1644
:1030F0008312981718160A1279200A160A124A2BF8
:103100000A160A1202240A160A12412C0A16F11C87
:10311000A228F10A8316C2080319A0284208793CA4
:10312000031D99280A128A118312B2220A168A15DF
:103130008316C2030A128312F22C0A16A2288316DF
:103140008312D1110A126A2E0A16F8080319B72839
:103150008A1100288A15F8080319B728831642082F
:10316000773C031CB5287830C20083127B28710895
:10317000F03C0318C128F1010A128A115D270A16D2
:103180008A15D11DC4287B28DD1FD4285D1FD428B3
:10319000DD138A11BA228A154C082F3C0318D12856
:1031A0000429B01DD42804298A11D22A8A15F808C6
:1031B0000319DB2804294C0870390319F528103A43
:1031C00003192B29303A03197629103A0319E829F3
:1031D000703A0319BA2B103A0319BA2B303A031973
:1031E000E02C103A0319252E252ECB08031DFC28B0
:1031F0004A080B3C0318252E5708093C03180129DF
:103200004F140429252ECF145D1B0D2930190D29CB
:103210004F08F739031D0D29CF145D131030CC0072
:103220000A128A11B2220A168A15AD1F1D290A1226
:103230008A118F220A168A1520290A1293270A1644
:103240008A11272B8A150A128A11E9200A168A1573
:10325000CB01CA01DD010730AD00DD1F3229DD1EC3
:1032600032298E29D61E42294B08003C03184229D8
:10327000FF3A031D3F294A08683C031842290A12F5
:1032800093270A1601308316CA000A128A11831284
:10329000C8250A168A154B08153C031C5629031D20
:1032A00055294A08173C031C5629252E5708133C5C
:1032B00003185B29252ED61E5E29252E2030CC0032
:1032C000B0196A29301B6A298A1149238A158A1183
:1032D00049238A15D1196F290A1293270A160A124F
:1032E0008A11F7210A168A15CB01CA01DD1A8B292A
:1032F000DD118316CB010A128A11831292250A1658
:103300008A152A30CB003030CA000A128A11B22244
:103310000A168A15252EDD1F252E3013501283160E
:103320002012A012DC308312DA00DF018316C20102
:103330008312D111CD01B001CC010730AD0083164D
:10334000CB010A128A11831292250A168A150A12D3
:103350008A11B2220A168A150A128A11E9200A165F
:103360008A158A11BA228A1583162012A012DC301F
:103370008312DA00DD1EBD29DD15CD0A501EC229DB
:103380000430CD003030CC000330FD00FD080319BF
:10339000D1298A1149238A15B01DCF29CD0AFD03F1
:1033A000C629DD12DD13CB01CA01FD01FE01D113D7
:1033B0008A117B238A15F808031DE2295D1BE22987
:1033C000B01DE6295D1BE529CF140429CB01CA01F4
:1033D0008316A0138312AD1FFD298316201EF22928
:1033E0008312FD291C30D5002030D4000A128A1126
:1033F00083123B260A168A151E2A03107E0D831699
:10340000CA004A0A0A128A1183126C200A168A1507
:10341000FA0083164A080A128A1183126C200A16CF
:103420008A158316CB007A08CC00D0004B08CF0059
:103430005930D1008A118312AE248A154C08F8390C
:103440008316CA00201E262A0130272A00304A0788
:103450008312CC008A11C52C8A15AD1F612A233036
:103460005A0757020319612A031C612A8316201A7E
:10347000622A201683122D1D402AFA010030432AA9
:103480000230FA001C30D03E8316CA007A08CB0006
:10349000023003180330CB074B08D6004A08D5008A
:1034A0005B30D7000A128A11831251240A168A153A
:1034B00078084A07DB004B08DC0079080318790F0D
:1034C000DC078316201A712A0430CB005C30CA0056
:1034D0008A1183120B258A157908DC007808DB0035
:1034E000831683125C084B02031CA82A031D7C2A46
:1034F0005B084A02031CA82AAD1F862A0A128A11F9
:10350000B2220A168A158316A01283125A305B075C
:10351000F8005C08FA000318FA0A7A084B02031C48
:10352000A72A031D972A78084A02031CA72AD61E39
:103530009F2A0A1293270A16DD12DD13A72ADD1F20
:10354000A72ADD1EA72A0A1217270A16252EED2AFA
:103550004B08033C0318ED2AFF3A031DB32A4A081F
:10356000373C0318ED2A4B08043C031CED2A031DCD
:10357000BD2A4A08973C031CED2AD61AC42A0A120F
:103580008A118F220A168A154B08033C0318ED2A6C
:10359000FF3A031DCF2A4A085B3C0318ED2AAD1BF6
:1035A000ED2A2D18D52AAD1CED2A8316A01EDA2A85
:1035B0008312ED2A8A1183125E2D8A155708DA00CC
:1035C0005A08963C0318E62A9630DA008316220839
:1035D0008312D9008A116B258A158316CB010A1232
:1035E0008A11831292250A168A158A117B238A155D
:1035F000F8080319FC2A042964007E08023C031C15
:10360000282B01307E07F7000310F70D770883168B
:10361000CB004B0A0A128A11831260200A168A15FF
:10362000FA0083164B080A128A11831260200A16C8
:103630008A15F8007A084B02031C282B031D242B43
:1036400078084A02031C282BFE0A8A116B258A156A
:1036500007308316CB000830CA008A1183120B256D
:103660008A157908FA004B087A02031C3F2B031DC8
:103670003D2B4A087802031C3F2BE001252E8316C0
:10368000A21B492B2208003C0318492B0310220CD3
:103690004A2B00303C3E831257020319512B03186A
:1036A0005C2B6008043C03185B2B4D08013C031C99
:1036B0005A2B9D2903296B2B5708FD3C031C622BB9
:1036C000E0016B2B6008383C03186B2B4F1530154D
:1036D000B430DF0004290B308316CB004030CA0021
:1036E0008A1183120B258A157908FA004B087A0291
:1036F000031C812B031D802B4A087802031C812B9D
:10370000252E02308316CB000A128A1183129225CD
:103710000A168A150C308316CB00A830CA008A110D
:1037200083120B258A157908FA004B087A02031CCC
:10373000A02B031D9F2B4A087802031CA02B252ECB
:10374000CB01CA015330CC0083162012F601760853
:10375000073C031CB42B63307607840083125708A0
:103760008000F60A8316A72BFF308312DA00EC01E3
:103770006400252E01308316CB000A128A118312B1
:1037800092250A168A154C080739F7000310F70D21
:1037900077088316CB004B0A0A128A1183128620FF
:1037A0000A168A15FA0083164B080A128A11831228
:1037B00086200A168A158316CC007A08CD0083125B
:1037C0004C080739483E8316CE004D08D0004C08FF
:1037D000CF004E08D1008A118312AE248A15DD1F56
:1037E000F72BDD1EF72B0A1217270A16252E8A1132
:1037F0007B238A15F8080319FE2B04298A11BE2D94
:103800008A15F8080319202C8316A01B0D2C83128F
:103810006F080F3C0318152C83168312CF144F1515
:103820008316201783123013D4286008043C031831
:103830001F2C4D08013C031C1E2C9D2903292E2CF6
:103840005708FD3C031C262CE0012E2C6008383C58
:1038500003182E2C4F154F16301404294C08073925
:10386000F6005D080739FC00D01C482C1730AD006D
:103870008A11F7258A1578087602031D422C4C1A06
:10388000422CA62C8A11F7258A157808FC004B2CAF
:10389000CC1D4B2CFC0164008316A01F522C8312FC
:1038A000252E831683124C1E822CEC08031D672CD8
:1038B0005708EC000B308316D50083126C08831672
:1038C000D6000A128A118312E2220A168A157C088F
:1038D00076020319802C8A1129268A157908FA00A4
:1038E0004B087A02031C7C2C031D7A2C78084A02B0
:1038F00003187C2C252E7F2C8A1194268A15812C66
:103900008A2C882C7C087602031D872C252E8A2C75
:10391000CB01CA014C167C087602031DA32C8A1128
:1039200029268A157908FA007A084B02031CA32C71
:10393000031D9E2C4A0878020318A32C8A11942692
:103940008A154C12EC015D12DD13252ECB01CA0144
:10395000FD01FE01D113831620168F308312CC0592
:103960006030CC0451128316C701C60183120B13B9
:103970008B138B1BB82CF301F201C0308B040310A6
:103980007E0D8316CA004A0A0A128A118312A420E5
:103990000A168A15FA0083164A080A128A11831237
:1039A000A4200A168A158316CB007A08CC00D00012
:1039B0004B08CF006130D1008A118312AE248A15E2
:1039C00001308316CB000A128A11831292250A163F
:1039D0008A155D080739FC008A11F7258A157808D1
:1039E0000A128A11BA200A168A158316CB00D00152
:1039F0004B08CF006030D1000A128A118312A6242E
:103A00000A168A1579088316CD007808CC004D086F
:103A1000D1004C08D0000A128A1183125C250A16C4
:103A20008A157E08013C031C7B2D01307E07F700C0
:103A30000310F70D77088316CB004B0A0A128A1180
:103A400083129A200A168A15FA0083164B080A1266
:103A50008A1183129A200A168A158316CC007A08D6
:103A6000CD006230D4000A128A11831298270A16F8
:103A70008A1578088316CE004D08D0004C08CF0078
:103A80004E08D1008A1183126F278A157908FA002F
:103A90007A084B02031C7B2D031D522D78084A0225
:103AA000031C7B2DFE0A7E08023C031D5A2D831643
:103AB0002012831203107E0D8316CA004A0A0A12CE
:103AC0008A118312A4200A168A15FA0083164A085E
:103AD0000A128A118312A4200A168A158316CB00B3
:103AE0007A08CC00D0004B08CF006130D1008A1199
:103AF0008312AE248A158818812DCF19812D301C90
:103B0000962D511E8C2D831647088312CB008316E9
:103B100046088312CA00952D51164B088316C7001C
:103B200083124A088316C6008312252E51126400A0
:103B300062308316D4000A128A11831298270A165B
:103B40008A1578088316CA000430D000B030CF0040
:103B50004A08D1008A1183126F278A157908FA0062
:103B60007A084B02031CF72D031DBA2D78084A0270
:103B7000031CF72DD11BF72DD1172730AD000A12EA
:103B800017270A160A128A1179220A168A15CB01FA
:103B9000CA013730AD00D01CD12D4730AD00D01058
:103BA000F22D5730AD000A128A11BE270A168A1567
:103BB0007908FA007A083A02031CF02D031DE42D5F
:103BC00078083902031CF02D0A128A11BE270A1642
:103BD0008A157808B9027908031C790FBA02F22D08
:103BE000BA01B9016730AD007730AD00CD01623068
:103BF0008316D4000A128A11831298270A168A158E
:103C000078088316CA000530D0002830CF004A0853
:103C1000D1008A1183126F278A157908FA007A0871
:103C20004B02031C242E031D192E78084A02031C84
:103C3000242ECB01CA010A1293270A168F30CC0515
:0E3C40004C174C080739F600252E7B28630030
:02400E00763FFB
:084000000400030000000200AF
:00000001FF
;PIC16F877A
