:020000040000FA
:1000000000008A150A16882EFF00030E8301A10046
:100010000A08A0008A010408A2007708A300780853
:10002000A4007908A5007A08A6007B08A70083131E
:1000300083120B1E1D288B183C288C308400801ED8
:1000400023288C1A3F288C308400801C29288C1887
:100050004228220884002308F7002408F800250815
:10006000F9002608FA002708FB0020088A00210E64
:100070008300FF0E7F0E09008A110A1296298A1149
:100080000A12FA288A110A12DB290A108A100A11A8
:1000900082071234133414341534163417341834D8
:1000A00019340A108A100A11820728342E34343485
:1000B0003A344134493451345A3464346E347834E7
:1000C0000A108A100A1182070234023403340334FE
:1000D00004340434043404340A108A100A118207E8
:1000E00000341E343D346E3496340A108A100A11DE
:1000F000820700340034A0340534D8340934A834DD
:100100000C340A108A100A118207643400348A34CD
:10011000023414340534083407340A108A100A11E2
:100120008207643469346E34733478347D347D34BA
:100130000A108A100A11820700340034383404345B
:1001400054340634703408348C340A34A8340C34F3
:10015000C4340E340A108A100A1182071C340B347E
:100160000A340934A13407346B3406347634053448
:10017000C0340434723403348C3402340A108A10CC
:100180000A1182070034003468340134D034023458
:1001900000340034003400340034003400340034BF
:1001A0000A108A100A118207C03404348C340234D5
:1001B000C0340434003400340034003400340034DB
:1001C000003400340A108A100A1182071D341D34CD
:1001D0001D341D341D341D341D341D340A108A1085
:1001E0000A1182073F344A3454345F346A34743419
:1001F0007F3484341A088316E9006908033C031D20
:100200000429C101C00116294108C10AA23E840087
:1002100069088000C00A41081D3C03181629C10165
:1002200040081D3C03181629C101C0018A110A1299
:1002300083122928C31600346400D11C23295C13BF
:10024000DC16DC155729511C2A291A215C17DC12EF
:10025000DC11572951192E29D11D5729D11A3729B7
:10026000540B332937295408043C03184729511DDE
:100270003F295C080739063C031C3F29DC0AD11DD5
:1002800047295C080739003A03194729DC03540B56
:100290004A29D40A5408043C031850290230D400D7
:1002A0004C085C060739003A031957295C166400AC
:1002B000D11A5C29511E5D29D1018A110A12932994
:1002C0006400511E66295112D1167A290430880023
:1002D0005110881D511424308800D110881DD1146C
:1002E000443088005111881D511564308800D111A7
:1002F000881DD115D01D7F295108D2049329520899
:100300005102031D8529D30A8929D301D40151083B
:10031000D200D11E8D29FC30D3005308FC39003A9D
:10032000031993291C298A110A1297296029B201FD
:10033000B101CC17710872040319A22971080319BD
:10034000F203F1030230B006861CA929C60A03197C
:10035000C70A91018C10B50AB51EB6298230B500C6
:1003600001080B19FF30B40081010B118611003018
:10037000B01801300139003A0319D6292908AA0713
:100380002A08633C0318CD296430AA02D5158716C4
:10039000603088000815D012D529D01ED529D51176
:1003A0008712603088000815D012D729D0168B101C
:1003B0008A110A122928B10FDF29320FB200CC1F8F
:1003C000E529CC133708B800EA29B808031DB80B93
:1003D000EA2986158C108A110A1229286400013036
:1003E000F4000B138B138B1BF2291F308805F408C4
:1003F0000319082A871648087405003A0319012AC8
:10040000871207110715203088070310F40DF7290C
:10041000C0308B0400340330AD00850186018701B4
:1004200004308900C801EE21C901BB01BC01D4011F
:10043000D301CB01CA01DC01D2015208D100D001A5
:10044000D601B001DC30D90064005330F700F70B5F
:10045000272A64008A110A12782A8611B301B8018A
:10046000B701B501B40100340B138B138B1B352A74
:100470001F30880501308316D500D5080319542A8A
:1004800083128712550883165505003A03194B2A23
:1004900083128716831683120811081520308807E7
:1004A00003108316D50D3D2AC03083128B0400340F
:1004B0008316CA08031D602A8312D513622A831685
:1004C0008312D51734220034BF3083168100831283
:1004D00081010B113F3083168500D13086008030BA
:1004E00087001B30880009148914091183120B2A14
:1004F0002D2274309500C63096000B3097003130B5
:1005000090008F018E01093083169F008130831285
:100510009F000030F80004389200423083169200A9
:1005200083120B1683168C14C03083128B04D130C7
:10053000831686008312D501342201308316CA0047
:10054000831258228A110A12B22A1A088316A200AC
:100550008312181218168316A20183128A110A1226
:10056000B32A642AA52A14308316A1008312D80066
:10057000DC30D9008316C201A0018312D0117E1095
:10058000CD018A150A161E28E001E101EC01EA01FD
:10059000ED01EE01FE018316CA014A08073C031C67
:1005A000D72A62304A0784008001CA0ACD2A831202
:1005B0000034D516342200348316D4080319E92AEE
:1005C0008312AD18E52A8316E92AD9220714EB2AEB
:1005D00083168312071000348316D4080319F92AEE
:1005E00083122D18F52A8316F92AD9228714FB2A9B
:1005F0008316831287100034AD138316D40183123F
:10060000DC228316D4018312EC2200340F308316CF
:10061000DA055A08093C0318112B57305A07DB003A
:10062000142B30305A07DB005B08640083120C1A6D
:100630001B2B8316152B990000348316580ED900F6
:100640000F30D9055908DA0083120623831658089B
:10065000DA00831206230034D019472B443064009B
:100660000C1E2F2B9900573064000C1E342B990060
:1006700083165608D80083121D2383165708D80006
:1006800083121D230A3064000C1E432B9900003492
:1006900094138C1183165608831293000230941B16
:1006A000582B8C1D512B00308316111B01308312E7
:1006B000F80000348316911591195C2B771891126C
:1006C000771C91161116111A632B83121308F80068
:1006D00000342C08F700F7080319832B0130770248
:1006E0000319922B023077020319AB2B03307702E8
:1006F0000319DB2B043077020319EF2B0530770247
:100700000319032C9A2C0030F8001F08C73978040D
:100710009F0064005330F700F70B8C2B640001300E
:10072000AC009C2C8618A82B0830F8001F08C7398D
:1007300078049F0064005330F700F70B9D2B640092
:100740001F151F19A12B1E08D600301FA82BD6017C
:100750000230AC009C2C1030F8001F08C739780418
:100760009F0064005330F700F70BB42B64001F1593
:100770001F19B82B1E08D7005708143C0318D72B95
:10078000D51AD62BEF0A6F080C3C0318D62BFC2287
:10079000D9224E174E14CE144E151C308316D60097
:1007A000831257088316D70083122C23D82BEF010E
:1007B0000330AC009C2C1830F8001F08C7397804AF
:1007C0009F0064005330F700F70BE42B64001F1503
:1007D0001F19E82B1E08AE000430AC009C2C203002
:1007E000F8001F08C73978049F0064005330F700F1
:1007F000F70BF82B64001F151F19FC2B1E08AF0008
:100800000530AC009C2C83162108D40064006400E1
:1008100083128C118316911491180C2C9A30D600E7
:100820008312482301308316D6008312482383168F
:1008300011151119192C83128D119413831611148B
:1008400083128D1D252C83161B2C941F292C831697
:100850001B2C8316111C2E2C8312292C9B30D600A6
:10086000831248230130F7005A2378088316D500F5
:1008700011151119392C5508F800781B412C64000A
:10088000072C83128D1194138316111483128D1D5E
:100890004B2C8316412C941F4F2C8316412C83160E
:1008A000111C542C83124F2C9A30D60083124823EB
:1008B0008316D601831248238316111511195E2C55
:1008C00083128D1194138316111483128D1D6A2CBB
:1008D0008316602C941F6E2C8316602C8316111CBB
:1008E000732C83126E2C9B30D60083124823013068
:1008F000F7005A2378088316A100111511197E2CD0
:1009000001305407803AF7002108803A7702031833
:100910008B2CA10A972C01305402803AF700210851
:10092000803A77020319972C031C972CA10383129A
:10093000AC019C2CAC019C2C64000034551CA32CF5
:100940000130F800B42CD51CA82C0230F800B42CCF
:10095000551DAD2C0330F800B42CD51DB22C04303D
:10096000F800B42C0030F80000348A110A12D22E9C
:100970005019BE2C1D308316E007831203178E0119
:10098000831603136008831203178D0083168C13DC
:100990000C1483120C0883160313E1006108F8009D
:1009A000831200348316E701E501E4018030E6009C
:1009B000E8016808073C031C0B2D62086605F70078
:1009C00063080039FA0077087A040319ED2C6008EF
:1009D000E4070318E50A6108E50760080139F70034
:1009E00061080039FA0077087A040319FB2C6608BD
:1009F000E7076608E7070310E10CE00C6708803C96
:100A00000318072D8030E702E00A0319E10A0310FA
:100A1000E60CE80AD92C6408F8006508F90083128E
:100A200000348316DD017E1C632D59085807DE0053
:100A3000DF015E08E0008312B82478088316DC002A
:100A40005708073C0318292D0310D70CD60CDD0AD4
:100A5000202D5708E1005608E000E3015C08E200A1
:100A60008312D22479088316DB007808DA005B0849
:100A7000053C0318472DFF3A031D422D5A083D3C03
:100A80000318472D0310DB0CDA0CDD0A372D5B0849
:100A9000E1005A08E000E301A430E2008312D2240E
:100AA00079088316DB007808DA00DD0803195D2D6C
:100AB0000310DA0DDB0DDD03552D5A08F8005B0835
:100AC000F900682D682D5608F8005708F900682DC0
:100AD000831200347E1C8A2D83165008D7004F08DD
:100AE000D6005108D8005208D90083121125790880
:100AF0008316D4007808D3005408003C0318832DD3
:100B0000D401FF30D3005308F8005408F900902DA9
:100B1000902D831283164F08F8005008F900902D8D
:100B2000831200341030F700FA018316E201DF0C63
:100B3000DE0C031CA12D6008FA070318E20A610805
:100B4000E207E20CFA0CF90CF80CF70B972D831264
:100B50000034F801F901F701FA0183166308031D57
:100B6000B42D62080319CE2D1030E4000310E00DFF
:100B7000E10DF70DFA0D63087A02031DC12D62081D
:100B80007702031CCA2D6208F702031CFA036308EC
:100B9000FA020314F80DF90DE40BB62D00008312D0
:100BA0000034881CE12D4C0870392F3C0318DD2DD2
:100BB00080308316D300E02D831240308316D3009B
:100BC0008312301FE62D8316D3018312081EFF2DDA
:100BD0008316D3080319FE2D5308C83C0318F32DC0
:100BE000FF30D300FE2DE1015308E000E301A03007
:100BF000E2008312D22478088316D300831283166E
:100C000053088312330203190B2E831653088312E1
:100C1000B300FF30BC0000348316D4015008D30069
:100C20005408DF005008DE00E10183122E0883160D
:100C3000E0008312922579088316D5007808D40045
:100C40005508E1005408E0000130E300AB30E20059
:100C50008312A92579088316D2007808D100FA01F9
:100C60005008D3007A08D400DF010730DE005408B2
:100C7000E1005008E0008312922579088316D50020
:100C80007808D4005508E1005408E000E3010A3078
:100C9000E2008312A92578088316D1070318D20A27
:100CA0007908D207A11B582E2108133C031C842E5F
:100CB0002108143CFA01803EF8000318FA0A78086B
:100CC000D3007A08D4005208DF005108DE0054082F
:100CD000E1005308E0008312922579088316D500BD
:100CE0007808D400550CD200540CD100D20CD10C91
:100CF000D20CD10CD20CD10CD20CD10CD20CD10C08
:100D0000D20CD10C0130D2055208003C03188B2EB6
:100D1000FF30F6008D2E5108F6007608D3008312BE
:100D2000D1250034F5017508043C031CAD2E75086F
:100D30006C20F8005602031CA02E7508F600AB2E9E
:100D400075086C20F800560878020A3C031CAB2E8C
:100D50009E247808F600F50A932EF501DC1AB22ECF
:100D6000DC1DB72E4C0807396020F800F500750827
:100D700076020318BD2E7508F6008316CB080319FA
:100D8000C72E7608013C031CC72E0230F6008312E2
:100D90009E24780876020319D22E76088316CC009A
:100DA0008312B52C4C087039303C031CDD2E8316A1
:100DB0004B08023C031DFA2E83124C080739EE2023
:100DC0008316CD0083124C0807398316CE00D0015C
:100DD0004D08CF003030D1004E08D20083126A2572
:100DE00079088316CF007808CE00D00083120C2635
:100DF000042F831683124C087039203C031D042FE6
:100E00008316D3018312D1250034D0191D2F8316E8
:100E1000CB01831292265608223C031C142F831602
:100E2000CA0803191B2F831257308316D30083126D
:100E3000D1251D2F831683122D228A150A164B28C1
:100E4000CA30840000080319342F0330F800F7017A
:100E5000F70B282FF80B272F3C30F700F70B2E2F1E
:100E600000000000800B252F00340130C800EE2167
:100E700023308316CA00831220270310C80DC80828
:100E80000319432F372F0230C800EE21FA308316A2
:100E9000CA00831220278030C800EE212330831639
:100EA000CA00831220270310C80CC8080319592F41
:100EB0004D2FEE218A150A165028831653088312E7
:100EC0004102031D692F831654088312420203193D
:100ED0007C2F831654088312C00083165308831294
:100EE000BF000130831653078312BD0083165408D8
:100EF0008312BE000318BE0A831654088312C20070
:100F0000831653088312C100C3123D083F02031D1C
:100F10008D2F3E0840020319A52F4008BE003F0850
:100F2000BD003E088316D70083123D088316D60005
:100F300083120B138B138B1B9A2F83165708F20007
:100F40005608F100C03083128B040034861042082A
:100F50008316D500831241088316D4008A158312A4
:100F600000288A117908C0007808BF003D083F02B8
:100F7000031DBE2F3E0840020319C22F4008BE00C9
:100F80003F08BD003E088316D70083123D08831634
:100F9000D60083120B138B138B1BCB2F8316570892
:100FA000F2005608F100C03083128B04003403179E
:100FB0008E01831603135108831203178D008316C5
:100FC0008C130C1483120C0883160313D2005208DE
:100FD000F800831200348A15B0208A118A15D320B4
:100FE0008A110034EB277E080F390F3C0319FE2FBE
:100FF000EB277E080F390F3C0319FE2F0034003415
:101000008A3083165407D6005508D7000318D70A2C
:101010000230D707FF30E100E0005708E300560830
:10102000E2008A118312A9258A1579088316D9004E
:101030007808D8000F30E100E001E30183122F08A7
:101040008316E2008A118312D2248A157808831647
:10105000DA0023307907DB005B08E1005A08E00082
:10106000E3016430E2008A118312A9258A15790808
:101070008316DB007808DA00580DDE00590DDF001A
:10108000DE0DDF0DDE0DDF0DDE0DDF0DDE0DDF0D04
:10109000DE0DDF0DDE0DDF0D8030DE055F08E100C7
:1010A0005E08E0005B08E3005A08E2008A11831240
:1010B000D2248A1579088316DD007808DC00DD0C5F
:1010C000DC0CDD0CDC0CDD0CDC0CDD0CDC0CDD0CDC
:1010D000DC0CDD0CDC0CDD0CDC0C0130DD05570814
:1010E000DF005608DE005908E1005808E0008A11C8
:1010F000831292258A1579088316DF007808DE00AE
:101100005F08E1005E08E0005D08E3005C08E200C3
:101110008A118312A9258A1579088316E0007808B8
:10112000DF008312440883165F02D6006008D700F0
:1011300083124508031C450F9E28A1288316D70259
:101140008312831657087F3C0318A828D701D601BD
:101150005608F8005708F90083128A110A12B12FB5
:101160008316C401C3010230CE004E08693C031C43
:10117000D128D0014E08D1008A118312D7278A15B1
:1011800078088316C3070318C40ACF01C41BCF0A0B
:101190000310C30DC40D4F08C3070318C40ACE0AB9
:1011A000B528831200347E14FE147E15FE158316B6
:1011B000D001D1018A118312D7278A1583164408DA
:1011C00078020319E5287E10FE10D0010130D1000D
:1011D0008A118312D7278A158316430878020319C8
:1011E000F3287E107E11D0010230D1008A118312C3
:1011F000D7278A157808043C031900297E10FE11B0
:1012000000345608133C031C0929D0190829A901E8
:1012100045295608823C031810296430A900452945
:101220004C0870393F3C031820294C0870395F3C4A
:10123000031C20296A085602031820296A0821295C
:1012400056088316D600E1015608E000E30162303B
:10125000E2008A118312D2248A157808A9004C086A
:1012600070392F3C03183F294C0870395F3C031C30
:101270003F2929081D3C031C3F291E30A9002908CD
:10128000643C031845296430A9008A150A121E2BF4
:1012900083165B08F8015A02031851295A08F7000F
:1012A0005D29F7010830DC00DA0DF70D5B087702E5
:1012B0000318F700F80DDC0B5429831200346A0878
:1012C000783C03187A294C0807398A1145208A1579
:1012D0008316D700783083126A028316D900DA00A9
:1012E0000530DB0083124821780883165707D500A4
:1012F000822983124C0807398A1145208A15F80083
:101300008316D5005508F80083120034ED08031D3C
:101310008E294C087039603C031D9E297E1B9E2936
:10132000F4017408073C031C9E2962307407840092
:10133000560880005608EA00F40A91294C087039D2
:101340003F3C03189E2A4C0870395F3C031C9E2AC0
:1013500007308316D600831260088316D7008A11DF
:1013600083122C238A15590856020318B9295608E6
:10137000D9006008013C0318392AFE1FC129083032
:10138000C229103061078316D500D6008312590890
:101390008316D7008A1183122C238A1505308316F1
:1013A000D600831261088316D7008A1183122C237A
:1013B0008A1559086A020318F229EA0A5908C73C33
:1013C000031CF02959086A020318F029EA0A59088F
:1013D000953C031CF02959086A020318F029EA0A0F
:1013E0006A08D9006108E10A623E84005908800059
:1013F000FE1B192AEA01F4017408073C031C192A90
:1014000062307407840000086A020318172A6230E9
:10141000740784000008EA0006308316D6008312A1
:101420006A088316D7008A1183122C238A15F40ABE
:10143000FC296A085902031D362AF4017408073C86
:10144000031C362A6230740784006A0880006A0828
:10145000EB0006308316D60083126A088316D70085
:101460008A1183122C238A15F40A1E2A5608D900E1
:10147000E001FE1B642AEE01F4017408073C031C22
:101480005A2A5F216A0878020318582A5F217808CF
:101490006A028316D4006230740784000008540284
:1014A0000319572A031C572A8312EE0A8316831244
:1014B000F40A3D2A6E08023C0318602AFE17E10177
:1014C000FE1F632AEC0A9E2A6108073C03189E2A25
:1014D000F4017408073C031C982A623074078400E6
:1014E00000088316D40083125F21780D8316D6007E
:1014F000D60DFC30D60509307407F7000310F70C41
:101500007708D8005608DA005808DB008312482113
:1015100078086A02831654020319952A031C952A37
:10152000FE137E13831230138316F40A8312692A82
:10153000FE1F9E2ACE144E157E1730136108073CFD
:101540000318A32AE1018A150A121F2B83165408D7
:1015500083126D020318B02A831654088312ED001B
:10156000003448088316D4008312C801F301C9135C
:10157000DC1DEB2A0030061A0130003A0319E02A7C
:101580000030C91901308316D60000308312491E7D
:10159000013083165605003A0319D02A8312E02A37
:1015A00000308312C91D01308316D700003083122A
:1015B000491A013083165705003A0319EA2A8312A3
:1015C0005C080739F400F40A0310C80DC80AF40BCC
:1015D000E42A83168312CE080319F12AC9174E088C
:1015E000F3002D18F52A4130F304AD18F92A4230E2
:1015F000F304301CFD2AC91773167308C804491E6A
:10160000032B7308C8068A11EE218A150034640082
:101610000C1DEB2B0C110130C91B0430C907C9127A
:10162000BB0A3C0FBC00F030891C861CBB0553086C
:10163000073C03181D2BD40ADC17012986294A1CF4
:10164000222BDE0A4A1C322BCA1C322B4A1D322B9B
:10165000CA1D322B4A1E322BDD0ADF0AED080319A0
:10166000322BED03F00ACA0F372B4B0FCB008A1138
:1016700069238A15861C432B0818422B431E412BD5
:10168000C317432B4316B308031D4A2B8611B7011A
:10169000B801DA2BB51B4D2BDA2BB5133C08093CEE
:1016A000031C542BBC0ADA2BBC013408043C031C79
:1016B000652B3B1F5E2BCE16B017602B1030BB077F
:1016C000FF30BC000230B700DA2B0F30BB05330F00
:1016D0006C2B0130B700DA2B370B722B2D30B70093
:1016E000DA2B792B3708023C031C792B3930B700F1
:1016F000DA2B33083402031D7E2BDA2B3308340235
:101700000318992BB7080319862BB7033408360240
:10171000031C942B340836020A3C0318932BB70899
:101720000319932BB703982B370F972B982BB70AD6
:10173000D52B340833020318D52B330834020A3C66
:101740000318BF2B330834028316D500DA000A30A1
:10175000DB008312482178088316D60083123408F0
:101760008316DA005608DB00831248217808323CE1
:10177000031CBF2B05308316D4008312A622370F1B
:10178000C22BC32BB70A36083402031CD12B3608F0
:1017900034020A3C0318D02B370FCF2BD02BB70ABB
:1017A000D52BB7080319D52BB703BC08031DD82BBD
:1017B0003408B600CC11061ACC155608F03C0318B4
:1017C000E22B4F144F1CEB2B5608E53C031CEA2B75
:1017D0004F10EB2BCC15D019EE2BB1226400320840
:1017E000023C0318A62CFF3A031DFA2B3108B93C22
:1017F0000318A62C0B138B138B1BFB2B8611831644
:10180000C80183125518062C551D092C831648143F
:1018100083125510D5180E2C551D112C8316C81483
:101820008312D5105511D51D182C83164815831217
:10183000D511D51E1E2C8316C8158312D512861CF1
:10184000242C8316481683128610AD1F2A2C83166B
:10185000C8168312AD13C8018A11EE218A158316AA
:10186000C9018312B70183168C10C03083128B0418
:1018700031083204031D3D2C542C64000C1D382CFF
:101880008316C90A83120C11831649083C3C0318BD
:10189000532C83124C082F3C031C502C8316532CC2
:1018A0007030CC00831683128F018E010C116400FE
:1018B0000C1D572C0C113208023C0318672CFF3A00
:1018C000031D662C3108B93C0318672C382C4C08D2
:1018D000703C031D6C2CA02C0B138B138B1B6D2CDD
:1018E000831648080339033C031D7A2C83125515CF
:1018F0008A2C8316481C7F2C831255148316C81C0F
:10190000842C8312D5148316481D892C8312D51577
:10191000831683128316C81D902C8312D516831646
:10192000481E952C831286148316C81E9A2C831287
:10193000AD178316FF308312BC00BB01B501B401A3
:10194000640083168C14C03083128B0400347E1C18
:10195000B92C83165A085907DE00DF015E08E00043
:101960008A118312B8248A1578088316DD00BC2CEE
:10197000831283165708DD005D08F80083128A156C
:101980000A12192DC31EC92C861CC92C8A11A62720
:101990008A15861CF92CC31FE72C8A11A6278A15E5
:1019A000F030C3050310470CC500460CC400C50841
:1019B000031DE22C4408633C031CE22C0130C500EB
:1019C0006830C400C701C601C3134312F82CF108E4
:1019D000031DF82CF208031DF82C8A11A6278A157E
:1019E00043080F39063C031CF72CC30AF82CCE170A
:1019F0004F2DF108031D4F2DF208031D4F2DCE1959
:101A00004F2DC31A4F2D86144C0807398A11E22036
:101A10008A158316D50083124C0807398316D60021
:101A2000D8015508D7004030D9005608DA00831293
:101A3000A72C7808B9070318BA0AE00A431B3A2D05
:101A40000310440D8316D4008312450D8316D50070
:101A5000D7005408D60083120B138B138B1B2D2D2C
:101A600083165708F2005608F100C03083128B0429
:101A700043174F2D45088316D70083124408831659
:101A8000D60083120B138B138B1B432D8316570821
:101A9000F2005608F100C03083128B0443138A15FC
:101AA0000A12542D0723C22C00343B080F390C3C7A
:101AB00003185B2D4E153010081A3014081A622DC9
:101AC000DD01672D0C308316D4008312A6225D0839
:101AD000E03C03186E2D4E16E130DD00881C772D9A
:101AE000CE1518308316D4008312A6227E2D5E08F0
:101AF000B33C031C7E2D3011CE11DE015E08B33CD9
:101B00000318862D3015CE15B430DE004E1F892DFA
:101B1000B0150034543064000C1E8B2D99008316D0
:101B20004B08D8008A1183121D238A1583164C088E
:101B3000D8008A1183121D238A150A3064000C1EF6
:101B40009E2D99000034D019D02E8316200BAA2D7B
:101B50002108CA002008023C031DB22D831256083A
:101B60008316CA002008033C031DBA2D83122E08D9
:101B70008316CA002008043C031DC22D83122F08BF
:101B80008316CA002008063C031DCA2D83123408A0
:101B90008316CA002008073C031DD22D8312290892
:101BA0008316CA002008083C031DDA2D831248085A
:101BB0008316CA002008093C031DFB2D83122D0843
:101BC0008316CA000030FE1B0130CB00D6014B0843
:101BD000D7008A1183122C238A1500307E1B013016
:101BE0008316CB000130D6004B08D7008A11831230
:101BF0002C238A15831620080A3C031D1E2E8312EF
:101C00004C0807398316CA0000308312301B01309C
:101C10008316CB000230D6004B08D7008A118312FE
:101C20002C238A1503308316D60083126C08831682
:101C3000D7008A1183122C238A15831620080B3CA7
:101C4000031D412E83125C0807398316CA00003039
:101C500083124F1801308316CB000430D6004B0896
:101C6000D7008A1183122C238A1506308316D600DA
:101C700083126A088316D7008A1183122C238A15CF
:101C8000831620080C3C031D5F2E83124C0883161C
:101C9000CA001C30D60083126D088316D7008A1143
:101CA00083122C238A151F308316D60083125F08F7
:101CB0008316D7008A1183122C238A1583162008D5
:101CC0000D3C031D672E83123A088316CA002008B4
:101CD0000E3C031D6F2E831239088316CA0020089C
:101CE000103C031D772E831245088316CA00200876
:101CF000113C031D7F2E831244088316CA0020085E
:101D0000123C031D872E83123E088316CA0020084A
:101D1000133C031D8F2E83123D088316CA00200832
:101D2000143C031D952E7E08CA002008153C031D97
:101D3000A22E0830CB00831248088316CC008312F1
:101D40008A2583162008153C0318A72EA001200819
:101D5000073C031CC62EFE1BB12E8312301FB42E6F
:101D600083160830B62E8312103083162007CC005D
:101D70006230200784000008CD004C08D6004D08D2
:101D8000D7008A1183122C238A1583166400200839
:101D9000CB004A08CC0083128A258316A00A83123E
:101DA0008A150A169C2883164008F80083128A15A3
:101DB0000A16A3288316D101C008031DEC2ED10AF0
:101DC0005330F700F70BE22ED108031DEB2E640011
:101DD0000030F800112FDC2EC00803190E2F400828
:101DE0004102031CF62E40084102D2004108400285
:101DF000031DFA2E400841020318022F40081E3C22
:101E00004107D2005208F800A23078078400000889
:101E1000D100C0035108F800112F112F0030F80035
:101E2000112F83120034831651082F3C03181F2FE3
:101E30005108393C031C1F2F30305102D200510889
:101E4000403C03182B2F5108463C031C2B2F4130DC
:101E500051020A3ED2005208F80083120034DA26FA
:101E600078088316CF008312DA2678088316D0000C
:101E70004F08D10083121327780E8316CE00F0305E
:101E8000CE055008D1008312132778088316CE0799
:101E90004E08F800831200348316510883124A0753
:101EA0008316D20083124B088316D3000318D30A7B
:101EB00083124B0883165302031C6C2F031D682FDB
:101EC000520883124A02031C672F83166C2F831655
:101ED000831252258316582F831200340B138B1351
:101EE0008B1B6F2F1F308805803088075010881992
:101EF000501420308807D0108819D014203088075B
:101F0000501188195015C0308B0400344E1F8C2F8F
:101F10008316CE018F2F83125A308316CE00CF0145
:101F2000CE080319E22FC001C101831255253C30B0
:101F30008316D00083128818AE2FCE19A32F301825
:101F4000A32F0030A42F01308316D10000307E1F54
:101F500001305105003A0319BF2F83128316D008B0
:101F60000319BF2FC001C10183128612552501300C
:101F70008316D10083124C278316D0039A2FD008E2
:101F8000031DC72F8312B0158316E22FCB2F8312A8
:101F900086164E1383160130D10083124C276E270C
:101FA0000030501C013083164F06003A0319DA2F17
:101FB000CE03E12FCF08031DE02F0130CF00E12F2A
:101FC000E22F902F831286128316CE08031DEC2F6A
:101FD00083124E17B01583164E085A3CF7000310B3
:101FE000770C8312AB0000348A11FC228A15D512BB
:101FF0008A1134228A1500348A150A16502A0034B0
:102000000330AD002D150A12D9220A16123083169C
:10201000D1000A128A1583124C270A168A11013040
:102020008316D4000A128312DC220A161230831699
:10203000D1000A128A1583124C270A168A115708F2
:102040001D3C031C2728AD102D114E17CE148316EE
:10205000D4010A128312DC220A1601308316D4003E
:102060000A128312EC220A1612308316D1000A12C9
:102070008A1583124C270A168A1157081D3C031C27
:1020800045282D102D114E174E148316D4010A1217
:102090008312DC220A168316D4010A128312EC2260
:1020A0000A160A12D9220A16003401308316D40007
:1020B0000A128312DC220A1601308316D4000A1297
:1020C0008312EC220A160718692887186928AD13AD
:1020D0006A28AD1700340A128A15DA260A168A1100
:1020E00078088316CA00433C031D052A0A128A1584
:1020F0008312DA260A168A1178088316CB00573C19
:10210000031D5E290A128A1583122F270A168A11C7
:1021100078088316CC000A128A1583122F270A1614
:102120008A1178088316CD004C08F13E03185D290A
:102130000F3E8312E52A8316CD08031DA028C20195
:102140005D290A128A15B0200A168A1103178E011A
:102150008D01831603134408831203178C00831622
:102160008C130C15831203130B08F7008B138316C3
:10217000031755308D00AA308D008C148C18BE28A2
:102180000C117708831203138B0403178E0101309F
:102190008D00831603134308831203178C008316E4
:1021A0008C130C15831203130B08F7008B13831683
:1021B000031755308D00AA308D008C148C18DE2842
:1021C0000C117708831203138B040A128A15D3208B
:1021D0000A168A1183165D29D01583165D29D01140
:1021E00083165D2983164D088312C8000A12EE215A
:1021F0000A1683165D290A128A1586270A168A117D
:1022000083165D290A12D9220A1683165D290A123D
:102210008A15F4270A168A1183165D2983164D083C
:102220008312A90083165D2983164D08D3000A1274
:102230008312D1250A1683165D2900200A128A15F9
:10224000F4270A168A1183165D2983164D0ECE00D7
:10225000F030CE05D4014E08D3000A1283125D2758
:102260000A1683165D290A12A6270A16C31E3B29E1
:102270002230C3003D290230C3000A121A210A1677
:1022800083165D29552082308316C20049306400D0
:1022900083120C1A4D298316472999000A306400CD
:1022A0000C1E4F29990083165D2983164D08831251
:1022B000D100DC1783165D298316DC2A4B08523CBB
:1022C000031D052A0A128A1583122F270A168A115E
:1022D00078088316CC00CD014C08F33E0318042A7D
:1022E0000D3E8312F82AD2018316042A520883165F
:1022F000CD00042A0A128A156E270A168A1183163F
:10230000CD018312501C872983164D148312D01CD3
:102310008C298316CD148312501D912983164D15D7
:102320008312D01D96298316CD158312081C9B2974
:1023300083164D168312881CA0298316CD1683128E
:10234000081EA52983164D178312891CAA298316F6
:10235000CD1783128316042A8316CD018312861C9F
:10236000B42983164D148312861EB9298316CD1401
:102370008312D51EBE2983164D158312D51FC3297E
:102380008316CD1583128316042A83162108CD00E7
:10239000042A34088316CD00042A8316CD01831243
:1023A0002D1CD52983164D148312AD1CDA298316F2
:1023B000CD148312061EDF2983164D158312831652
:1023C000042A450CFA00440CF900FA0CF90CFA0C3A
:1023D000F90CFA0CF90C79088316CD00042A0430A4
:1023E0008316CD00042A2E088316CD00042A2F0858
:1023F0008316CD00042A02308316CD00042A023051
:102400008316CD00042A8316B72A4A08413C0319D3
:102410000D2A4A084D3C031DB62A0A128A1583125A
:10242000DA260A168A1178088316CB004B08573C27
:10243000031D7E2A0A128A1583122F270A168A1173
:1024400078088316CC000A128A1583122F270A16E1
:102450008A1178088316CD004A08413C031D572A8B
:10246000831203178E01831603134C08831203177C
:102470008D00831603134D08831203178C008316F7
:102480008C130C15831203130B08F7008B138316A0
:10249000031755308D00AA308D008C148C184E2AED
:1024A0000C117708831203138B047C2A8316831282
:1024B00003178E01831603134C08831203178D0034
:1024C000831603134D08831203178C0083168C1395
:1024D0000C15831203130B08F7008B1383160317D5
:1024E00055308D00AA308D008C148C18752A0C1173
:1024F0007708831203138B048316B72A4B08523CC8
:10250000031DB62A0A128A1583122F270A168A116A
:1025100078088316CC004A08413C031DA02A831288
:1025200003178E01831603134C08831203178D00C3
:1025300083168C130C1483120C0883160313CD001E
:102540004A084D3C031DB52A831203178E018316DA
:1025500003134C08831203178D0083168C130C147D
:1025600083120C0883160313CD00B72ADF2A4A080A
:10257000640083120C1ABE2A8316B82A99008316A7
:102580004B08640083120C1AC72A8316C12A9900CB
:1025900083164C08D8000A1283121D230A168316CC
:1025A0004D08D8000A1283121D230A160A3064004F
:1025B0000C1ED72A990083160130F800E12A00305A
:1025C000F80083128A150A16A9280A108A140A111B
:1025D00082079B28A128EC28EF28F228FB28022953
:1025E00007290E2914291D2925293329422955296E
:1025F0000000000000000A148A140A11023E0318A9
:102600008A0A8200732976297A29AC29C529C92921
:10261000CD29E129EF29F329F729FB29FF29CE014B
:10262000BB013011BC010A128A15B1220A168A11A7
:10263000C31E1D2B2230C3001F2B0230C3000A1201
:102640008A1555250A168A11003483164A08831202
:102650004A078316CB0083124B088316CC0003185D
:10266000CC0A83124B0883164C02031C492B031D12
:10267000412B4B0883124A02031C402B8316492B23
:1026800083160A128A15831207230A168A118316E3
:10269000312B831200340A128A1586270A168A11F2
:1026A0000A12C4220A16CB01CA01CF1C592BCF1023
:1026B0006D2B3A08E93C03186B2BFF3A031D642B82
:1026C0003908603C03186B2B6030B902EA30031CF8
:1026D000EB30BA026D2BBA01B90100344D08023C4F
:1026E0000318752B0130F800A62B8316CA0183123C
:1026F0004E1F7E2B40308316CA078312CE1C842BBC
:1027000002308316CA0783124E1C8A2B01308316AF
:10271000CA078312301D8F2B0130F800A62B4E08FC
:10272000F739403C03189C2B4E08F739433C031CF7
:102730009C2B0030F800A62B4E08F739003A0319FD
:10274000A42B0130F800A62B0030F8000034CD0196
:102750005C17DC11DC12DC138A150A16502A7E1C69
:10276000AE2C831652085107D900DF015908E0004A
:102770000A128312B8240A1678088316D800D808DB
:10278000031DC42B0130D800FF30E100E000E3015D
:102790005808E2000A128312A9250A16790883163E
:1027A000D6007808D500D7018312440883164F0756
:1027B000D3005008D4000318D40A831245088316A6
:1027C000D4075608003C03181F2C54087F3C031CF8
:1027D0000A2C0310D30DD40D5708FF3CF700FF302F
:1027E000FA000030031C0130FA027708F8007A087A
:1027F0005402031C052C031D012C530878020318F6
:10280000052CFF30D400D300092C5708D307031838
:10281000D40A0D2CFF30D400D30055080139F7003D
:1028200056080039FA0077087A0403191A2C54085C
:10283000D7001B2CD7010310D60CD50CE12B570861
:10284000FF3CF700FF30FA000030031C0130FA02B1
:102850007708F8007A085402031C382C031D342C26
:10286000530878020318382CFF30D400D3003C2CD6
:102870005708D3070318D40A54087F3C03184A2C7E
:10288000D608031D472C5508803C03184A2C0130FC
:10289000D7004B2CD7015408D0005308CF00540860
:1028A000E1005308E0005608E3005508E2000A1270
:1028B0008312D2240A1679088316D4007808D3002C
:1028C00054085002031C702C031D6A2C4F0853023D
:1028D0000318702CD7080319702CFF30D400D300D4
:1028E0005408E1005308E000E3016430E2000A12FA
:1028F0008312D2240A1679088316D4007808D300EC
:10290000D40CD30CD40CD30C3F30D4055408831210
:102910004502031C9A2C031D952C44088316530270
:10292000031C942C83129A2C83128316D401D30196
:10293000A72C831244088316D30283124508031C74
:10294000450FA32CA62C8316D4028312831653089A
:10295000F8005408F900B42CB42C831283164F08E5
:10296000F8005008F900B42C831200347C080A12D5
:102970008D200A168316CA00D0014A08CF004830BD
:10298000D100D2010A1283126A250A167908831629
:10299000CC007808CB00D0000A1283120C260A164D
:1029A000FE1AF62C01307C07F7000310F70D7708AC
:1029B0008316CB004B0A0A12831298200A16FA00DB
:1029C00083164B080A12831298200A16F8007A0818
:1029D0004B02031CF62C031DF12C78084A02031C41
:1029E000F62C7C08053C031CF62CFC0A8A150A16FA
:1029F000952A8316CF01CE0183125808093C031C87
:102A0000152D58080A3C8316D100DF015108DE005D
:102A1000E1012430E0000A12831292250A16790897
:102A20008316CF007808CE0083122D1D232D403051
:102A300083164E07CC004F08CD000318CD0A0B308B
:102A4000CD072D2D83125C3083164E07CC004F0826
:102A5000CD000318CD0A0D30CD074D08D7004C0826
:102A6000D6004830D8000430D9000A12831211254C
:102A70000A1679088316CD007808CC004A08CC07DE
:102A80000318CD0A4B08CD074C08F8004D08F90093
:102A9000831200344E08F7394339F7004330770288
:102AA00003195B2D423077020319732D41307702F1
:102AB0000319732DCD2D0B308316D0001C30CF00A1
:102AC0003830D100D2018312AF2379088316CB00AE
:102AD0007808CA004B08D4004A08D3000A128312AF
:102AE0005D270A16F82D03107D0D8316CA004A0AC9
:102AF0000A12831281200A16FA0083164A080A1263
:102B0000831281200A168316CB007A08CC00831228
:102B1000440883164B07CD004C08CE000318CE0A9C
:102B2000831245088316CE074E08D0004D08CF000B
:102B30004830D1000130D2008312AF2379088316C8
:102B4000CF007808CE004F08E1004E08E000E30116
:102B5000AA30E2000A128312D2240A1679088316D8
:102B6000D0007808CF008312440883164F02D100AA
:102B70005008D20083124508031C450FC02DC32DF9
:102B80008316D202831283165208D4005108D30050
:102B90000A1283125D270A16F82D03107D0D831685
:102BA000CA004A0A0A12831281200A16FA00831602
:102BB0004A080A12831281200A168316CB007A086B
:102BC000CC00D0004B08CF004830D1000130D200FB
:102BD0008312AF2379088316CD007808CC004D0806
:102BE000D4004C08D3000A1283125D270A16F82D70
:102BF00000340F230A128A1586270A168A1102301A
:102C0000CB00D030CA003030CC00DC12DC130330F3
:102C1000FD004A257E12FE12DC30D900003400206F
:102C200055208A150A16592B4C0807398316CA00F5
:102C300083124C1E252E8316CA080319242E7508EC
:102C40007602031C242ECA038312ED08031D482EAE
:102C500083164A080A12831251200A168316CB00E3
:102C6000A11B3D2E2108003C03183D2E210CF7002E
:102C7000F70C3F30F70577083E2E00304B078312E4
:102C800056020319452E0318482E0130F8004A2E2B
:102C90000030F8008A150A16822C56088316CB00DD
:102CA000CA011830D60083126B088316D7000A12A7
:102CB00083122C230A1619308316D6004B08D7002E
:102CC0000A1283122C230A167608750203186A2E3C
:102CD000CC0AF50A750876020318992ECC03F50381
:102CE00061088316CA00F4017408033C031C912E8A
:102CF0004A08073C031D812E83125908E200882EE2
:102D0000831601304A07623E84008312590880000E
:102D10008316CA0A4A08083C031D8F2ECA01F40A0A
:102D2000742E0530D4000A128A158312A6220A16C0
:102D30008A116B0883164B020318C12E4B088312AD
:102D40006B028316CA00F4017408073C031CB72EFB
:102D500062307407840000084A020318B52E6230FE
:102D6000740784004A0800028000F40AA42E83122B
:102D70006A0883164A020318C12E4A088312EA021F
:102D800083164B0883126B020318EB2E6B08831615
:102D90004B02CA00F4017408073C031CE12E6230A8
:102DA000740784000008CC004A08FF3C4C0203185A
:102DB000DF2E6230740784004A0800078000F40A9E
:102DC000CB2E4A08FF3C83126A020318EB2E8316AF
:102DD0004A088312EA071A308316D6004A08D70039
:102DE0000A1283122C230A1683164B088312EB0057
:102DF000003401308316CB000A12831292260A1681
:102E00005C080739F6008316D0015F30CF004830E8
:102E1000D1000230D2000A1283126A250A167908FC
:102E20008316CB007808CA00D0000A1283120C2641
:102E30000A167D08013C031C672F01307D07F7004F
:102E40000310F70D77088316CB004B0A0A12831282
:102E5000BE200A16FA0083164B080A128312BE20FF
:102E60000A16F8007A084B02031C672F031D3C2F3B
:102E700078084A02031C672FFD0A03107D0D831694
:102E8000CA004A0A0A128312D0200A16FA008316D0
:102E90004A080A128312D0200A168316CB007A0839
:102EA000CC00D0004B08CF004830D1000330D20016
:102EB0008312AF2379088316CD007808CC004D0823
:102EC000D4004C08D3000A1283125D270A16881812
:102ED0006D2FCE196D2F301C812F501E782F831629
:102EE00047088312CB00831646088312CA00812F3D
:102EF00050164B088316C70083124A088316C60073
:102F00008312501264008A150A16892D4B08033C5F
:102F10000318942FFF3A031D912F4A08373C0318DA
:102F2000942F501B942F50174B08033C0318A42FC9
:102F3000FF3A031D9F2F4A08AF3C0318A42FD01B54
:102F4000A42FD0174B23CD014B08043C0318BA2FF4
:102F5000FF3A031DAF2F4A08273C0318BA2FCB01B5
:102F6000CA010A128A15F4270A168A11CC124C08D3
:102F70000739F5008A150A169C2D8316C6008312A0
:102F8000501264008A150A16932D4B08033C03184F
:102F9000D32FFF3A031DD02F4A08373C0318D32FF5
:102FA000501BD32F50174B08033C0318E32FFF3A55
:102FB000031DDE2F4A08AF3C0318E32FD01BE32F7D
:102FC000D0179B23CD014B08043C0318F92FFF3A7F
:102FD000031DEE2F4A08273C0318F92FCB01CA0125
:102FE0000A128A15BA270A168A11CC124C08073918
:102FF000F5008A150A16A62DFF3FFF3FFF3FFF3F52
:1030000084011F308305063083169F00073083122A
:103010009F0040308316990026309800903083122C
:10302000980018308316930028308312940083167A
:10303000941714130A128A118312B12A0A168A15D8
:103040008316CA010A128A11831258220A168A1597
:10305000B201B101CC01CE01B011DD01DE01DF0111
:10306000EF01CF010A128A11C4220A168A15F5014E
:103070007508063C031C43280A128A1169230A16A4
:103080008A15F50A3828640001308316CA000A122E
:103090008A118312052F0A168A150A128A11352FF2
:1030A0000A168A150230C500D030C400C701C60117
:1030B0000B308316D4001C30D3000A128A118312FD
:1030C0005D270A168A150A128A11A6270A168A157A
:1030D000C31E6D282230C3006F280230C3000A12BD
:1030E0008A111A210A168A150A128A11F2270A165B
:1030F0008A158316C001C1018C1683129817181601
:103100000A1252250A160A1255250A16F01CA12881
:10311000F00A8316C20803199F284208793C031D50
:1031200098280A128A118312FC220A168A1583161D
:10313000C2030A128312A32D0A16A1288316831232
:10314000D0110A12D32E0A16F8080319B6288A11CC
:103150006B288A15F8080319B62883164208773CAD
:10316000031CB4287830C200831280287008F03C19
:103170000318C028F0010A128A11F2270A168A15CC
:10318000D01DC3288028DC1FD4285C1FD4285C13E2
:10319000DC138A110F238A154C082F3C0318D12801
:1031A0004B29B01DD42820287E1F1F292030CC0099
:1031B000301B1F298316D3010A128A118312D125CD
:1031C0000A168A15CE1B0529C3134316033083162E
:1031D000CA008A11831225238A15F5017508773CE8
:1031E000031C042901308316CA008A118312252387
:1031F0008A15C31FFC2804298614DC1F0229DC1E43
:1032000002290429F50AEE2886100A128A111A21C9
:103210000A168A150A1286270A160A1286270A161D
:103220000A1286270A1686162B088316D1000A1260
:1032300083124C270A1686123017FE137E134C0891
:103240007039F700F7080319422910307702031983
:103250008829203077020319C329303077020319F7
:10326000862A4030770203192C2C5030770203193C
:103270002C2C603077020319872D703077020319E8
:103280009E2DA02D5608093C031848294E144B29A1
:103290004B29A02DCE141030CC00AD1F55290A1299
:1032A0008A11D9220A168A1558290A12F4270A16F1
:1032B0000A128A11FC220A168A15CE1B8029C31312
:1032C000431603308316CA008A11831225238A15F8
:1032D000F5017508773C031C7F2901308316CA006D
:1032E0008A11831225238A15C31F77297F29861403
:1032F000DC1F7D29DC1E7D297F29F50A69298610BE
:103300000A128A111A210A168A15CB01CA01DC0198
:10331000DC1F8D29DC1E8D29E529D51E9D294B0832
:10332000003C03189D29FF3A031D9A294A08683C6E
:1033300003189D290A12F4270A164B080E3C031C99
:10334000AC29031DA7294A080F3C031CAC295608C9
:10335000223C0318AC29A02DD51EAF29A02D8A111F
:103360004B238A158A114B238A15D019BA290A12C0
:10337000F4270A160A128A112D220A168A152030FD
:10338000CC00CB01CA01DC1AE129DC118316CB0188
:103390000A128A11831292260A168A152A30CB0045
:1033A0003030CA005708133C031CE029D51EE02921
:1033B0000A128A11FC220A168A150A12F4270A1622
:1033C000A02DDC1BE429A02D30137E12FE12DC3070
:1033D000D900DE018316C2018312D011CD01B001E4
:1033E000CC010330AD002D158316CB010A128A11D2
:1033F000831292260A168A150A128A11FC220A16CC
:103400008A150A128A111A210A168A158A110F239F
:103410008A15B0117E12FE12DC30D900DC19152A93
:10342000DC1E152A5C1B152ADC1501308316CA0028
:103430000A128A11831258220A168A15CD0A3030D0
:10344000CC008A114B238A15B01D282ACD0AB01151
:103450008A114B238A15B01D2F2ACD0AB0118A116B
:103460004B238A15B01D352ACD0AB01D3C2A4D08C4
:10347000013C031C3C2A2028DC12DC13CB01CA01CE
:10348000FC01FD01D0138A116E238A15F808031977
:10349000522A0A128A11FC220A168A158A11A72BAF
:1034A0008A154B29CB01CA0103107D0D8316CA0072
:1034B0004A0A0A128A11831281200A168A15FA0012
:1034C00083164A080A128A11831281200A168A1565
:1034D0008316CB007A08CC00D0004B08CF004830D0
:1034E000D1000130D2008A118312AF238A157908E6
:1034F0008316CD007808CC004D08D4004C08D300CA
:103500000A128A1183125D270A168A15FE134C08C7
:10351000F0398316CA007E1E8F2A0130902A0030AF
:103520004A078312CC008A11B62C8A15AD1FD52A02
:103530002330590756020319D52A031CD52A7E1AAF
:10354000D52A7E162D1DBD2A02308316D700D03015
:10355000D6004830D8000430D9000A128A118312EC
:1035600011250A168A1578084A07DA004B08DB008D
:103570000318DB0A7908DB07D52A04308316D70045
:10358000EC30D6004830D8000430D9000A128A1135
:10359000831211250A168A1578084A07DA004B08A3
:1035A000DB000318DB0A7908DB077E1AE42A023005
:1035B0008316CB00F430CA008A118312F9248A15CD
:1035C0007908DB007808DA005B084B02031C202B2B
:1035D000031DEE2A5A084A02031C202B0030AD1BA3
:1035E0000130003A0319FA2A0A128A11FC220A163B
:1035F0008A15FE125A305A07F8005B08FA000318C1
:10360000FA0A7A084B02031C1F2B031D0B2B7808A8
:103610004A02031C1F2B0030D51A0130003A03194F
:10362000172B0A12F4270A16DC12DC131F2BDC1FDF
:103630001F2BDC1E1F2B8A11F9258A15A02D692B43
:103640004B08013C0318692BFF3A031D2B2B4A083A
:10365000CF3C0318692B4B08033C031C692B031D4B
:10366000352B4A082F3C031C692B0030D51A01303A
:10367000013C0319402B0A128A11D9220A168A1515
:103680004B08013C0318692BFF3A031D4B2B4A08DA
:10369000F33C0318692B0030AD1B0130013C0319CA
:1036A000692B2D18552BAD1C692BFE1A692B8A111D
:1036B0000F2E8A155608D9005908963C0318622B1C
:1036C0009630D900831621088312D8008A114A2522
:1036D0008A158316CB010A128A11831292260A16C2
:1036E0008A158A116E238A15F8080319782B4B293D
:1036F00064007D08023C031CA42B01307D07F70009
:103700000310F70D77088316CB004B0A0A128A11B3
:10371000831275200A168A15FA0083164B080A12BE
:103720008A11831275200A168A15F8007A084B024E
:10373000031CA42B031DA02B78084A02031CA42BF6
:10374000FD0A8A114A258A1507308316CB000830F6
:10375000CA008A118312F9248A154B087902031CC6
:10376000B92B031DB72B4A087802031CB92BDF01C4
:10377000A02D8316A11BC32B2108003C0318C32BCB
:103780000310210CC42B00303C3E83125602031957
:10379000CB2B0318D62B5F08043C0318D52B4D0800
:1037A000013C031CD42BF1294A29E52B5608FD3C8A
:1037B000031CDC2BDF01E52B5F08383C0318E52BED
:1037C0004E153015B430DE004B290B308316CB007C
:1037D0004030CA008A118312F9248A154B087902F5
:1037E000031CF92B031DF82B4A087802031CF92B44
:1037F000A02D02308316CB000A128A118312922662
:103800000A168A150C308316CB00A830CA008A111C
:103810008312F9248A154B087902031C162C031D08
:10382000152C4A087802031C162CA02DCB01CA01C6
:103830005330CC007E12F5017508073C031C272C81
:1038400062307507840056088000F50A1C2CFF3092
:10385000D900EB016400A02D01308316CB000A12C1
:103860008A11831292260A168A154C080739F70026
:103870000310F70D77088316CB004B0A0A128A1142
:103880008312AA200A168A15FA0083164B080A1218
:103890008A118312AA200A168A158316CC007A0888
:1038A000CD0083124C0807398316CE004D08D00096
:1038B0004C08CF003830D1004E08D2008A11831254
:1038C000AF238A1579088316CE007808CD004E08FC
:1038D000D4004D08D3000A128A1183125D270A16FC
:1038E0008A15DC1F792CDC1E792C8A11F9258A15A2
:1038F000A02D8A116E238A15F8080319802C4B29F4
:103900008A11142E8A15F80803199B2CFE1B8B2C88
:10391000EE080319902CCE144E157E173013A02DEF
:103920005F08043C03189A2C4D08013C031C992C99
:10393000F1294A29A92C5608FD3C031CA12CDF01C2
:10394000A92C5F08383C0318A92C4E154E163014CC
:103950004B294C080739F5005C080739F6003A088E
:10396000E93C0318C12CFF3A031DBA2C39085F3C0F
:103970000318C12CCF146030B902EA30031CEB30BD
:10398000BA02CF1CCD2C7508033C031DCA2C4C1A5F
:10399000CA2C3B2D0330F600D02CCC1DD02CF601C8
:1039A0006400FE1FD42CA02D4C1E142DEB08031D0B
:1039B000E82C5608EB001B308316D60083126B08E8
:1039C0008316D7000A128A1183122C230A168A152D
:1039D000760875020319122D4B08023C031CF82CC3
:1039E000031DF62C4A08CF3C031CF82CA02D112DEA
:1039F0008A114D268A151D308316D6007508D7000A
:103A00000A128A1183122C230A168A151E30831675
:103A1000D6007608D7000A128A1183122C230A16C0
:103A20008A15132D1C2D1A2D76087502031D192DCC
:103A3000A02D1C2DCB01CA014C1676087502031D62
:103A4000382D4B08013C0318382DFF3A031D2C2D4F
:103A50004A08D03C0318382D8A114D268A150530A6
:103A60008316D4000A128312A6220A164C12EB0106
:103A70005C12DC13A02DCB01CA01FC01FD01D013A7
:103A80008F30CC056030CC0450128316C701C601BC
:103A900083120B138B138B1B4A2DF201F101C030E3
:103AA0008B0403107D0D8316CA004A0A0A128A117C
:103AB0008312D0200A168A15FA0083164A080A12C1
:103AC0008A118312D0200A168A158316CB007A0831
:103AD000CC00D0004B08CF004830D1000330D200DA
:103AE0008A118312AF238A1579088316CD007808CE
:103AF000CC004D08D4004C08D3000A128A1183125E
:103B00005D270A168A154008BE003F08BD008A11CD
:103B1000F92E8A154B08033C03189A2DFF3A031D12
:103B2000952D4A08373C03189A2D56082C3C031C47
:103B30009A2DF1298A11862F8A15A02D4E144B2912
:103B400080286300A42DF1298A117E2F8A15AA2DC1
:103B50004E144B298028630051297E286300802859
:103B600063003B08E93C0318C42DFF3A031DBC2D3C
:103B70003A085F3C0318C42D7208043C031DC12D94
:103B8000F72D0430F300EE2DCE1DC92DF301EE2DDF
:103B9000CE2D730872020319CE2DEE2D5E1AD12D93
:103BA0007C2EEE2DCD01CC01730872020318DA2DA4
:103BB000CE0AF20A720873020318E02DCE03F20354
:103BC000013072078316CB003430D6004B08D70083
:103BD0000A128A118312B4220A168A154E16730825
:103BE0007202031DF42D4E125E12DE137C2ECD01E7
:103BF000CC01F401F501D1136030CE04CF0183165E
:103C00004610C801C7010830D7000A128A11831272
:103C1000F7220A168A150B138B138B1B0C2EED0142
:103C2000EC01C0308B040310750D8316CB004B0ADA
:103C30000A128A118312C1200A168A15FA00831605
:103C40004B080A128A118312C1200A168A1583169C
:103C5000CC007A08CD00D1004C08D0004830D2000A
:103C60000330D3008A118312A5228A15790883169E
:103C7000CE007808CD004E08D5004D08D4000A12B9
:103C80008A11831273270A168A154108BF0040085B
:103C9000BE00FE308316D60083123F088316D8007C
:103CA00083123E088316D7000A128A11831247270F
:103CB0000A168A158A11172D8A154D08033C031818
:103CC0006D2EFF3A031D682E4C08373C03186D2EED
:103CD00057081D3C031C6D2E992A8A11A82D8A15A0
:103CE0007C2E50140A308316D7000A128A118312D0
:103CF000F7220A168A1591299F286300FF3FFF3F8C
:103D00008A150A16802E8A0118308A0000280000C1
:103D1000031E832E90309800831618159816403095
:103D2000990083120330FA00213090000C14EC2625
:103D3000EA3A031DAF2EFA01B62EEC26F900E33A5B
:103D40000319B82E7908EA3A0319B62E7908ED3A24
:103D5000031D9D2EE430E7260330FA00EC26900187
:103D600098018316980183128C01832EEB30E52E87
:103D7000EC26F600EC26F500EC26F100FB00EC2624
:103D8000F300F20121308312031376020319D12EBE
:103D900075080339FC00FD000310FC0D20307C0782
:103DA000D22E20308400EC268000F207840AFB0B20
:103DB000D32E72087306E830031DE52EE730E726A0
:103DC000FE260038E4300319E530E7269D2E640016
:103DD0000C1EE72E9900080064007A080319FA2ED9
:103DE0000C1CFA2E1010FA0BF62E00340C100B30AF
:103DF0008F0010148C1EEC2E1A0808002130760259
:103E00000319502F831603178C1783120313750899
:103E1000FC3903178D000313760803178F00203039
:103E2000840003137D080319282F831603170C142D
:103E30000000000083120E088000840A0C08800035
:103E4000840A8D0A0313FD03F503F10AF10A112F09
:103E50007108FC00203E84000310FC0C7608031758
:103E60008F000313750803178D0003137C080317D5
:103E70008D0703198F0A03170D0803390319502FF3
:103E800083160C140000000083120E088000840AC0
:103E90000C088000840A8D0A0313F10AF10A3B2FF3
:103EA0007508F7007608F800FB010230F40071088D
:103EB0007B02031801347B08203E84002130780205
:103EC0000317831603196E2F8C1783011E30780297
:103ED0008030031977020318B62F702F8C138301DB
:103EE000770803178D0003137808031D852F04300E
:103EF00077020318852F031783168C1F822F8312D6
:103F000084308D0783011E30862F780803178F00B9
:103F100000088E00840A00088C0083160C155530AA
:103F20008D00AA308D008C140000000083018316E0
:103F300003178C1BBE2F8312031364000D1E9D2FCD
:103F40000D12831603170C110C14000000008312CD
:103F5000840300080E06031DB22F840A00080C0615
:103F60000319B62F8301F40B572F00348312031368
:103F70000230FB07F70A0319F80A552F83120313BF
:103F80000D12831603170C11831203170D08033942
:103F9000033C031DB62F03308D028312031304303C
:103FA000FC00073084020000831603170C14000085
:103FB000000000000000000000000008831203174A
:103FC0000E06031DE82F840A00080C060319EF2FC4
:103FD00083120313FC30F7050630FB02B22F831265
:103FE00003178D0A840A83120313FC0BD32FB62FF9
:103FF000FF3FFF3FFF3FFF3FFF3FFF3FFF3FFF3FD1
:02400E00323F3F
:10420000EF00CE0004003200300036003000000025
:1042100000000000000030003100310030003200AA
:1042200030003000370042006900780062007900F9
:1042300020004D006F00640065006C00200031001C
:10424000310035000000FF00FF00FF00FF00FF000D
:10425000FF00FF00FF00FF00FF00FF00FF00FF0066
:10426000460046004600460046004600460046001E
:10427000640064006400640064006400640064001E
:10428000200020002000200020002000200020002E
:104290004600640046005500640050005000500085
:1042A000500050005000500050005500550055007F
:1042B0005500550055005500550011001100110022
:1042C00011001100110011001100500055005000A4
:1042D00055004B00FF00FF00FF00FF00FF00FF0044
:1042E000FF00FF00FF00FF00FF00FF00FF00FF00D6
:1042F000FF00FF00FF00FF00FF00FF00FF00FF00C6
:10430000FF00FF00FF00FF00FF00FF00FF00FF00B5
:10431000FF00FF00FF00FF00FF00FF00FF00FF00A5
:10432000FF00FF00FF00FF00FF00FF00FF00FF0095
:10433000FF00FF00FF00FF00FF00FF00FF00FF0085
:10434000FF00FF00FF00FF00FF00FF00FF00FF0075
:10435000FF00FF00FF00FF00FF00FF00FF00FF0065
:10436000FF00FF00FF00FF00FF00FF00FF00FF0055
:10437000FF00FF00FF00FF00FF00FF00FF00FF0045
:10438000FF00FF00FF00FF00FF00FF00FF00FF0035
:10439000FF00FF00FF00FF00FF00FF00FF00FF0025
:1043A000FF00FF00FF00FF00FF00FF00FF00FF0015
:1043B000FF00FF00FF00FF00FF00FF00FF00FF0005
:1043C000FF00FF00FF00FF00FF00FF00FF00FF00F5
:1043D000FF00FF00FF00FF00FF00FF00FF00FF00E5
:1043E000FF00FF00FF00FF00FF00FF00FF00FF00D5
:1043F000FF00FF00FF00FF00FF00FF00FF00FF00C5
:08400000FF3FFF3FFF3FFF3FC0
:00000001FF
